:100000000C9463000C948B000C948B000C94F30301
:100010000C94F3030C94F3030C948B000C948B005E
:100020000C948B000C948B000C948B000C948B0024
:100030000C948B000C948B000C948B000C948B0014
:100040000C9451030C948B000C94C1030C949B03EF
:100050000C948B000C948B000C948B000C948B00F4
:100060000C948B000C948B000000000024002700EF
:100070002A0000000008000201000003040700003D
:1000800000000000000000000000230026002900FE
:1000900000000000250028002B00040404040404D0
:1000A0000404020202020202030303030303010227
:1000B00004081020408001020408102001020408F6
:1000C0001020B2042A0811241FBECFEFD8E0DEBFF3
:1000D000CDBF11E0A0E0B1E0E8ECF5E102C0059091
:1000E0000D92A638B107D9F722E0A6E8B1E001C029
:1000F0001D92A339B207E1F710E0C2E6D0E004C0D8
:100100002197FE010E94CC0AC136D107C9F70E948F
:100110005D050C94D70A0C94000090E0FC01EE58A9
:10012000FF4F2491FC01E255FF4F3491FC01E6564C
:10013000FF4FE491EE2309F43CC0222339F1233030
:1001400091F038F42130A9F0223001F584B58F7D8B
:1001500012C0273091F02830A1F02430B9F48091FA
:1001600080008F7D03C0809180008F778093800016
:100170000DC084B58F7784BD09C08091B0008F77A2
:1001800003C08091B0008F7D8093B000F0E0EE0F4F
:10019000FF1FE057FF4FA591B4919FB7F8946111ED
:1001A00004C08C913095382302C0EC913E2B3C93D7
:1001B0009FBF0895CF93DF9390E0FC01E255FF4F7E
:1001C0002491FC01E656FF4F8491882361F190E071
:1001D000880F991FFC01E859FF4FC591D491FC018C
:1001E000E057FF4FA591B491611109C09FB7F894F2
:1001F0008881209582238883EC912E230BC0623066
:1002000061F49FB7F8948881322F309583238883D7
:10021000EC912E2B2C939FBF06C08FB7F894E881EA
:100220002E2B28838FBFDF91CF9108953FB7F8948D
:100230008091D3019091D401A091D501B091D601C4
:1002400026B5A89B05C02F3F19F00196A11DB11D31
:100250003FBFBA2FA92F982F8827820F911DA11D6C
:10026000B11DBC01CD0142E0660F771F881F991FA9
:100270004A95D1F708958F929F92AF92BF92CF92F5
:10028000DF92EF92FF926B017C010E9416014B01FD
:100290005C01C114D104E104F104F1F00E941601E3
:1002A000DC01CB0188199909AA09BB09883E934052
:1002B000A105B10570F321E0C21AD108E108F108E7
:1002C00088EE880E83E0981EA11CB11CC114D104D5
:1002D000E104F10419F7DDCFFF90EF90DF90CF90AC
:1002E000BF90AF909F908F900895CF92DF92EF9242
:1002F000FF920F931F93CF93DF936C017A018B01D1
:10030000C0E0D0E0CE15DF0581F0D8016D918D0100
:10031000D601ED91FC910190F081E02DC601099587
:10032000892B11F02196EECF7E01C701DF91CF918D
:100330001F910F91FF90EF90DF90CF900895FC01F7
:10034000538D448D252F30E0842F90E0821B930B3A
:10035000541710F0CF96089501970895FC01918DE0
:10036000828D981761F0828DDF01A80FB11D5D9617
:100370008C91928D9F5F9F73928F90E008958FEF85
:100380009FEF0895FC01918D828D981731F0828D39
:10039000E80FF11D858D90E008958FEF9FEF089590
:1003A000FC01918D228D892F90E0805C9F4F821BF4
:1003B00091098F739927089587ED91E00E94D001EC
:1003C00021E0892B09F420E0822F0895FC01848D1F
:1003D000DF01A80FB11DA35ABF4F2C91848D90E06F
:1003E00001968F739927848FA689B7892C93A0894A
:1003F000B1898C91837080648C93938D848D9813D4
:1004000006C00288F389E02D80818F7D8083089566
:10041000EF92FF920F931F93CF93DF93EC0181E054
:10042000888F9B8D8C8D981305C0E889F989808110
:1004300085FD26C0F62E0B8D10E00F5F1F4F0F734A
:100440001127E02E8C8DE8120CC00FB607FCFACFF6
:10045000E889F989808185FFF5CFCE010E94E60108
:10046000F1CF8B8DFE01E80FF11DE35AFF4FF082B3
:100470009FB7F8940B8FEA89FB89808180620AC05C
:100480009FB7F894EE89FF896083E889F9898081B4
:100490008370806480839FBF81E090E0DF91CF9183
:1004A0001F910F91FF90EF900895CF93DF93EC0190
:1004B000888D8823C9F0EA89FB89808185FD05C084
:1004C000A889B9898C9186FD0FC00FB607FCF5CFBE
:1004D000808185FFF2CFA889B9898C9185FFEDCF06
:1004E000CE010E94E601E7CFDF91CF91089580E031
:1004F00090E0892B29F00E94DC0181110C9400000E
:1005000008952091C8013091C9012817390771F465
:100510009091C6018091C701981741F0E091C60102
:10052000F0E0EA57FE4F808190E008958FEF9FEF53
:10053000089508951F93CF93DF93DC015C968D910E
:100540009C915D97009739F421E030E013963C933D
:100550002E9312973BC05196ED91FC915297509675
:100560002C915097322F30951FB75E964C915E9725
:10057000742F727041FD6095F8944081772311F0DB
:10058000422B01C043234083EC012197F1F748E05F
:10059000508160FF02C0522B01C053235083EC01F5
:1005A0002197F1F76695415099F78081772319F0EB
:1005B0008323808302C0282B20831FBF5C968D91EC
:1005C0009C915D970197F1F781E090E0DF91CF91E9
:1005D0001F9108952091C8013091C901281739074A
:1005E00071F48091C7012091C60190E0805C9F4F1B
:1005F000821B910960E470E00E94820A089580E005
:1006000090E008952091C8013091C9012817390759
:10061000B9F49091C6018091C701981789F0E091D3
:10062000C601F0E0EA57FE4F80812091C60130E01C
:100630002F5F3F4F2F7333272093C60190E008951B
:100640008FEF9FEF0895089580E090E008950E9455
:10065000D20A6115710579F0FB0101900020E9F7DC
:100660003197AF01461B570BDC01ED91FC910280E5
:10067000F381E02D099480E090E00895CF93DF931B
:10068000BC0184E792E00E942903EC0164E271E07E
:1006900084E792E00E9429038C0F9D1FDF91CF9188
:1006A00008951F920F920FB60F9211242F933F932C
:1006B0008F939F93AF93BF938091CF019091D0017F
:1006C000A091D101B091D2013091CE0123E0230F4E
:1006D0002D3720F40196A11DB11D05C026E8230F7A
:1006E0000296A11DB11D2093CE018093CF0190935E
:1006F000D001A093D101B093D2018091D301909108
:10070000D401A091D501B091D6010196A11DB11DD2
:100710008093D3019093D401A093D501B093D601D7
:10072000BF91AF919F918F913F912F910F900FBEED
:100730000F901F9018951F920F920FB60F921124D1
:100740002F933F934F935F936F937F938F939F93D9
:10075000AF93BF93EF93FF9387ED91E00E94E60183
:10076000FF91EF91BF91AF919F918F917F916F9189
:100770005F914F913F912F910F900FBE0F901F905F
:1007800018951F920F920FB60F9211242F938F93EB
:100790009F93EF93FF93E091E701F091E80180814F
:1007A000E091ED01F091EE0182FD12C09081809107
:1007B000F0018F5F8F732091F101821751F0E0916A
:1007C000F001F0E0E952FE4F958F8093F00101C0F7
:1007D0008081FF91EF919F918F912F910F900FBE8C
:1007E0000F901F9018951F920F920FB60F92112421
:1007F0002F933F934F935F936F937F938F939F9329
:10080000AF93BF93EF93FF93E091C801F091C901BB
:10081000309709F451C0968DA685B785858591FFDF
:1008200004C09C91892329F447C09C91892309F035
:1008300043C0A389B4899C918589809589238C9331
:10084000868997890197F1F7608D718DA685B785A7
:10085000558538E020E0CB010197F1F7822F90E039
:1008600095958795282F4C91452309F020683150A4
:1008700091F7868D81FD20958091C70190E00196CA
:100880008F7399273091C601381749F0A091C7019D
:10089000B0E0AA57BE4F2C938093C70103C0868D4A
:1008A0008160868F828D938D0197F1F7A389B4893A
:1008B0009C918589892B8C93FF91EF91BF91AF918A
:1008C0009F918F917F916F915F914F913F912F9168
:1008D0000F900FBE0F901F901895CF92DF92EF925E
:1008E000FF920F931F93E82FF92F05C001501109B4
:1008F0002109310961F1908196239417B9F305C05C
:10090000015011092109310911F1908196239413A5
:10091000F7CFC12CD12CE12CF12C0AC08FEFC81AD3
:10092000D80AE80AF80A0C151D052E053F0579F0CE
:1009300080818623841791F36C2D7D2D8E2D9F2D24
:100940001F910F91FF90EF90DF90CF90089560E09E
:1009500070E080E090E01F910F91FF90EF90DF90AA
:10096000CF9008951092DA011092D90188EE93E0A9
:10097000A0E0B0E08093DB019093DC01A093DD0167
:10098000B093DE0124E031E03093D8012093D70109
:1009900025EC30E03093E4012093E30124EC30E0D7
:1009A0003093E6012093E50120EC30E03093E8013C
:1009B0002093E70121EC30E03093EA012093E90134
:1009C00022EC30E03093EC012093EB0126EC30E098
:1009D0003093EE012093ED011092F0011092F1019D
:1009E0001092F2011092F3011092770210927602A7
:1009F0008093780290937902A0937A02B0937B025D
:100A000086E191E0909375028093740210928B02BC
:100A100010928A0210928D0210928C0210928F0214
:100A200010928E02109291021092900260919202A6
:100A30006E7F6D7F609392026695617081E068279A
:100A40008AE00E948D0061E08AE00E94DA00E8EB13
:100A5000F0E0E491E0938402E4EAF0E0E491F0E075
:100A6000EE0FFF1FE057FF4F859194919093860200
:100A70008093850260E089E00E94DA008091920212
:100A800081FD04C061E089E00E948D0089E08093CF
:100A90008002E7EBF0E0E491E0938102E3EAF0E02A
:100AA000E491F0E0EE0FFF1FEA57FF4F859194911C
:100AB00090938302809382020895CF93DF93CDB702
:100AC000DEB7A2970FB6F894DEBF0FBECDBF789405
:100AD00084B5826084BD84B5816084BD85B5826043
:100AE00085BD85B5816085BD80916E0081608093F4
:100AF0006E0010928100809181008260809381005D
:100B0000809181008160809381008091800081606C
:100B1000809380008091B10084608093B1008091C7
:100B2000B00081608093B00080917A0084608093EF
:100B30007A0080917A00826080937A0080917A00B6
:100B4000816080937A0080917A00806880937A0037
:100B50001092C10010928F0210928E0210928D029C
:100B600010928C0210928B0210928A028DE991E011
:100B7000909391028093900290918002963108F0B8
:100B800058C02DEB30E030938B0220938A022BE982
:100B900031E030938D0220938C022CE231E03093CF
:100BA0008F0220938E0240916800983058F031E017
:100BB0009E3008F430E021E0822F01C0880F3A9582
:100BC000EAF701C084E0842B80936800983038F005
:100BD0009E3040F0963148F020E030E008C02DE62D
:100BE00030E005C02BE630E002C02CE630E0309368
:100BF000880220938702983030F481E001C0880F8A
:100C00009A95EAF70EC0292F30E09E3018F428504C
:100C1000310902C02E50310981E001C0880F2A95A8
:100C2000EAF7809389028091900290919102019756
:100C3000F1F780918E0290918F02892B49F1E0911A
:100C4000C801F091C90182E0E437F80709F1309753
:100C500039F0A389B4899C918589809589238C93E7
:100C6000809192028E7F809392021092C70110921F
:100C7000C60184E792E09093C9018093C801E09196
:100C80008702F0918802908180918902892B80836C
:100C9000E091E701F091E80182E08083E091E301D7
:100CA000F091E4011082E091E501F091E6018FEC12
:100CB00080831092EF01E091EB01F091EC0186E06E
:100CC0008083E091E901F091EA0180818061808375
:100CD000E091E901F091EA01808188608083E091F0
:100CE000E901F091EA01808180688083E091E90167
:100CF000F091EA0180818F7D808360E08BE00E942B
:100D0000DA0061E08DE00E94DA0064E670E080E0E5
:100D100090E00E943B0187E291E00E943E0368EE72
:100D200073E080E090E00E943B012AE0822E912C4B
:100D3000A12CB12C60E08DE00E948D008BE39FE13F
:100D40000197F1F761E08DE00E948D0087E390E06C
:100D50000197F1F760E08DE00E948D00E9EBF0E093
:100D60006491E5EAF0E08491E82FF0E0EE0FFF1FD8
:100D7000EA57FF4F8591949100E412E42FE030E0B0
:100D8000462F0E946D04611571058105910549F09A
:100D9000DC01CB010196A11DB11DBC01CD019F70ED
:100DA00003C060E070E0CB010E94590920E034E20A
:100DB00044E759E40E94B80820E030E84BEA53E4E5
:100DC0000E94100A20E030E040E05FE30E94100A39
:100DD0006093CA017093CB018093CC019093CD01B5
:100DE0006AE271E087ED91E00E942903C090CA0198
:100DF000D090CB01E090CC01F090CD01A7019601FD
:100E0000C701B6010E947D0A882319F06CE371E0E6
:100E10001AC026013701E89477F82FEF3FEF4FE72C
:100E20005FE7C301B2010E947D0A811111C02FEF5B
:100E30003FEF4FE75FE7C301B2010E94B308181606
:100E40003CF460E471E087ED91E00E9429039FC0CB
:100E50002FEF3FEF4FE75FE4C701B6010E940B0A97
:100E600018161CF464E471E0EECF2FEF3FEF4FE76C
:100E70005FECC701B6010E94B30887FDF3CF20E005
:100E800030E0A901C701B6010E94B30887FF09C07D
:100E90006DE287ED91E00E940802F7FAF094F7F80E
:100EA000F0942AE037ED43EA5BE3C701B6010E9404
:100EB00047082B013C010E942A096B017C010E941A
:100EC00059099B01AC01C301B2010E9446081B01F4
:100ED0002C0119A28E010F5D1F4F0AA3712EC701AD
:100EE000B601A50194010E94960A69017A01605D2C
:100EF000F80162938F01232B242B252B81F7BF014F
:100F000087ED91E00E9429036EE287ED91E00E9457
:100F1000080283E0F82EFA94FF20C9F120E030E0C7
:100F200040E251E4C201B1010E94100A1B012C01F0
:100F30000E942A099B0140E050E019A20AA1172D46
:100F4000662EC32ED42EE52ECA01B901A501940147
:100F50000E94960A605DF80162938F0121153105A8
:100F60004105510589F7BF0187ED91E00E942903F2
:100F7000662D7C2D8D2D9E2D0E9459099B01AC0163
:100F8000C201B1010E9446081B012C01C4CF64E2DA
:100F900071E087ED91E00E94290368EE73E080E044
:100FA00090E00E943B0187ED91E00E94D00118166D
:100FB0001906F4F587ED91E00E94AE0182379105A4
:100FC00069F183379105A1F588E491E00E943E0321
:100FD00068EE73E080E090E00E943B0182E591E0E2
:100FE0000E943E0368EE73E080E090E00E943B01C7
:100FF0008BE691E00E943E0364E670E080E090E0C2
:101000000E943B016AE184E792E00E949A0264E256
:1010100071E084E792E00E94290304C084E791E034
:101020000E943E0368EE73E080E090E00E943B0186
:1010300084E792E00E94EA02892B49F084E792E07B
:101040000E940203682F87ED91E00E9408020E942F
:10105000770270CE86E191E09093750280937402DE
:101060008091C8019091C9018457924071F4E09138
:101070008702F0918802908180918902809589236E
:1010800080831092C9011092C80108955058BB275F
:10109000AA270E945E080C94D1090E94C30938F067
:1010A0000E94CA0920F039F49F3F19F426F40C94E9
:1010B000C0090EF4E095E7FB0C94BA09E92F0E94F1
:1010C000E20958F3BA17620773078407950720F0FF
:1010D00079F4A6F50C94040A0EF4E0950B2EBA2FC1
:1010E000A02D0B01B90190010C01CA01A00111242E
:1010F000FF27591B99F0593F50F4503E68F11A16DA
:10110000F040A22F232F342F4427585FF3CF46956A
:1011100037952795A795F0405395C9F77EF41F168C
:10112000BA0B620B730B840BBAF09150A1F0FF0F56
:10113000BB1F661F771F881FC2F70EC0BA0F621F42
:10114000731F841F48F4879577956795B795F79532
:101150009E3F08F0B0CF9395880F08F09927EE0FC7
:101160009795879508950E94960908F481E008955F
:101170000E94CC080C94D1090E94CA0958F00E9420
:10118000C30940F029F45F3F29F00C94BA095111CA
:101190000C94050A0C94C0090E94E20968F3992393
:1011A000B1F3552391F3951B550BBB27AA27621763
:1011B0007307840738F09F5F5F4F220F331F441F70
:1011C000AA1FA9F335D00E2E3AF0E0E832D09150A4
:1011D0005040E695001CCAF72BD0FE2F29D0660F91
:1011E000771F881FBB1F261737074807AB07B0E8D4
:1011F00009F0BB0B802DBF01FF2793585F4F3AF0DA
:101200009E3F510578F00C94BA090C94050A5F3F93
:10121000E4F3983ED4F3869577956795B795F7955F
:101220009F5FC9F7880F911D9695879597F9089547
:10123000E1E0660F771F881FBB1F621773078407E3
:10124000BA0720F0621B730B840BBA0BEE1F88F7F2
:10125000E09508950E94EA0988F09F5798F0B92F09
:101260009927B751B0F0E1F0660F771F881F991FDB
:101270001AF0BA95C9F714C0B13091F00E94040A6F
:10128000B1E008950C94040A672F782F8827B85F7F
:1012900039F0B93FCCF3869577956795B395D9F733
:1012A0003EF490958095709561957F4F8F4F9F4F3D
:1012B0000895E89409C097FB3EF490958095709549
:1012C00061957F4F8F4F9F4F9923A9F0F92F96E992
:1012D000BB279395F695879577956795B795F11107
:1012E000F8CFFAF4BB0F11F460FF1BC06F5F7F4FA4
:1012F0008F4F9F4F16C0882311F096E911C07723B6
:1013000021F09EE8872F762F05C0662371F096E8BE
:10131000862F70E060E02AF09A95660F771F881F8D
:10132000DAF7880F9695879597F90895990F000831
:10133000550FAA0BE0E8FEEF16161706E807F907A7
:10134000C0F012161306E407F50798F0621B730B42
:10135000840B950B39F40A2661F0232B242B252BC3
:1013600021F408950A2609F4A140A6958FEF811D66
:10137000811D089597F99F6780E870E060E0089507
:101380009FEF80EC089500240A941616170618069D
:101390000906089500240A94121613061406050679
:1013A0000895092E0394000C11F4882352F0BB0F0A
:1013B00040F4BF2B11F460FF04C06F5F7F4F8F4F6D
:1013C0009F4F089557FD9058440F551F59F05F3FA8
:1013D00071F04795880F97FB991F61F09F3F79F057
:1013E00087950895121613061406551FF2CF4695D9
:1013F000F1DF08C0161617061806991FF1CF86955B
:101400007105610508940895E894BB27662777273E
:10141000CB0197F908950E94960908F48FEF08957B
:101420000E94230A0C94D1090E94C30938F00E943B
:10143000CA0920F0952311F00C94BA090C94C00944
:1014400011240C94050A0E94E20970F3959FC1F3E0
:10145000950F50E0551F629FF001729FBB27F00D62
:10146000B11D639FAA27F00DB11DAA1F649F6627B7
:10147000B00DA11D661F829F2227B00DA11D621F06
:10148000739FB00DA11D621F839FA00D611D221FC0
:10149000749F3327A00D611D231F849F600D211DA4
:1014A000822F762F6A2F11249F5750409AF0F1F027
:1014B00088234AF0EE0FFF1FBB1F661F771F881F90
:1014C00091505040A9F79E3F510580F00C94BA0905
:1014D0000C94050A5F3FE4F3983ED4F38695779524
:1014E0006795B795F795E7959F5FC1F7FE2B880F36
:1014F000911D9695879597F908950E949609880BF6
:10150000990B089597FB072E16F4009407D077FDEA
:1015100009D00E94B80A07FC05D03EF49095819549
:101520009F4F0895709561957F4F0895A1E21A2EFF
:10153000AA1BBB1BFD010DC0AA1FBB1FEE1FFF1F77
:10154000A217B307E407F50720F0A21BB30BE40BC7
:10155000F50B661F771F881F991F1A9469F760950E
:101560007095809590959B01AC01BD01CF010895C8
:10157000AA1BBB1B51E107C0AA1FBB1FA617B707B9
:1015800010F0A61BB70B881F991F5A95A9F78095D5
:101590009095BC01CD010895EE0FFF1F0590F491C9
:1015A000E02D099481E090E0F8940C94D70A10E0C3
:1015B000C2E6D0E004C0FE010E94CC0A2196C336E8
:0815C000D107C9F7F894FFCF31
:1015C80000000000080275019F015502D001AE011C
:1015D800C201000000009A02750124039902EA0280
:1015E800020381020D0A00415400546865206469B1
:1015F8007374616E63652069733A20006E616E00D2
:10160800696E66006F76660041542B434D47463D30
:10161800310041542B434D47533D222B323531394C
:101628003131353732343832220D00534D5320537F
:10163800454E540041542B434E4D493D322C322CDB
:06164800302C302C3000B4
:107E0000112484B714BE81FFF0D085E080938100F7
:107E100082E08093C00088E18093C10086E0809377
:107E2000C20080E18093C4008EE0C9D0259A86E02C
:107E300020E33CEF91E0309385002093840096BBD3
:107E4000B09BFECF1D9AA8958150A9F7CC24DD24C4
:107E500088248394B5E0AB2EA1E19A2EF3E0BF2EE7
:107E6000A2D0813461F49FD0082FAFD0023811F036
:107E7000013811F484E001C083E08DD089C08234E0
:107E800011F484E103C0853419F485E0A6D080C0E4
:107E9000853579F488D0E82EFF2485D0082F10E0AE
:107EA000102F00270E291F29000F111F8ED06801E7
:107EB0006FC0863521F484E090D080E0DECF843638
:107EC00009F040C070D06FD0082F6DD080E0C81688
:107ED00080E7D80618F4F601B7BEE895C0E0D1E017
:107EE00062D089930C17E1F7F0E0CF16F0E7DF06D8
:107EF00018F0F601B7BEE89568D007B600FCFDCFD4
:107F0000A601A0E0B1E02C9130E011968C91119780
:107F100090E0982F8827822B932B1296FA010C0160
:107F200087BEE89511244E5F5F4FF1E0A038BF0790
:107F300051F7F601A7BEE89507B600FCFDCF97BE46
:107F4000E89526C08437B1F42ED02DD0F82E2BD052
:107F50003CD0F601EF2C8F010F5F1F4F84911BD097
:107F6000EA94F801C1F70894C11CD11CFA94CF0C13
:107F7000D11C0EC0853739F428D08EE10CD085E9AC
:107F80000AD08FE07ACF813511F488E018D01DD067
:107F900080E101D065CF982F8091C00085FFFCCF94
:107FA0009093C60008958091C00087FFFCCF809118
:107FB000C00084FD01C0A8958091C6000895E0E648
:107FC000F0E098E1908380830895EDDF803219F02E
:107FD00088E0F5DFFFCF84E1DECF1F93182FE3DFCA
:107FE0001150E9F7F2DF1F91089580E0E8DFEE27F6
:047FF000FF270994CA
:027FFE00040479
:0400000300007E007B
:00000001FF
