:100000000C94FE000C94CE040C94A7040C9476057A
:100010000C9476050C9476050C9426010C9426011C
:100020000C9426010C9426010C9426010C942601B4
:100030000C9426010C9426010C9426010C942601A4
:100040000C9436090C9426010C9444050C941E055E
:100050000C9426010C9426010C9426010C94260184
:100060000C94F0050C942601A30BB80BB80BB70B3E
:10007000B80B950BB80BB80BB80B970BB80BB80BAC
:10008000AA0BB50BB30BB80BB80BB80BB10B0040F8
:100090007A10F35A00A0724E18090010A5D4E80097
:1000A00000E87648170000E40B54020000CA9A3BAF
:1000B000000000E1F5050000809698000000404235
:1000C0000F000000A08601000000102700000000C3
:1000D000E803000000006400000000000A000000C7
:1000E00000000100000000002C76D888DC674F0873
:1000F00023DFC1DFAE59E1B1B796E5E3E453C63A79
:10010000E651997696E8E6C28426EB898C9B62EDEF
:10011000407C6FFCEFBC9C9F40F2BAA56FA5F490A9
:10012000055A2AF75C936B6CF9676DC11BFCE0E420
:100130000D47FEF520E6B500D0ED902E0300943576
:1001400077050080841E080000204E0A000000C8C9
:100150000C333333330F986E12831141EF8D21141A
:10016000893BE65516CFFEE6DB18D1844B381BF7EA
:100170007C1D901DA4BBE424203284725E22810089
:10018000C9F124ECA1E53D2730353A33353A353510
:1001900000466562203234203230313900000000E0
:1001A00000240027002A00000000080002010000CF
:1001B000030407000000000000000000000000230E
:1001C000002600290000000000250028002B000464
:1001D00004040404040404020202020202030303EE
:1001E00003030301020408102040800102040810E8
:1001F0002001020408102000E90FCA0F11241FBEBD
:10020000CFEFD8E0DEBFCDBF24E0A2E0B3E001C075
:100210001D92A73EB207E1F713E0A0E0B1E0ECE7E2
:10022000FFE202C005900D92A230B107D9F710E0AD
:10023000CDEFD0E004C02197FE010E949B15CC3F7A
:10024000D107C9F70E94C5090C94B1170C9400009E
:100250000895CF92DF92EF92FF920F931F93CF9367
:10026000DF936C017A018B01C0E0D0E0CE15DF0591
:1002700081F0D8016D918D01D601ED91FC91019035
:10028000F081E02DC6010995892B11F02196EECF62
:100290007E01C701DF91CF911F910F91FF90EF90E9
:1002A000DF90CF900895FC01538D448D252F30E0D1
:1002B000842F90E0821B930B541710F0CF96089573
:1002C00001970895FC01918D828D981761F0828DC0
:1002D000DF01A80FB11D5D968C91928D9F5F9F737A
:1002E000928F90E008958FEF9FEF0895FC01918D1C
:1002F000828D981731F0828DE80FF11D858D90E089
:1003000008958FEF9FEF0895FC01918D228D892F25
:1003100090E0805C9F4F821B91098F73992708950D
:100320008CE094E00E94840121E0892B09F420E014
:10033000822F0895FC01848DDF01A80FB11DA35AFF
:10034000BF4F2C91848D90E001968F739927848FF5
:10035000A689B7892C93A089B1898C918370806418
:100360008C93938D848D981306C00288F389E02DB9
:1003700080818F7D80830895EF92FF920F931F936A
:10038000CF93DF93EC0181E0888F9B8D8C8D981348
:1003900005C0E889F989808185FD26C0F62E0B8D80
:1003A00010E00F5F1F4F0F731127E02E8C8DE812A6
:1003B0000CC00FB607FCFACFE889F989808185FF68
:1003C000F5CFCE010E949A01F1CF8B8DFE01E80F8F
:1003D000F11DE35AFF4FF0829FB7F8940B8FEA8923
:1003E000FB89808180620AC09FB7F894EE89FF89FB
:1003F0006083E889F98980818370806480839FBFEE
:1004000081E090E0DF91CF911F910F91FF90EF90ED
:100410000895CF93DF93EC01888D8823C9F0EA8992
:10042000FB89808185FD05C0A889B9898C9186FDED
:100430000FC00FB607FCF5CF808185FFF2CFA889EA
:10044000B9898C9185FFEDCFCE010E949A01E7CF4B
:10045000DF91CF91089580E090E0892B29F00E94F0
:10046000900181110C9400000895209104033091B3
:1004700005032817390771F4909102038091030353
:10048000981741F0E0910203F0E0E15AFC4F8081BF
:1004900090E008958FEF9FEF089508951F93CF93F5
:1004A000DF93DC015C968D919C915D97009739F408
:1004B00021E030E013963C932E9312973BC0519667
:1004C000ED91FC91529750962C915097322F309588
:1004D0001FB75E964C915E97742F727041FD6095C8
:1004E000F8944081772311F0422B01C043234083CD
:1004F000EC012197F1F748E0508160FF02C0522BD8
:1005000001C053235083EC012197F1F766954150C8
:1005100099F78081772319F08323808302C0282BE9
:1005200020831FBF5C968D919C915D970197F1F799
:1005300081E090E0DF91CF911F9108952091040315
:10054000309105032817390771F480910303209136
:10055000020390E0805C9F4F821B910960E470E091
:100560000E948715089580E090E00895209104038B
:100570003091050328173907B9F49091020380914F
:100580000303981789F0E0910203F0E0E15AFC4F71
:1005900080812091020330E02F5F3F4F2F7333277C
:1005A0002093020390E008958FEF9FEF089585ED6B
:1005B0008093BC008091BC0084FDFCCF1092E703C7
:1005C000089540913C03262F30E0240F311D213245
:1005D0003105DCF42091E7032430C9F4FC0180E00C
:1005E00090E0861758F430913C032191DC01A45E21
:1005F000BC4FA30FB11D2C930196F3CF80913C0308
:10060000680F60933C0380E0089581E0089582E0E4
:10061000089508950895E091A00380919F03E8173D
:1006200030F4F0E0EF55FC4F808190E008958FEFBB
:100630009FEF08959091A00380919F03981750F425
:10064000E92FF0E0EF55FC4F208130E09F5F909361
:10065000A00302C02FEF3FEFC901089580919F03CF
:1006600090E02091A003821B91090895CF92DF9220
:10067000EF92FF920F931F93CF93DF937C01CB01F7
:100680008A012091E803222389F0EB016B01C40E5B
:10069000D51ECC15DD0569F06991D701ED91FC916E
:1006A0000190F081E02DC7010995F3CF642F0E94DE
:1006B000E102C801DF91CF911F910F91FF90EF9060
:1006C000DF90CF900895CF93DF931F92CDB7DEB721
:1006D00069832091E8032223D1F020910B0420327A
:1006E00040F021E030E0FC013383228380E090E0A1
:1006F00015C08091E903E82FF0E0E651FC4F9981A5
:1007000090838F5F8093E90380930B0405C061E0C1
:10071000CE0101960E94E10281E090E00F90DF910E
:10072000CF910895089580E090E0089580910A03A4
:1007300090910B03019690930B0380930A03089505
:100740000E949C170F931F93CF93DF93EC01888136
:100750009981009729F02A813B812617370788F471
:100760008B016F5F7F4F0E94D616009761F09983CF
:1007700088831B830A832C813D81232B11F4FC0188
:10078000108281E001C080E0DF91CF911F910F9135
:100790000895EF92FF920F931F93CF93DF9361150C
:1007A000710511F480E01CC041155105C1F07B01B9
:1007B000EC018C819D818A01080F191FB801CE01BF
:1007C0000E94A203882371F3288139818C819D8145
:1007D000B701820F931F0E94AA171D830C8381E02B
:1007E000DF91CF911F910F91FF90EF900895CF93DC
:1007F000DF93EC0188819981009711F00E944D16DA
:10080000198218821D821C821B821A82DF91CF916D
:100810000895CF93DF93EC016115710561F0FB0141
:1008200001900020E9F73197AF01461B570B0E945A
:10083000C903811103C0CE010E94F703CE01DF91ED
:10084000CF910895CF93DF93EC01FB014481558153
:10085000608171810E94C903811103C0CE010E9491
:10086000F703CE01DF91CF910895EF92FF920F939E
:100870001F93CF93DF93EC017B018A01BA010E94A1
:10088000A203811104C0CE010E94F70307C01D839B
:100890000C83B701888199810E94AA17CE01DF914C
:1008A000CF911F910F91FF90EF900895CF93DF9319
:1008B000EC016115710559F0FB0101900020E9F789
:1008C0003197AF01461B570B0E94350402C00E94AE
:1008D000F703CE01DF91CF910895CF93DF93EC0121
:1008E000FB018617970761F06081718161157105C1
:1008F00029F0448155810E94350402C00E94F7030B
:10090000CE01DF91CF910895FC01808191810C94FB
:100910004D16FC01118210821382128215821482FC
:100920000C946D04FC0111821082138212821582D4
:1009300014826115710551F0FB0101900020E9F767
:100940003197AF01461B570B0C94350408951F9245
:100950000F920FB60F9211242F933F934F935F93F3
:100960006F937F938F939F93AF93BF93EF93FF9377
:10097000E0910201F09103010995FF91EF91BF9180
:10098000AF919F918F917F916F915F914F913F9127
:100990002F910F900FBE0F901F9018951F920F92DE
:1009A0000FB60F9211242F933F934F935F936F9342
:1009B0007F938F939F93AF93BF93EF93FF93E091B8
:1009C0000001F09101010995FF91EF91BF91AF9165
:1009D0009F918F917F916F915F914F913F912F9157
:1009E0000F900FBE0F901F9018956115710579F04B
:1009F000FB0101900020E9F73197AF01461B570B2F
:100A0000DC01ED91FC910280F381E02D099480E0FE
:100A100090E008950F931F93CF93DF93EC010E9412
:100A2000F5048C0163EA71E0CE010E94F504800FA9
:100A3000911FDF91CF911F910F9108951F920F92F7
:100A40000FB60F9211242F933F934F935F936F93A1
:100A50007F938F939F93AF93BF93EF93FF938CE01C
:100A600094E00E949A01FF91EF91BF91AF919F9105
:100A70008F917F916F915F914F913F912F910F9047
:100A80000FBE0F901F9018951F920F920FB60F92E6
:100A900011242F938F939F93EF93FF93E0911C0466
:100AA000F0911D048081E0912204F091230482FDE5
:100AB00012C09081809125048F5F8F73209126044E
:100AC000821751F0E0912504F0E0E45FFB4F958F31
:100AD0008093250401C08081FF91EF919F918F91B8
:100AE0002F910F900FBE0F901F9018951F920F928D
:100AF0000FB60F9211242F933F934F935F936F93F1
:100B00007F938F939F93AF93BF93EF93FF93E09166
:100B10000403F0910503309709F451C0968DA68522
:100B2000B785858591FF04C09C91892329F447C02E
:100B30009C91892309F043C0A389B4899C9185893C
:100B4000809589238C93868997890197F1F7608D29
:100B5000718DA685B785558538E020E0CB010197DA
:100B6000F1F7822F90E095958795282F4C9145239A
:100B700009F02068315091F7868D81FD2095809194
:100B8000030390E001968F73992730910203381781
:100B900049F0A0910303B0E0A15ABC4F2C9380937D
:100BA000030303C0868D8160868F828D938D0197AC
:100BB000F1F7A389B4899C918589892B8C93FF9146
:100BC000EF91BF91AF919F918F917F916F915F91C5
:100BD0004F913F912F910F900FBE0F901F9018953E
:100BE0001F920F920FB60F9211242F933F934F93A2
:100BF0005F936F937F938F939F93AF93BF93EF9385
:100C0000FF938091B900887F803609F49CC068F515
:100C1000883209F45BC090F4803109F454C038F490
:100C2000882309F4F6C0883009F44DC0F6C0883135
:100C300009F44CC0803209F45DC0EFC0803409F47F
:100C400068C048F4803309F455C0883309F0E5C022
:100C50008093E503D8C0803509F44FC0883509F486
:100C60005DC0883409F0D9C0D6C0883909F4C7C03E
:100C7000A8F4883709F467C038F4883609F463C0EB
:100C8000803709F460C0C9C0883809F4B8C0803919
:100C900009F45FC0803809F0C0C05BC0803B09F434
:100CA00086C038F4803A09F466C0883A09F47FC0F7
:100CB000B4C0803C09F4A7C0883C09F4A4C0883BB8
:100CC00009F48AC0AAC08091C20310C09091E403C5
:100CD0008091E303981770F5E091E40381E08E0FB3
:100CE0008093E403F0E0ED53FC4F80818093BB00E0
:100CF00085EC86C08093E5038EC0E091E40381E03B
:100D00008E0F8093E4038091BB00F0E0ED53FC4F25
:100D100080839091E4038091E3036EC0E091E4034B
:100D200081E08E0F8093E4038091BB00F0E0ED53EF
:100D3000FC4F80838091E60381116DC081E0809338
:100D4000C10384EA61C083E08093E70310925E03ED
:100D5000CFCF80915E03803208F051C0E0915E03F6
:100D600081E08E0F80935E038091BB00F0E0E25C37
:100D7000FC4F8083BDCF85EC8093BC001092E703CD
:100D800080915E03803230F4E0915E03F0E0E25C3B
:100D9000FC4F108260915E0370E0E0910603F091D9
:100DA00007038EE393E0099510925E0336C084E05A
:100DB0008093E70310923D0310923C03E0910803F7
:100DC000F0910903099580913C03811105C081E0F0
:100DD00080933C0310921C03E0913D0381E08E0F51
:100DE00080933D03F0E0E45EFC4F80818093BB0084
:100DF00090913D0380913C03981708F479CF85E8E2
:100E00008093BC000AC085EC8093BC001092E7037D
:100E100004C01092E5030E94D702FF91EF91BF91A9
:100E2000AF919F918F917F916F915F914F913F9182
:100E30002F910F900FBE0F901F9018953FB7F89409
:100E40008091DF049091E004A091E104B091E2046C
:100E500026B5A89B05C02F3F19F00196A11DB11D15
:100E60003FBFBA2FA92F982F8827820F911DA11D50
:100E7000B11DBC01CD0142E0660F771F881F991F8D
:100E80004A95D1F708958230D8F4E82FF0E0EE0FBC
:100E9000FF1FE050FF4F26E933E03183208381308C
:100EA00041F0809169008C7F826080936900E89AAC
:100EB000089580916900837F886080936900E99A32
:100EC0000895282F30910B04313208F04AC08091E8
:100ED000E7038111FCCF90910A0442E04093E703BD
:100EE0002093E6032FEF2093E5031092E403309361
:100EF000E303EAEEF3E0A3ECB3E020E0321721F0E5
:100F000041914D932F5FFACF1092C2032091C203FB
:100F1000990F922B9093C2039091C103913061F489
:100F20001092C1039091C2039093BB009091BC00BA
:100F300093FDF8CF95EC01C095EE9093BC00909195
:100F4000E7039230E1F39091E5039F3F79F08091C0
:100F5000E503803241F08091E503803331F084E095
:100F600005C081E003C082E001C083E01092E90384
:100F700010920B041092E80308959091E7039111E9
:100F8000FCCF982F813208F090E281E08093E70354
:100F90008093E6032FEF2093E5031092E403290FDB
:100FA0002093E3038093C2038091C203806D8093FA
:100FB000C2038091C103813061F41092C10380911A
:100FC000C2038093BB008091BC0083FDF8CF85EC09
:100FD00001C085EE8093BC008091E7038130E1F38E
:100FE0008091E403891710F49091E403E3ECF3E0BB
:100FF000A1EAB3E080E0891721F021912D938F5F62
:10100000FACF1092A00380939F0308950F931F932C
:10101000CF93DF93CDB7DEB729970FB6F894DEBF35
:101020000FBECDBF8C01862FF80111821082138272
:101030001282158214824AE0BE016F5F7F4F90E0FA
:101040000E94DF10BE016F5F7F4FC8010E945604EF
:1010500029960FB6F894DEBF0FBECDBFDF91CF91BA
:101060001F910F91089590E0FC01E955FE4F2491E6
:10107000FC01ED51FE4F3491FC01E153FE4FE49130
:10108000EE2309F43CC0222339F1233091F038F4E7
:101090002130A9F0223001F584B58F7D12C02730B0
:1010A00091F02830A1F02430B9F4809180008F7D38
:1010B00003C0809180008F77809380000DC084B53D
:1010C0008F7784BD09C08091B0008F7703C0809175
:1010D000B0008F7D8093B000F0E0EE0FFF1FEB5368
:1010E000FE4FA591B4919FB7F894611104C08C9103
:1010F0003095382302C0EC913E2B3C939FBF08955E
:10110000CF93DF9390E0FC01ED51FE4F2491FC0161
:10111000E153FE4F8491882361F190E0880F991F7D
:10112000FC01E356FE4FC591D491FC01EB53FE4FF9
:10113000A591B491611109C09FB7F8948881209559
:1011400082238883EC912E230BC0623061F49FB719
:10115000F8948881322F309583238883EC912E2B4D
:101160002C939FBF06C08FB7F894E8812E2B28835D
:101170008FBFDF91CF9108958F929F92AF92BF92D0
:10118000CF92DF92EF92FF926B017C010E941E07CB
:101190004B015C01C114D104E104F104F1F00E949F
:1011A0001E07DC01CB0188199909AA09BB09883EF1
:1011B0009340A105B10570F321E0C21AD108E108FE
:1011C000F10888EE880E83E0981EA11CB11CC114A2
:1011D000D104E104F10419F7DDCFFF90EF90DF9027
:1011E000CF90BF90AF909F908F9008952FB7F894B5
:1011F0006091DB047091DC048091DD049091DE0449
:101200002FBF08950F931F930E94F6086093140454
:101210007093150480931604909317048CE094E067
:101220000E94620197FF1FC00E94F60800911404FB
:10123000109115042091160430911704DC01CB01A4
:10124000801B910BA20BB30B0091100410911104A1
:10125000209112043091130480179107A207B3075D
:10126000E8F28FEF9FEF1F910F9108951F920F9259
:101270000FB60F9211242F933F938F939F93AF93A9
:10128000BF938091DB049091DC04A091DD04B091C8
:10129000DE043091DA0423E0230F2D3720F4019689
:1012A000A11DB11D05C026E8230F0296A11DB11D89
:1012B0002093DA048093DB049093DC04A093DD0494
:1012C000B093DE048091DF049091E004A091E104EA
:1012D000B091E2040196A11DB11D8093DF049093AB
:1012E000E004A093E104B093E204BF91AF919F9119
:1012F0008F913F912F910F900FBE0F901F901895D7
:10130000CF92DF92EF92FF920F931F93E82FF92F66
:1013100005C0015011092109310961F1908196231D
:101320009417B9F305C0015011092109310911F1D0
:10133000908196239413F7CFC12CD12CE12CF12C62
:101340000AC08FEFC81AD80AE80AF80A0C151D055A
:101350002E053F0579F080818623841791F36C2D4B
:101360007D2D8E2D9F2D1F910F91FF90EF90DF907F
:10137000CF90089560E070E080E090E01F910F91C1
:10138000FF90EF90DF90CF900895CF93DF93CDB78C
:10139000DEB7CB54D1090FB6F894DEBF0FBECDBF78
:1013A000789484B5826084BD84B5816084BD85B540
:1013B000826085BD85B5816085BD80916E0081604C
:1013C00080936E00109281008091810082608093F2
:1013D00081008091810081608093810080918000F4
:1013E0008160809380008091B10084608093B1001F
:1013F0008091B00081608093B00080917A00846019
:1014000080937A0080917A00826080937A00809144
:101410007A00816080937A0080917A00806880935E
:101420007A001092C1001092D0041092CF04109252
:10143000CE041092CD041092CC041092CB048DE90E
:1014400091E09093D2048093D1049091C10496319D
:1014500008F058C02DEB30E03093CC042093CB043F
:101460002BE931E03093CE042093CD042CE231E01F
:101470003093D0042093CF0440916800983058F006
:1014800031E09E3008F430E021E0822F01C0880F67
:101490003A95EAF701C084E0842B80936800983085
:1014A00038F09E3040F0963148F020E030E008C03F
:1014B0002DE630E005C02BE630E002C02CE630E03F
:1014C0003093C9042093C804983030F481E001C0FF
:1014D000880F9A95EAF70EC0292F30E09E3018F455
:1014E0002850310902C02E50310981E001C0880F17
:1014F0002A95EAF78093CA048091D1049091D2048E
:101500000197F1F78091CF049091D004892B49F194
:10151000E0910403F091050324E0E53BF20709F1B3
:10152000309739F0A389B4899C9185898095892366
:101530008C938091D3048E7F8093D3041092030305
:101540001092020385EB94E09093050380930403CB
:10155000E091C804F091C90490818091CA04892B5C
:101560008083E0911C04F0911D0482E08083E0916F
:101570001804F09119041082E0911A04F0911B04F0
:101580008FEC808310922404E0912004F0912104D8
:1015900086E08083E0911E04F0911F0480818061C9
:1015A0008083E0911E04F0911F0480818860808315
:1015B000E0911E04F0911F04808180688083E09197
:1015C0001E04F0911F0480818F7D808360E08BE09A
:1015D0000E94800861E08DE00E94800860E082E067
:1015E0000E94800861E082E00E94330861E086E0AA
:1015F0000E94800861E088E00E94800861E087E046
:101600000E94800810920B0310920A03109210039C
:1016100010921103109212031092130310920C03F4
:1016200010920D0310920E0310920F0310921403E8
:1016300010921503109216031092170364E670E0DF
:1016400080E090E00E94BC081092A00310929F03DB
:101650001092E90310920B041092E70301E000934B
:10166000E6031092C10361E082E10E94330861E069
:1016700083E10E9433088091B9008E7F8093B90086
:101680008091B9008D7F8093B90088E48093B80081
:1016900085E48093BC0089E093E0909309038093F4
:1016A00008038AE093E09093070380930603009376
:1016B000E80388E680930A041092E90310920B0471
:1016C00060E089EA94E00E94630381E00E94610780
:1016D00081E090E00E94BD0789EA94E00E941A032D
:1016E00087FFCDC060E471E08CE094E00E940A05C1
:1016F0004BE050E061E971E0CE0101960E94D61006
:10170000CE010A960E94BD0F082FE9814E2FEE0FE1
:10171000550B660B770BFA01E154F109E331F10542
:1017200038F5EC5CFF4F0C949B1512E021C08A81C8
:10173000813639F08B818E3611F017E019C016E032
:1017400017C011E015C08B81823711F018E010C06E
:1017500014E00EC08B81823711F015E009C013E050
:1017600007C019E005C01AE003C01BE001C01CE07F
:10177000CE0105960E94BD0FE82E48E050E068E8D3
:1017800071E0CE0101960E94D610CE0101960E9412
:10179000BD0FD82ECE0104960E94BD0FC82ECE01DB
:1017A00007960E94BD0FB82E81E08093E80388E67B
:1017B00080930A041092E90310920B0460E089EA16
:1017C00094E00E9463039AE0F92E8B2D6F2D0E9406
:1017D0007B15682F660F860F880F682F6B0D89EABF
:1017E00094E00E9463038C2D6F2D0E947B15682F5F
:1017F000660F860F880F682F6C0D89EA94E00E94AF
:1018000063038D2D6F2D0E947B15682F660F860F49
:10181000880F682F6D0D89EA94E00E94630360E0F1
:1018200089EA94E00E9463038E2D6F2D0E947B1540
:10183000682F660F860F880F682F6E0D89EA94E077
:101840000E946303812F6F2D0E947B15682F660F06
:10185000680F660F610F89EA94E00E946303802F8E
:101860006F2D0E947B15682F660F680F660F600F43
:1018700089EA94E00E94630381E00E94610780E0AE
:101880000E94430764E571E085EB94E00E940A053D
:10189000BBE3EB2EBFE1FB2E17E3C12ED12C0AEDEB
:1018A000A02E01E0B02E88E2882E81E0982E61E023
:1018B00086E00E94330860E08DE00E943308C70193
:1018C0000197F1F761E08DE00E943308C6010197AE
:1018D000F1F760E08DE00E943308EEEEF1E06491F4
:1018E000F5018491E82FF0E0EE0FFF1FE554FE4F65
:1018F0008591949100E412E42FE030E0462F0E949D
:101900008009611571058105910549F0DC01CB0164
:101910000196A11DB11DBC01CD019F7003C060E007
:1019200070E0CB010E943B1320E034E244E759E42D
:101930000E94DA1420E030E84BEA53E40E94781366
:1019400020E030E040E05FE30E9478139B01AC01AF
:1019500060E070E080E090E40E946D1460931803F2
:101960007093190380931A0390931B030E94F60847
:101970000091140310911503209116033091170361
:10198000DC01CB01801B910BA20BB30B893E934072
:10199000A105B10508F476C0E89890920101809203
:1019A00000010E94F6080091140310911503209184
:1019B000160330911703601B710B820B930B0E946F
:1019C0003B139B01AC0160E070E08AE794E40E9465
:1019D000DA142B013C0160910A0370910B03072E6E
:1019E000000C880B990B0E943D139B01AC01C301B5
:1019F000B2010E94781320E030E040E950E40E94F8
:101A0000DA142B013C01609310037093110380934F
:101A10001203909313030E94F608609314037093CB
:101A20001503809316039093170320E030E040E7FE
:101A300052E4C301B2010E94DA1420E030E04AE728
:101A400054E40E9478130E944C1500910C031091ED
:101A50000D0320910E0330910F03D901C801860FA9
:101A6000971FA11DB11D80930C0390930D03A093AC
:101A70000E03B0930F0310920B0310920A0380E041
:101A80000E94430781E08093E80388E680930A047C
:101A90001092E90310920B0460E089EA94E00E943E
:101AA000630381E00E94610787E090E00E94BD0728
:101AB00089EA94E00E941A038F77982F92959F707D
:101AC0001AEF382E919F300C112489EA94E00E947D
:101AD0001A039C01332794E0359527959A95E1F7F1
:101AE000482E129F400C112489EA94E00E941A03A8
:101AF0009C01332744E0359527954A95E1F7582E08
:101B0000129F500C112489EA94E00E941A0389EA7A
:101B100094E00E941A039C01332754E035952795E1
:101B20005A95E1F7682E129F600C112489EA94E01F
:101B30000E941A039C01332764E0359527956A9526
:101B4000E1F7782E129F700C112489EA94E00E942C
:101B50001A039C01332774E0359527957A95E1F7B0
:101B6000129F800D1124082F10E00053184F632D91
:101B7000CE0182960E940608642DCE0188960E94AE
:101B80000608652DCE018E960E940608662DCE01B0
:101B9000C4960E940608672DCE01CA960E940608C8
:101BA00022961FAE1EAE229724961FAE1EAE24971D
:101BB00026961FAE1EAE26974AE0BE016F5F7F4F8E
:101BC000C8010E94DF10BE016F5F7F4FCE01805CB5
:101BD0009F4F0E945604BE01605C7F4FCE0101966C
:101BE0000E9489048FE227968FAF279728961FAE11
:101BF000289741E050E0BE016A5B7F4FCE0101961D
:101C00000E94C903811104C0CE0101960E94F7030E
:101C1000BE01665C7F4FCE0101960E9422048C01BA
:101C20008FE227968FAF279728961FAE289741E01F
:101C300050E0BE016A5B7F4FC8010E94C903811159
:101C400003C0C8010E94F703BE016C5C7F4FC8014E
:101C50000E94220467E571E00E940904BE01625DF2
:101C60007F4F0E94220461E871E00E940904BE01D6
:101C7000685D7F4F0E94220461E871E00E940904C0
:101C8000BE016E5D7F4F0E942204BC01CE018A5BC3
:101C90009F4F0E948904CE0101960E948404CE01C8
:101CA000805C9F4F0E948404CE01CA960E948404E7
:101CB000CE01C4960E948404CE018E960E948404B4
:101CC000CE0188960E948404CE0182960E948404EC
:101CD000609118037091190380911A0390911B036E
:101CE0001BA21AA21DA21CA21FA21EA28E010F5F80
:101CF0001F4F22E044E00E94B610BC01CE01829644
:101D00000E94560460911003709111038091120398
:101D10009091130319A618A61BA61AA61DA61CA609
:101D200022E044E00E94B610BC01CE0188960E94D9
:101D3000560469E571E0C8010E949204BE01685D25
:101D40007F4FC8010E94220460E771E00E940904ED
:101D5000BE016E5D7F4F0E9422046AE771E00E941F
:101D60000904BE016A5B7F4F0E94220463E871E0B0
:101D70000E940904BC01CE018E960E948904C8010C
:101D80000E948404CE0188960E948404CE0182962B
:101D90000E9484048CE094E00E94840118161906C5
:101DA0000CF0CAC065E871E08CE094E00E940A057E
:101DB00065EA71E0CE0182960E9492040E940209B7
:101DC00097FD0CC089831A8241E050E0BE016F5F2D
:101DD0007F4FCE0182960E94C903F0CF60E273E08C
:101DE00080E090E00E94BC0864ED74E0CE010196B2
:101DF0000E948904BE01625D7F4FCE0101960E9460
:101E0000220465E971E00E940904BE016E5D7F4F06
:101E10000E942204BC0184ED94E00E946D04CE0176
:101E200001960E94840461E088E00E94330864ED1A
:101E300074E0CE0101960E94890467E971E085EBA8
:101E400094E00E940A056DE085EB94E00E944E024A
:101E500063EA71E085EB94E00E94F50464EF71E0C1
:101E600080E090E00E94BC0866EA71E085EB94E0B7
:101E70000E940A0564EF71E080E090E00E94BC08D7
:101E80006AEB71E085EB94E00E940A0564EF71E073
:101E900080E090E00E94BC086CEE71E085EB94E07D
:101EA0000E940A0564EF71E080E090E00E94BC08A7
:101EB00069E472E085EB94E00E940A056FE572E048
:101EC00085EB94E00E940A0568E872E085EB94E0F7
:101ED0000E940A0562ED72E085EB94E00E940A051B
:101EE0004D815E8169817A8185EB94E00E942901B0
:101EF00063EA71E085EB94E00E94F5046FE572E01F
:101F000085EB94E00E940A0561EF72E085EB94E0B6
:101F10000E940A0564EF71E080E090E00E94BC0836
:101F2000CE0101960E94840460E088E00E9433089C
:101F3000CE0182960E94840485EB94E00E949E026A
:101F4000892B49F085EB94E00E94B602682F8CE063
:101F500094E00E94BC0164EF71E080E090E00E9498
:101F6000BC08CE018E960E948404CE018A5B9F4FEE
:101F70000E9484040E942B029ACCFC019081905311
:101F80009A3008F090E0818180532AE0929F800D82
:101F90001124089582E391E09093B6048093B504F0
:101FA0008091040390910503855B944071F4E09166
:101FB000C804F091C90490818091CA048095892356
:101FC0008083109205031092040384ED94E00C9436
:101FD0008404CF92DF92EF92FF9210920F0410923E
:101FE0000E0498EEC92E93E0D92EE12CF12CC0926C
:101FF0001004D0921104E0921204F09213048EE0C7
:1020000091E090930D0480930C0485EC90E0909304
:1020100019048093180484EC90E090931B0480933F
:102020001A0480EC90E090931D0480931C0481ECD2
:1020300090E090931F0480931E0482EC90E09093B4
:1020400021048093200486EC90E0909323048093F5
:102050002204109225041092260410922704109254
:1020600028041092AC041092AB04C092AD04D0923C
:10207000AE04E092AF04F092B00480E291E090935D
:10208000AA048093A90465EA71E084ED94E00E94BB
:1020900092041092B8041092B704C092B904D0927E
:1020A000BA04E092BB04F092BC0482E391E0909306
:1020B000B6048093B5041092CC041092CB04109215
:1020C000CE041092CD041092D0041092CF0410923E
:1020D000D2041092D1046091D3046E7F6D7F60931F
:1020E000D3046695617081E068278AE00E94330816
:1020F00061E08AE00E948008EDEEF1E0E491E09377
:10210000C504E9EDF1E0E491F0E0EE0FFF1FEB53C1
:10211000FE4F859194919093C7048093C60460E02C
:1021200089E00E9480088091D30481FD04C061E0B1
:1021300089E00E94330889E08093C104ECEEF1E06D
:10214000E491E093C204E8EDF1E0E491F0E0EE0FF9
:10215000FF1FE554FE4F859194919093C4048093A2
:10216000C304FF90EF90DF90CF900895EF920F930C
:102170001F93CF93DF93E80147FD02C034E001C015
:1021800034E1042E000C550B57FF03C051954195C7
:102190005109E32E022F242FAE010E94F910CE0127
:1021A000DF91CF911F910F91EF900895FB01DC011A
:1021B00002C005900D9241505040D8F70895BB27BA
:1021C000FB015527AA27880F991FAA1FA41710F0F3
:1021D000A41B83955051B9F7A05DAA3308F0A95DFF
:1021E000A193009779F7B111B1931192CB010C949F
:1021F0002B13A9E0B0E0EFEFF0E10C943C146A017E
:10220000122FB02E2BE3201720F0FF24F394F00EB2
:1022100002C02CE3F22E0F2D27E0AE014F5F5F4F7F
:102220000E945312BC014981842F8970813031F0A2
:10223000E1FC06C0E0FE06C090E205C09DE203C0DE
:102240009BE201C090E05E2D507143FF3CC09111B4
:1022500002C083E001C084E0811718F4212F281BFD
:1022600001C020E051110BC0F601822F30E288231B
:1022700019F031938150FBCFC20ED11C20E099237D
:1022800029F0D6019C93F60131966F01C6010396A1
:10229000E2FE0AC03EE4D6013C9341E411964C9321
:1022A000119712963C9306C03EE6F601308341E654
:1022B00041833283FC01322F40E2332309F442C0D0
:1022C00041933150FACF42FF44C0911102C083E0E4
:1022D00001C084E0811718F4212F281B01C020E0E1
:1022E00051110BC0F601822F30E2882319F031938F
:1022F0008150FBCFC20ED11C20E0992329F0D601DA
:102300009C93F60131966F01C6010396E2FE0BC065
:1023100039E4D6013C933EE411963C93119736E4A0
:1023200012963C9307C039E6F60130833EE63183CE
:1023300036E63283FC01322F40E2332319F0419319
:102340003150FBCFFC01E20FF11D10828EEF9FEFA9
:10235000A6C021E030E0911102C020E030E0161666
:1023600017061CF4FB01319602C0E1E0F0E02E0FED
:102370003F1FBB2021F0EB2DF0E0319602C0E0E0E2
:10238000F0E02E0F3F1FE12FF0E02E173F071CF467
:10239000121B212F01C020E08E2D887159F4F60107
:1023A000822F30E2882319F031938150FBCFC20E87
:1023B000D11C20E0992329F0D6019C93F601319697
:1023C0006F0151110BC0F601822F90E3882319F0A1
:1023D00091938150FBCFC20ED11C20E00F2D060F30
:1023E0009A81342F307144FF03C0913309F40150B6
:1023F000101624F4093018F008E001C001E0AB0128
:1024000077FF02C040E050E0FB01E41BF50BA1E0C8
:10241000B0E0AC0FBD1FEA0FFB1F8EE2A82E4B01F0
:10242000801A91080B2D10E01195019511094F3F6D
:10243000BFEF5B0721F4D601AC9211966D016417D2
:1024400075072CF08416950614F4818101C080E391
:10245000415051093196D60111967D01401751071F
:1024600024F0D6018C936701E2CF6417750739F425
:10247000963320F4953319F4311101C081E3F6014C
:102480008083F701822F90E2882319F09193815085
:10249000FBCFF701E20FF11D108280E090E029965A
:1024A000ECE00C945814283008F027E03327DA01C8
:1024B000990F311D87FD916000966105710539F412
:1024C00032602E5F3D9330E32A95E1F708959F3FF8
:1024D00030F080387105610509F03C5F3C5F3D9349
:1024E000913008F08068911DDF93CF931F930F9375
:1024F000FF92EF92192F987F9695E92F96959695D2
:10250000E90FFF27E851FF4F99273327EE24FF24D7
:10251000A701E70105900894079428F4360FE71EF9
:10252000F81E491F511D660F771F881F991F0694BB
:10253000A1F70590079428F4E70EF81E491F561FCF
:10254000C11D770F881F991F661F0694A1F705907C
:10255000079428F4F80E491F561FC71FD11D880F76
:10256000991F661F771F0694A1F70590079420F422
:10257000490F561FC71FD81F990F661F771F881F47
:102580000694A9F784911095177041F0D695C795D8
:1025900057954795F794E7941A95C1F7EEE8F0E060
:1025A00068941590159135916591959105907FE20C
:1025B0007395E118F10A430B560BC90BD009C0F70C
:1025C000E10CF11E431F561FC91FD01D7EF470334E
:1025D00011F48A95E6CFE894015030F0080F0AF420
:1025E0000027021708F4202F2395022F7A3328F0B2
:1025F00079E37D932A95E9F710C07D932A9589F6B2
:10260000069497956795379517951794E118F10AF1
:10261000430B560BC90BD00998F023957E91739507
:102620007A3308F070E37C932013B8F77E917061E1
:102630007D9330F0839571E37D9370E32A95E1F704
:102640001124EF90FF900F911F91CF91DF91992767
:1026500087FD90950895DC01FC01672F7191772328
:10266000E1F7329704C07C916D9370836291AE174D
:10267000BF07C8F30895E89409C097FB3EF490950E
:102680008095709561957F4F8F4F9F4F9923A9F04B
:10269000F92F96E9BB279395F695879577956795DA
:1026A000B795F111F8CFFAF4BB0F11F460FF1BC01E
:1026B0006F5F7F4F8F4F9F4F16C0882311F096E9B1
:1026C00011C0772321F09EE8872F762F05C066235F
:1026D00071F096E8862F70E060E02AF09A95660F18
:1026E000771F881FDAF7880F9695879597F90895D1
:1026F0000E948B130C94FC130E94EE1338F00E947E
:10270000F51320F0952311F00C94E5130C94EB13C2
:1027100011240C9430140E940D1470F3959FC1F392
:10272000950F50E0551F629FF001729FBB27F00D7F
:10273000B11D639FAA27F00DB11DAA1F649F6627D4
:10274000B00DA11D661F829F2227B00DA11D621F23
:10275000739FB00DA11D621F839FA00D611D221FDD
:10276000749F3327A00D611D231F849F600D211DC1
:10277000822F762F6A2F11249F5750409AF0F1F044
:1027800088234AF0EE0FFF1FBB1F661F771F881FAD
:1027900091505040A9F79E3F510580F00C94E513ED
:1027A0000C9430145F3FE4F3983ED4F3869577950C
:1027B0006795B795F795E7959F5FC1F7FE2B880F53
:1027C000911D9695879597F9089597F99F6780E8E9
:1027D00070E060E008959FEF80EC089500240A9473
:1027E0001616170618060906089500240A941216EC
:1027F0001306140605060895092E0394000C11F41F
:10280000882352F0BB0F40F4BF2B11F460FF04C0CB
:102810006F5F7F4F8F4F9F4F089557FD9058440F24
:10282000551F59F05F3F71F04795880F97FB991F2F
:1028300061F09F3F79F087950895121613061406EC
:10284000551FF2CF4695F1DF08C016161706180679
:10285000991FF1CF86957105610508940895E89454
:10286000BB2766277727CB0197F908952F923F92D0
:102870004F925F926F927F928F929F92AF92BF9290
:10288000CF92DF92EF92FF920F931F93CF93DF933C
:10289000CDB7DEB7CA1BDB0B0FB6F894DEBF0FBE99
:1028A000CDBF09942A88398848885F846E847D84E6
:1028B0008C849B84AA84B984C884DF80EE80FD80E8
:1028C0000C811B81AA81B981CE0FD11D0FB6F8945E
:1028D000DEBF0FBECDBFED0108955058BB27AA271C
:1028E0000E9485140C94FC130E94EE1338F00E9491
:1028F000F51320F039F49F3F19F426F40C94EB13F0
:102900000EF4E095E7FB0C94E513E92F0E940D14FB
:1029100058F3BA17620773078407950720F079F414
:10292000A6F50C942F140EF4E0950B2EBA2FA02DC3
:102930000B01B90190010C01CA01A0011124FF276C
:10294000591B99F0593F50F4503E68F11A16F04067
:10295000A22F232F342F4427585FF3CF4695379566
:102960002795A795F0405395C9F77EF41F16BA0B2B
:10297000620B730B840BBAF09150A1F0FF0FBB1FD9
:10298000661F771F881FC2F70EC0BA0F621F731F22
:10299000841F48F4879577956795B795F7959E3F7F
:1029A00008F0B0CF9395880F08F09927EE0F979510
:1029B000879508950E94EE140C94FC130E94F51361
:1029C00058F00E94EE1340F029F45F3F29F00C9478
:1029D000E51351110C9430140C94EB130E940D1458
:1029E00068F39923B1F3552391F3951B550BBB273E
:1029F000AA2762177307840738F09F5F5F4F220F83
:102A0000331F441FAA1FA9F335D00E2E3AF0E0E879
:102A100032D091505040E695001CCAF72BD0FE2FC3
:102A200029D0660F771F881FBB1F26173707480757
:102A3000AB07B0E809F0BB0B802DBF01FF2793580F
:102A40005F4F3AF09E3F510578F00C94E5130C94DB
:102A500030145F3FE4F3983ED4F3869577956795FD
:102A6000B795F7959F5FC9F7880F911D9695879544
:102A700097F90895E1E0660F771F881FBB1F621763
:102A800073078407BA0720F0621B730B840BBA0B21
:102A9000EE1F88F7E09508950E94151488F09F575F
:102AA00098F0B92F9927B751B0F0E1F0660F771F72
:102AB000881F991F1AF0BA95C9F714C0B13091F068
:102AC0000E942F14B1E008950C942F14672F782FD3
:102AD0008827B85F39F0B93FCCF38695779567952D
:102AE000B395D9F73EF490958095709561957F4F99
:102AF0008F4F9F4F0895991B79E004C0991F961737
:102B000008F0961B881F7A95C9F78095089597FB62
:102B1000072E16F4009407D077FD09D00E94A11566
:102B200007FC05D03EF4909581959F4F08957095D0
:102B300061957F4F0895EE0FFF1F0590F491E02DF2
:102B40000994AA1BBB1B51E107C0AA1FBB1FA617F4
:102B5000B70710F0A61BB70B881F991F5A95A9F746
:102B600080959095BC01CD0108950F931F93CF934D
:102B7000DF938230910510F482E090E0E091E5046B
:102B8000F091E60420E030E0A0E0B0E0309719F1E9
:102B9000408151810281138148175907C8F0841779
:102BA000950769F4109731F012960C9312971396CB
:102BB0001C9327C00093E5041093E60422C021155E
:102BC000310519F04217530718F49A01BD01EF01BE
:102BD000DF01F801DBCF21153105F9F0281B390B96
:102BE0002430310580F48A819B816115710521F0C3
:102BF000FB019383828304C09093E6048093E504F1
:102C0000FE01329644C0FE01E20FF31F81939193BF
:102C100022503109398328833AC02091E30430914E
:102C2000E404232B41F420910601309107013093F5
:102C3000E4042093E304209104013091050121155F
:102C4000310541F42DB73EB740910801509109017B
:102C5000241B350BE091E304F091E404E217F30741
:102C6000A0F42E1B3F0B2817390778F0AC014E5FFC
:102C70005F4F2417350748F04E0F5F1F5093E40451
:102C80004093E3048193919302C0E0E0F0E0CF0130
:102C9000DF91CF911F910F910895CF93DF9300970C
:102CA00009F481C0FC01329713821282A091E504DD
:102CB000B091E604109781F420813181820F931F37
:102CC0002091E3043091E4042817390751F5F0937B
:102CD000E404E093E30467C0ED0120E030E0CE17A8
:102CE000DF0740F44A815B819E0141155105F1F0F7
:102CF000EA01F5CFD383C28340815181840F951FB0
:102D0000C817D90759F488819981840F951F0296B5
:102D1000918380838A819B819383828321153105EE
:102D200029F4F093E604E093E5043DC0E901FB8358
:102D3000EA8349915991C40FD51FEC17FD0761F43F
:102D400080819181840F951F0296E9019983888380
:102D5000828193819B838A83E0E0F0E012968D91DB
:102D60009C911397009719F0FD01DC01F7CF8D912D
:102D70009C9111979D012E5F3F4F820F931F2091D1
:102D8000E3043091E4042817390769F4309729F4F3
:102D90001092E6041092E50402C013821282B093EE
:102DA000E404A093E304DF91CF910895A0E0B0E0A4
:102DB000ECEDF6E10C943A14EC01009721F4CB0110
:102DC0000E94B515B4C0FC01E60FF71F9C0122500C
:102DD0003109E217F30708F4A8C0D9010D911C913D
:102DE000119706171707B0F00530110508F49BC0BE
:102DF000C80104978617970708F495C00250110977
:102E0000061B170B019311936D937C93CF010E94C6
:102E10004D1689C05B01A01AB10A4C01800E911EAB
:102E2000A091E504B091E604612C712CE12CF12C09
:102E3000109709F446C08D919C911197A815B9057A
:102E4000B1F56C0142E0C40ED11CCA14DB0478F168
:102E50004C018A189B08640142E0C40ED11C1296F2
:102E6000BC9012971396AC91B5E0CB16D10440F00C
:102E7000B282A38391828082D9016D937C9309C031
:102E80000E5F1F4F800F911FF90191838083EB2DFF
:102E9000FA2FE114F10431F0D7011396FC93EE936D
:102EA000129741C0F093E604E093E5043CC0681635
:102EB000790608F43C017D0112960D90BC91A02D7D
:102EC000B7CF8091E3049091E40488169906E1F469
:102ED00066167706C8F48091040190910501009769
:102EE00041F48DB79EB74091080150910901841BB0
:102EF000950BE817F907C8F4F093E404E093E304B2
:102F0000F901718360830FC0CB010E94B5157C016C
:102F1000009759F0A801BE010E94A117CE010E949E
:102F20004D16C70104C0CE0102C080E090E0CDB7CD
:102F3000DEB7EEE00C94561481E090E0F8940C9427
:102F4000B117FB01DC0102C001900D9241505040CD
:102F5000D8F70895FB01DC0101900D920020E1F704
:102F6000089510E0CDEFD0E004C0FE010E949B1553
:0C2F70002196CE3FD107C9F7F894FFCF9F
:102F7C00280128010000E704800000000000BC01CB
:102F8C00290153010902840162017601000000004D
:102F9C006303360393034D022E031A030B03000045
:102FAC0000004E02290193034D029E02B602350227
:102FBC00525443206973204E4F542072756E6E69C3
:102FCC006E67210041540020002273656E736F728E
:102FDC0032223A7B22666C6F7772617465223A00FA
:102FEC002C226C6576656C223A002C2274696D6516
:102FFC00223A007D0052656164696E6720646174D9
:10300C00612E2E2E002C0041542B48545450494E06
:10301C004954000D0A0041542B485454505041520D
:10302C00413D22434944222C310041542B485454F5
:10303C0050504152413D2255524C222C22687474FE
:10304C00703A2F2F6C6F63616C686F73743A383001
:10305C0038302F6170692F616464220041542B4811
:10306C00545450504152413D22434F4E54454E54BE
:10307C00222C226D756C7469706172742F666F727C
:10308C006D2D646174613B20626F756E6461727941
:10309C003D2D2D2D2D5765624B6974466F726D4217
:1030AC006F756E64617279765A305A4853684E4126
:1030BC0063424142574679220041542B48545450A4
:1030CC00444154413D3139322C3130303030002DB7
:1030DC002D2D2D2D2D5765624B6974466F726D42E7
:1030EC006F756E64617279765A305A4853684E41E6
:1030FC006342414257467900436F6E74656E742D7E
:10310C00446973706F736974696F6E3A20666F727D
:10311C006D2D646174613B206E616D653D22666945
:10312C006C65546F55706C6F6164223B2066696CE2
:10313C00656E616D653D22646174612E6A736F6E9C
:10314C002200436F6E74656E742D547970653A204D
:10315C006170706C69636174696F6E2F6A736F6EE6
:10316C000041542B48545450414354494F4E3D3127
:02317C00000051
:107E0000112484B714BE81FFF0D085E080938100F7
:107E100082E08093C00088E18093C10086E0809377
:107E2000C20080E18093C4008EE0C9D0259A86E02C
:107E300020E33CEF91E0309385002093840096BBD3
:107E4000B09BFECF1D9AA8958150A9F7CC24DD24C4
:107E500088248394B5E0AB2EA1E19A2EF3E0BF2EE7
:107E6000A2D0813461F49FD0082FAFD0023811F036
:107E7000013811F484E001C083E08DD089C08234E0
:107E800011F484E103C0853419F485E0A6D080C0E4
:107E9000853579F488D0E82EFF2485D0082F10E0AE
:107EA000102F00270E291F29000F111F8ED06801E7
:107EB0006FC0863521F484E090D080E0DECF843638
:107EC00009F040C070D06FD0082F6DD080E0C81688
:107ED00080E7D80618F4F601B7BEE895C0E0D1E017
:107EE00062D089930C17E1F7F0E0CF16F0E7DF06D8
:107EF00018F0F601B7BEE89568D007B600FCFDCFD4
:107F0000A601A0E0B1E02C9130E011968C91119780
:107F100090E0982F8827822B932B1296FA010C0160
:107F200087BEE89511244E5F5F4FF1E0A038BF0790
:107F300051F7F601A7BEE89507B600FCFDCF97BE46
:107F4000E89526C08437B1F42ED02DD0F82E2BD052
:107F50003CD0F601EF2C8F010F5F1F4F84911BD097
:107F6000EA94F801C1F70894C11CD11CFA94CF0C13
:107F7000D11C0EC0853739F428D08EE10CD085E9AC
:107F80000AD08FE07ACF813511F488E018D01DD067
:107F900080E101D065CF982F8091C00085FFFCCF94
:107FA0009093C60008958091C00087FFFCCF809118
:107FB000C00084FD01C0A8958091C6000895E0E648
:107FC000F0E098E1908380830895EDDF803219F02E
:107FD00088E0F5DFFFCF84E1DECF1F93182FE3DFCA
:107FE0001150E9F7F2DF1F91089580E0E8DFEE27F6
:047FF000FF270994CA
:027FFE00040479
:0400000300007E007B
:00000001FF
