:100000000C9486000C94B0020C9489020C94AE00FF
:100010000C94AE000C94AE000C94AE000C94AE00A8
:100020000C94AE000C94AE000C94AE000C94AE0098
:100030000C94AE000C94AE000C94AE000C94AE0088
:100040000C9477060C94AE000C94FD020C94D7022D
:100050000C94AE000C94AE000C94AE000C94AE0068
:100060000C942F030C94AE0048085D085D085C08F2
:100070005D083A085D085D085D083C085D085D089C
:100080004F085A0858085D085D085D085608313168
:100090003A34303A3234004A616E20323420323001
:1000A0003139001F1C1F1E1F1E1F1F1E1F1E1F0079
:1000B0000000002300260029000000000024002783
:1000C000002A0000000000250028002B0004040482
:1000D00004040404040202020202020303030303F1
:1000E00003010204081020408001020408102001CE
:1000F00002040810200000000800020100000304B0
:1001000007000000000000000000FC0B11241FBECF
:10011000CFEFD8E0DEBFCDBF12E0A0E0B1E0E0EA73
:10012000FDE102C005900D92AC30B107D9F723E094
:10013000ACE0B2E001C01D92A638B207E1F710E0D2
:10014000C6E8D0E004C02197FE010E94C30EC53866
:10015000D107C9F70E9413070C94CE0E0C9400002F
:1001600080915D0290915E02019690935E02809371
:100170005D020895089508950895CF92DF92EF9259
:10018000FF920F931F93CF93DF936C017A018B0142
:10019000C0E0D0E0CE15DF0581F0D8016D918D0172
:1001A000D601ED91FC910190F081E02DC6010995F9
:1001B000892B11F02196EECF7E01C701DF91CF91FF
:1001C0001F910F91FF90EF90DF90CF900895FC0169
:1001D000538D448D252F30E0842F90E0821B930BAC
:1001E000541710F0CF96089501970895FC01918D52
:1001F000828D981761F0828DDF01A80FB11D5D9689
:100200008C91928D9F5F9F73928F90E008958FEFF6
:100210009FEF0895FC01918D828D981731F0828DAA
:10022000E80FF11D858D90E008958FEF9FEF089501
:10023000FC01918D228D892F90E0805C9F4F821B65
:1002400091098F739927089588ED92E00E94180113
:1002500021E0892B09F420E0822F0895FC01848D90
:10026000DF01A80FB11DA35ABF4F2C91848D90E0E0
:1002700001968F739927848FA689B7892C93A089BB
:10028000B1898C91837080648C93938D848D981345
:1002900006C00288F389E02D80818F7D80830895D8
:1002A000EF92FF920F931F93CF93DF93EC0181E0C6
:1002B000888F9B8D8C8D981305C0E889F989808182
:1002C00085FD26C0F62E0B8D10E00F5F1F4F0F73BC
:1002D0001127E02E8C8DE8120CC00FB607FCFACF68
:1002E000E889F989808185FFF5CFCE010E942E0132
:1002F000F1CF8B8DFE01E80FF11DE35AFF4FF08225
:100300009FB7F8940B8FEA89FB89808180620AC0CD
:100310009FB7F894EE89FF896083E889F989808125
:100320008370806480839FBF81E090E0DF91CF91F4
:100330001F910F91FF90EF900895CF93DF93EC0101
:10034000888D8823C9F0EA89FB89808185FD05C0F5
:10035000A889B9898C9186FD0FC00FB607FCF5CF2F
:10036000808185FFF2CFA889B9898C9185FFEDCF77
:10037000CE010E942E01E7CFDF91CF91089580E05A
:1003800090E0892B29F00E94240181110C94000037
:10039000089585ED8093BC008091BC0084FDFCCF66
:1003A0001092B302089540912C02262F30E0240FC2
:1003B000311D21323105DCF42091B3022430C9F41F
:1003C000FC0180E090E0861758F430912C022191D6
:1003D000DC01A45FBD4FA30FB11D2C930196F3CF99
:1003E00080912C02680F60932C0280E0089581E0D8
:1003F000089582E008950895E0916C0280916B0267
:10040000E81730F4F0E0E359FD4F808190E0089563
:100410008FEF9FEF089590916C0280916B02981777
:1004200050F4E92FF0E0E359FD4F208130E09F5F69
:1004300090936C0202C02FEF3FEFC90108958091A5
:100440006B0290E020916C02821B91090895CF927B
:10045000DF92EF92FF920F931F93CF93DF937C0174
:10046000CB018A012091B402222389F0EB016B01B8
:10047000C40ED51ECC15DD0569F06991D701ED914B
:10048000FC910190F081E02DC7010995F3CF642F15
:100490000E94D301C801DF91CF911F910F91FF906E
:1004A000EF90DF90CF900895CF93DF931F92CDB759
:1004B000DEB769832091B4022223D1F02091D702C4
:1004C000203240F021E030E0FC013383228380E0E1
:1004D00090E015C08091B502E82FF0E0EA54FD4F9E
:1004E000998190838F5F8093B5028093D70205C076
:1004F00061E0CE0101960E94D30181E090E00F906F
:10050000DF91CF910895089580E090E008950E94D2
:10051000C90E1F920F920FB60F9211242F933F9383
:100520004F935F936F937F938F939F93AF93BF93FB
:10053000EF93FF93E0915601F09157010995FF91D8
:10054000EF91BF91AF919F918F917F916F915F914B
:100550004F913F912F910F900FBE0F901F901895C4
:100560001F920F920FB60F9211242F933F934F9328
:100570005F936F937F938F939F93AF93BF93EF930B
:10058000FF93E0915401F09155010995FF91EF918E
:10059000BF91AF919F918F917F916F915F914F919B
:1005A0003F912F910F900FBE0F901F9018951F92A3
:1005B0000F920FB60F9211242F933F934F935F9397
:1005C0006F937F938F939F93AF93BF93EF93FF931B
:1005D00088ED92E00E942E01FF91EF91BF91AF91C3
:1005E0009F918F917F916F915F914F913F912F914B
:1005F0000F900FBE0F901F9018951F920F920FB67D
:100600000F9211242F938F939F93EF93FF93E09179
:10061000E802F091E9028081E091EE02F091EF02B0
:1006200082FD12C090818091F1028F5F8F732091C3
:10063000F202821751F0E091F102F0E0E852FD4F32
:10064000958F8093F10201C08081FF91EF919F917E
:100650008F912F910F900FBE0F901F9018951F92A2
:100660000F920FB60F9211242F933F934F935F93E6
:100670006F937F938F939F93AF93BF93EF93FF936A
:100680008091B900887F803609F49CC068F5883273
:1006900009F45BC090F4803109F454C038F4882325
:1006A00009F4F6C0883009F44DC0F6C0883109F469
:1006B0004CC0803209F45DC0EFC0803409F468C0DA
:1006C00048F4803309F455C0883309F0E5C08093BD
:1006D000B102D8C0803509F44FC0883509F45DC037
:1006E000883409F0D9C0D6C0883909F4C7C0A8F445
:1006F000883709F467C038F4883609F463C0803756
:1007000009F460C0C9C0883809F4B8C0803909F458
:100710005FC0803809F0C0C05BC0803B09F486C070
:1007200038F4803A09F466C0883A09F47FC0B4C04E
:10073000803C09F4A7C0883C09F4A4C0883B09F4B4
:100740008AC0AAC080918E0210C09091B0028091A0
:10075000AF02981770F5E091B00281E08E0F8093A0
:10076000B002F0E0E157FD4F80818093BB0085EC43
:1007700086C08093B1028EC0E091B00281E08E0FFE
:100780008093B0028091BB00F0E0E157FD4F808381
:100790009091B0028091AF026EC0E091B00281E012
:1007A0008E0F8093B0028091BB00F0E0E157FD4FC7
:1007B00080838091B20281116DC081E080938D02AF
:1007C00084EA61C083E08093B30210924E02CFCFDF
:1007D00080914E02803208F051C0E0914E0281E0DB
:1007E0008E0F80934E028091BB00F0E0E25DFD4FE2
:1007F0008083BDCF85EC8093BC001092B3028091C2
:100800004E02803230F4E0914E02F0E0E25DFD4FA6
:10081000108260914E0270E0E0914F02F091500220
:100820008EE292E0099510924E0236C084E08093E9
:10083000B30210922D0210922C02E0915102F0911D
:100840005202099580912C02811105C081E08093AC
:100850002C0210920C02E0912D0281E08E0F809309
:100860002D02F0E0E45FFD4F80818093BB0090910A
:100870002D0280912C02981708F479CF85E8809397
:10088000BC000AC085EC8093BC001092B30204C087
:100890001092B1020E94C901FF91EF91BF91AF91F7
:1008A0009F918F917F916F915F914F913F912F9188
:1008B0000F900FBE0F901F9018953FB7F89480913E
:1008C000820390918303A0918403B091850326B5A0
:1008D000A89B05C02F3F19F00196A11DB11D3FBF78
:1008E000BA2FA92F982F8827820F911DA11DB11D06
:1008F000BC01CD0142E0660F771F881F991F4A9502
:10090000D1F708958230D8F4E82FF0E0EE0FFF1F02
:10091000EC5AFE4F20EB30E031832083813041F0F0
:10092000809169008C7F826080936900E89A0895C5
:1009300080916900837F886080936900E99A0895B7
:10094000282F3091D702313208F04AC08091B3028B
:100950008111FCCF9091D60242E04093B3022093E4
:10096000B2022FEF2093B1021092B0023093AF0287
:10097000E6EBF2E0AFE8B2E020E0321721F041917F
:100980004D932F5FFACF10928E0220918E02990F15
:10099000922B90938E0290918D02913061F410927F
:1009A0008D0290918E029093BB009091BC0093FDBC
:1009B000F8CF95EC01C095EE9093BC009091B302F6
:1009C0009230E1F39091B1029F3F79F08091B102B2
:1009D000803241F08091B102803331F084E005C073
:1009E00081E003C082E001C083E01092B502109262
:1009F000D7021092B4020895009769F0FC010190AB
:100A00000020E9F73197AF01481B590BBC0188ED75
:100A100092E00C94BD0080E090E00895CF93DF93C6
:100A20000E94FC04EC0186E991E00E94FC048C0F1A
:100A30009D1FDF91CF9108959091B3029111FCCF4A
:100A4000982F813208F090E281E08093B302809386
:100A5000B2022FEF2093B1021092B002290F20931F
:100A6000AF0280938E0280918E02806D80938E0201
:100A700080918D02813061F410928D0280918E02FE
:100A80008093BB008091BC0083FDF8CF85EC01C052
:100A900085EE8093BC008091B3028130E1F38091B8
:100AA000B002891710F49091B002EFE8F2E0ADE6E1
:100AB000B2E080E0891721F021912D938F5FFACF6A
:100AC00010926C0280936B0208958F929F92AF9266
:100AD000BF920F931F93CF93DF93CDB7DEB7A1974C
:100AE0000FB6F894DEBF0FBECDBF19A2423008F496
:100AF0004AE08E010F5D1F4F842E912CA12CB12C4A
:100B0000A50194010E94A10EE62FB901CA0101506E
:100B10001109EA3014F4E05D01C0E95CD801EC93FE
:100B2000232B242B252B61F7C8010E94FC04A196DE
:100B30000FB6F894DEBF0FBECDBFDF91CF911F91EE
:100B40000F91BF90AF909F908F9008950C94FC04EC
:100B5000682F88ED92E00C945001682F70E080E0DF
:100B600090E04AE00C94650590E0FC01EB50FF4FEB
:100B70002491FC01EF51FF4F3491FC01E353FF4FEF
:100B8000E491EE2309F43CC0222339F1233091F0A3
:100B900038F42130A9F0223001F584B58F7D12C0E0
:100BA000273091F02830A1F02430B9F480918000F2
:100BB0008F7D03C0809180008F77809380000DC06F
:100BC00084B58F7784BD09C08091B0008F7703C052
:100BD0008091B0008F7D8093B000F0E0EE0FFF1F9A
:100BE000ED53FF4FA591B4919FB7F894611104C0E4
:100BF0008C913095382302C0EC913E2B3C939FBFE3
:100C00000895CF93DF9390E0FC01EF51FF4F2491C3
:100C1000FC01E353FF4F8491882361F190E0880F3A
:100C2000991FFC01E754FF4FC591D491FC01ED538E
:100C3000FF4FA591B491611109C09FB7F8948881C5
:100C4000209582238883EC912E230BC0623061F4BF
:100C50009FB7F8948881322F309583238883EC9155
:100C60002E2B2C939FBF06C08FB7F894E8812E2BB4
:100C700028838FBFDF91CF9108958F929F92AF927B
:100C8000BF92CF92DF92EF92FF926B017C010E94A4
:100C90005D044B015C01C114D104E104F104F1F0E5
:100CA0000E945D04DC01CB0188199909AA09BB09DE
:100CB000883E9340A105B10570F321E0C21AD10826
:100CC000E108F10888EE880E83E0981EA11CB11C93
:100CD000C114D104E104F10419F7DDCFFF90EF90C6
:100CE000DF90CF90BF90AF909F908F9008951F920C
:100CF0000F920FB60F9211242F933F938F939F93D0
:100D0000AF93BF938091670290916802A0916902AE
:100D1000B0916A023091810323E0230F2D3720F434
:100D20000196A11DB11D05C026E8230F0296A11D45
:100D3000B11D209381038093670290936802A09372
:100D40006902B0936A028091820390918303A0911B
:100D50008403B09185030196A11DB11D8093820388
:100D600090938303A0938403B0938503BF91AF91C5
:100D70009F918F913F912F910F900FBE0F901F90D9
:100D80001895CF92DF92EF92FF920F931F93E82F67
:100D9000F92F05C0015011092109310961F1908134
:100DA00096239417B9F305C001501109210931099F
:100DB00011F1908196239413F7CFC12CD12CE12C03
:100DC000F12C0AC08FEFC81AD80AE80AF80A0C15E5
:100DD0001D052E053F0579F080818623841791F348
:100DE0006C2D7D2D8E2D9F2D1F910F91FF90EF90DB
:100DF000DF90CF90089560E070E080E090E01F9178
:100E00000F91FF90EF90DF90CF900895FC019081BB
:100E100090539A3008F090E0818180532AE0929FAD
:100E2000800D11240895CF93DF93CDB7DEB72B97B4
:100E30000FB6F894DEBF0FBECDBF789484B5826044
:100E400084BD84B5816084BD85B5826085BD85B56E
:100E5000816085BD80916E00816080936E001092EC
:100E60008100809181008260809381008091810067
:100E700081608093810080918000816080938000F8
:100E80008091B10084608093B1008091B000816056
:100E90008093B00080917A00846080937A00809182
:100EA0007A00826080937A0080917A0081608093DA
:100EB0007A0080917A00806880937A001092C10055
:100EC000E091E802F091E90282E08083E091E4029F
:100ED000F091E5021082E091E602F091E7028FECDA
:100EE00080831092F002E091EC02F091ED0286E036
:100EF0008083E091EA02F091EB028081806180833F
:100F0000E091EA02F091EB02808188608083E091B9
:100F1000EA02F091EB02808180688083E091EA022E
:100F2000F091EB0280818F7D808360E08BE00E94F6
:100F3000010661E08DE00E94010660E082E00E940F
:100F4000010661E082E00E94B40510925E021092F8
:100F50005D021092590210925A0210925B02109296
:100F60005C02109258021092570210925302109293
:100F70005402109255021092560210925F02109283
:100F80006002109261021092620264E670E080E0FA
:100F900090E00E943D0610926C0210926B0210923B
:100FA000B5021092D7021092B30201E00093B20290
:100FB00010928D0261E082E10E94B40561E083E15C
:100FC0000E94B4058091B9008E7F8093B900809112
:100FD000B9008D7F8093B90088E48093B80085E4E0
:100FE0008093BC008BEB90E090935202809351026F
:100FF0008CEB90E09093500280934F020093B402E8
:1010000088E68093D6021092B5021092D70260E073
:1010100085E793E00E94540281E00E94A00481E0F1
:1010200090E00E941C0585E793E00E940B0287FF79
:10103000CBC08CE791E00E940E054BE050E067E9E1
:1010400070E0CE0101960E94350CCE010A960E94F6
:101050000607082FE9814E2FEE0F550B660B770B15
:10106000FA01E154F109E331F10538F5EC5CFF4F89
:101070000C94C30E12E021C08A81813639F08B8135
:101080008E3611F017E019C016E017C011E015C038
:101090008B81823711F018E010C014E00EC08B81F4
:1010A000823711F015E009C013E007C019E005C050
:1010B0001AE003C01BE001C01CE0CE0105960E94AF
:1010C0000607E82E48E050E06EE870E0CE01019699
:1010D0000E94350CCE0101960E940607D82ECE0143
:1010E00004960E940607C82ECE0107960E940607A6
:1010F000B82E81E08093B40288E68093D6021092E5
:10110000B5021092D70260E085E793E00E94540296
:10111000BAE0FB2E8B2D6F2D0E94810E682F660F7B
:10112000860F880F682F6B0D85E793E00E945402AD
:101130008C2D6F2D0E94810E682F660F860F880FF1
:10114000682F6C0D85E793E00E9454028D2D6F2D62
:101150000E94810E682F660F860F880F682F6D0D15
:1011600085E793E00E94540260E085E793E00E94E7
:1011700054028E2D6F2D0E94810E682F660F860FF0
:10118000880F682F6E0D85E793E00E945402812F2F
:101190006F2D0E94810E682F660F680F660F610F1A
:1011A00085E793E00E945402802F6F2D0E94810EEC
:1011B000682F660F680F660F600F85E793E00E9447
:1011C000540281E00E94A00480E00E948204FAEFB1
:1011D0005F2EA7E3AA2EB12C21E02093B40248E6AB
:1011E0004093D6021092B5021092D70260E085E7D4
:1011F00093E00E94540281E00E94A00487E090E006
:101200000E941C0585E793E00E940B028F77982FC0
:1012100092959F70482E959D400C112485E793E090
:101220000E940B029C01332744E0359527954A958F
:10123000E1F7382E529E300C112485E793E00E948E
:101240000B029C01332754E0359527955A95E1F719
:10125000282E529E200C112485E793E00E940B0259
:1012600085E793E00E940B029C01332764E03595EB
:1012700027956A95E1F7182F529E100D112485E7E6
:1012800093E00E940B029C01332774E0359527956B
:101290007A95E1F7082F529E000D112485E793E01F
:1012A0000E940B029C013327E4E035952795EA95CF
:1012B000E1F7529E800D1124E82EF12C370150E306
:1012C000651A58EF750AB301072C000C880B990BAF
:1012D0004AE00E9465058FE20E94A805802F0E94C7
:1012E000AD058FE20E94A805812F0E94AD0580E91F
:1012F00091E00E94A605212F30E0E3EAF0E081E0D2
:10130000801730F49491290F311D8F5F3196F8CFFB
:10131000033038F0C70183709927892B11F42F5FB0
:101320003F4F8DEC681A87E0780A7694679476943C
:101330006794EDE6F1E0EE9EC001EF9E900DFE9EFB
:10134000900D1124860D971D0596820F931F67E05F
:1013500070E00E948D0EFCE0F89F9001F99F300D27
:101360001124C90180509F4F0E94A60583E991E096
:101370000E94A605822D0E94AD058AE30E94A80561
:10138000832D0E94AD058AE30E94A805842D0E944A
:10139000AD0586E991E00E94FC0460E08DE00E94CA
:1013A000B4058BE39FE10197F1F761E08DE00E94C6
:1013B000B405C5010197F1F760E08DE00E94B40526
:1013C000ECEEF0E06491E8EDF0E08491E82FF0E0DD
:1013D000EE0FFF1FE155FF4F8591949100E412E459
:1013E0002FE030E0462F0E94C1066115710581058E
:1013F000910549F0DC01CB010196A11DB11DBC0195
:10140000CD019F7003C060E070E0CB010E94580DD9
:1014100020E034E244E759E40E94B00C20E030E8D8
:101420004BEA53E40E940F0E20E030E040E05FE31F
:101430000E940F0E609363027093640280936502B2
:101440009093660289E991E00E94A605C09063022C
:10145000D0906402E0906502F0906602A7019601C8
:10146000C701B6010E947C0E882319F08BEA91E037
:101470001AC036014701E89497F82FEF3FEF4FE786
:101480005FE7C401B3010E947C0E81110FC02FEFF2
:101490003FEF4FE75FE7C401B3010E94AB0C1816A2
:1014A0002CF48FEA91E00E94FC0472C02FEF3FEF12
:1014B0004FE75FE4C701B6010E940A0E18161CF43C
:1014C00083EB91E0F0CF2FEF3FEF4FE75FECC701E9
:1014D000B6010E94AB0C87FDF3CF20E030E0A901FC
:1014E000C701B6010E94AB0C87FF07C08DE20E94C6
:1014F000A805F7FAF094F7F8F0942AE037ED43EAFC
:101500005BE3C701B6010E943F0C6B017C010E94A6
:10151000290D3B014C010E94580D9B01AC01C701F4
:10152000B6010E943E0C6B017C014AE0C401B3018C
:101530000E9465058EE20E94A80520E030E040E2AE
:1015400051E4C701B6010E940F0E6B017C010E949D
:10155000290D3B01812C912C4AE0C401B3010E946A
:101560006505C401B3010E94580D9B01AC01C70180
:10157000B6010E943E0C20E030E040E251E40E94BF
:101580000F0E0E94290D80E090E04AE00E94650560
:1015900086E991E00E94FC042FB7F89480916702DD
:1015A00090916802A0916902B0916A022FBF4091A8
:1015B0005F02509160026091610270916202841B2F
:1015C000950BA60BB70B893E9340A105B10508F416
:1015D0000AC1E8984AEB50E05093550140935401FA
:1015E0002FB7F8948091670290916802A0916902E8
:1015F000B0916A022FBF00915F02109160022091AA
:10160000610230916202BC01CD01601B710B820B43
:10161000930B0E94580D9B01AC0160E070E08AE7DB
:1016200094E40E94B00C6B017C0160915D027091AA
:101630005E02072E000C880B990B0E945A0D9B012D
:10164000AC01C701B6010E940F0E20E030E040E976
:1016500050E40E94B00C6093590270935A02809338
:101660005B0290935C022FB7F8948091670290918F
:101670006802A0916902B0916A022FBF80935F0255
:1016800090936002A0936102B093620220E030E088
:1016900040E752E46091590270915A0280915B02D6
:1016A00090915C020E94B00C20E030E04AE754E4E4
:1016B0000E940F0E0E94290D7093580260935702EA
:1016C000009153021091540220915502309156021C
:1016D000D901C801860F971FA11DB11D8093530228
:1016E00090935402A0935502B093560287EB91E079
:1016F0000E94A6056091590270915A0280915B0286
:1017000090915C020E94220D6B01770FEE08FF089A
:10171000F7FE0CC08DE20E94A80566277727CB0153
:101720006C197D098E099F094AE003C04AE0C70190
:10173000B6010E94650583EC91E00E94A605C09069
:101740005902D0905A02E0905B02F0905C02C7010F
:10175000B6010E94220D072E000C880B990B0E94E7
:101760005A0D9B01AC01C701B6010E943E0C20E05E
:1017700030E040E251E40E940F0E0E94290D80E00B
:1017800090E04AE00E94650585EC91E00E94A60584
:101790008BEC91E00E94A60560915702709158026F
:1017A00080E090E04AE00E94650586EE91E00E94AC
:1017B000A6058DEE91E00E94A605609153027091FE
:1017C000540280915502909156024AE00E946505AC
:1017D00088E092E00E940E0510925E0210925D0277
:1017E00080E00E94820468EE73E080E090E00E9456
:1017F0003D060E94BF01F0CCE8EDF2E013821282B8
:1018000088EE93E0A0E0B0E084839583A683B7835D
:101810002CE531E03183208325EC30E035872487C7
:1018200024EC30E03787268720EC30E0318B208BAA
:1018300021EC30E0338B228B22EC30E0358B248B93
:1018400026EC30E0378B268B118E128E138E148E81
:10185000E5E7F3E01382128284839583A683B7833E
:101860008EE691E0918380830895FB01DC0102C044
:1018700005900D9241505040D8F708955058BB271D
:10188000AA270E94560C0C94D00D0E94C20D38F06D
:101890000E94C90D20F039F49F3F19F426F40C94EE
:1018A000BF0D0EF4E095E7FB0C94B90DE92F0E94F3
:1018B000E10D58F3BA17620773078407950720F004
:1018C00079F4A6F50C94030E0EF4E0950B2EBA2FC6
:1018D000A02D0B01B90190010C01CA01A001112436
:1018E000FF27591B99F0593F50F4503E68F11A16E2
:1018F000F040A22F232F342F4427585FF3CF469573
:1019000037952795A795F0405395C9F77EF41F1694
:10191000BA0B620B730B840BBAF09150A1F0FF0F5E
:10192000BB1F661F771F881FC2F70EC0BA0F621F4A
:10193000731F841F48F4879577956795B795F7953A
:101940009E3F08F0B0CF9395880F08F09927EE0FCF
:101950009795879508950E94950D08F481E0089564
:101960000E94C40C0C94D00D0E94C90D58F00E9426
:10197000C20D40F029F45F3F29F00C94B90D5111CC
:101980000C94040E0C94BF0D0E94E10D68F3992392
:10199000B1F3552391F3951B550BBB27AA2762176B
:1019A0007307840738F09F5F5F4F220F331F441F78
:1019B000AA1FA9F335D00E2E3AF0E0E832D09150AC
:1019C0005040E695001CCAF72BD0FE2F29D0660F99
:1019D000771F881FBB1F261737074807AB07B0E8DC
:1019E00009F0BB0B802DBF01FF2793585F4F3AF0E2
:1019F0009E3F510578F00C94B90D0C94040E5F3F96
:101A0000E4F3983ED4F3869577956795B795F79567
:101A10009F5FC9F7880F911D9695879597F908954F
:101A2000E1E0660F771F881FBB1F621773078407EB
:101A3000BA0720F0621B730B840BBA0BEE1F88F7FA
:101A4000E09508950E94290D6894B1110C94040E3C
:101A500008950E94E90D88F09F5798F0B92F9927B3
:101A6000B751B0F0E1F0660F771F881F991F1AF089
:101A7000BA95C9F714C0B13091F00E94030EB1E0DD
:101A800008950C94030E672F782F8827B85F39F0DC
:101A9000B93FCCF3869577956795B395D9F73EF422
:101AA00090958095709561957F4F8F4F9F4F0895CA
:101AB000E89409C097FB3EF49095809570956195E8
:101AC0007F4F8F4F9F4F9923A9F0F92F96E9BB279E
:101AD0009395F695879577956795B795F111F8CF1A
:101AE000FAF4BB0F11F460FF1BC06F5F7F4F8F4F85
:101AF0009F4F16C0882311F096E911C0772321F07B
:101B00009EE8872F762F05C0662371F096E8862F12
:101B100070E060E02AF09A95660F771F881FDAF769
:101B2000880F9695879597F90895990F0008550F96
:101B3000AA0BE0E8FEEF16161706E807F907C0F053
:101B400012161306E407F50798F0621B730B840B5B
:101B5000950B39F40A2661F0232B242B252B21F435
:101B600008950A2609F4A140A6958FEF811D811DD5
:101B7000089597F99F6780E870E060E008959FEF0F
:101B800080EC089500240A94161617061806090614
:101B9000089500240A9412161306140605060895E3
:101BA000092E0394000C11F4882352F0BB0F40F46B
:101BB000BF2B11F460FF04C06F5F7F4F8F4F9F4FAB
:101BC000089557FD9058440F551F59F05F3F71F02D
:101BD0004795880F97FB991F61F09F3F79F0879594
:101BE0000895121613061406551FF2CF4695F1DF1D
:101BF00008C0161617061806991FF1CF86957105AD
:101C0000610508940895E894BB2766277727CB01E0
:101C100097F908950E94950D08F48FEF08950E949A
:101C2000220E0C94D00D0E94C20D38F00E94C90DF6
:101C300020F0952311F00C94B90D0C94BF0D1124D4
:101C40000C94040E0E94E10D70F3959FC1F3950F63
:101C500050E0551F629FF001729FBB27F00DB11D30
:101C6000639FAA27F00DB11DAA1F649F6627B00DC0
:101C7000A11D661F829F2227B00DA11D621F739FA9
:101C8000B00DA11D621F839FA00D611D221F749FB7
:101C90003327A00D611D231F849F600D211D822FFE
:101CA000762F6A2F11249F5750409AF0F1F0882325
:101CB0004AF0EE0FFF1FBB1F661F771F881F915052
:101CC0005040A9F79E3F510580F00C94B90D0C943B
:101CD000040E5F3FE4F3983ED4F3869577956795BD
:101CE000B795F795E7959F5FC1F7FE2B880F911D7C
:101CF0009695879597F908950E94950D880B990BF5
:101D00000895991B79E004C0991F961708F0961B57
:101D1000881F7A95C9F780950895AA1BBB1B51E1CE
:101D200007C0AA1FBB1FA617B70710F0A61BB70B4B
:101D3000881F991F5A95A9F780959095BC01CD01F0
:101D40000895A1E21A2EAA1BBB1BFD010DC0AA1FFC
:101D5000BB1FEE1FFF1FA217B307E407F50720F014
:101D6000A21BB30BE40BF50B661F771F881F991F8F
:101D70001A9469F760957095809590959B01AC01D8
:101D8000BD01CF010895EE0FFF1F0590F491E02DE6
:101D9000099481E090E0F8940C94CE0EF894FFCF73
:101DA00053756E6461790000000000004D6F6E6431
:101DB000617900000000000054756573646179006A
:101DC000000000005765646E65736461790000006F
:101DD000546875727364617900000000467269642A
:101DE00061790000000000005361747572646179CC
:101DF00000000000BA00BA00000000005001BD0061
:101E0000E7009D011801F6000A01000000005402DD
:101E100027028402FB011F020B02FC0152544320E3
:101E20006973204E4F542072756E6E696E67210083
:101E30002028002920000D0A005468652064697379
:101E400074616E63652069733A20006E616E00698B
:101E50006E66006F766600466C6F772072617465FF
:101E60003A20002E004C2F6D696E002020437572C1
:101E700072656E74204C697175696420466C6F7769
:101E8000696E673A20006D4C2F5365630020204F28
:101E90007574707574204C69717569642051756131
:0C1EA0006E746974793A20006D4C0000EB
:107E0000112484B714BE81FFF0D085E080938100F7
:107E100082E08093C00088E18093C10086E0809377
:107E2000C20080E18093C4008EE0C9D0259A86E02C
:107E300020E33CEF91E0309385002093840096BBD3
:107E4000B09BFECF1D9AA8958150A9F7CC24DD24C4
:107E500088248394B5E0AB2EA1E19A2EF3E0BF2EE7
:107E6000A2D0813461F49FD0082FAFD0023811F036
:107E7000013811F484E001C083E08DD089C08234E0
:107E800011F484E103C0853419F485E0A6D080C0E4
:107E9000853579F488D0E82EFF2485D0082F10E0AE
:107EA000102F00270E291F29000F111F8ED06801E7
:107EB0006FC0863521F484E090D080E0DECF843638
:107EC00009F040C070D06FD0082F6DD080E0C81688
:107ED00080E7D80618F4F601B7BEE895C0E0D1E017
:107EE00062D089930C17E1F7F0E0CF16F0E7DF06D8
:107EF00018F0F601B7BEE89568D007B600FCFDCFD4
:107F0000A601A0E0B1E02C9130E011968C91119780
:107F100090E0982F8827822B932B1296FA010C0160
:107F200087BEE89511244E5F5F4FF1E0A038BF0790
:107F300051F7F601A7BEE89507B600FCFDCF97BE46
:107F4000E89526C08437B1F42ED02DD0F82E2BD052
:107F50003CD0F601EF2C8F010F5F1F4F84911BD097
:107F6000EA94F801C1F70894C11CD11CFA94CF0C13
:107F7000D11C0EC0853739F428D08EE10CD085E9AC
:107F80000AD08FE07ACF813511F488E018D01DD067
:107F900080E101D065CF982F8091C00085FFFCCF94
:107FA0009093C60008958091C00087FFFCCF809118
:107FB000C00084FD01C0A8958091C6000895E0E648
:107FC000F0E098E1908380830895EDDF803219F02E
:107FD00088E0F5DFFFCF84E1DECF1F93182FE3DFCA
:107FE0001150E9F7F2DF1F91089580E0E8DFEE27F6
:047FF000FF270994CA
:027FFE00040479
:0400000300007E007B
:00000001FF
