:100000000C94FD000C94C8030C94A1030C942501DE
:100010000C9425010C9425010C9425010C942501C8
:100020000C9425010C9425010C9425010C942501B8
:100030000C9425010C9425010C9425010C942501A8
:100040000C945E070C9425010C9415040C94EF039A
:100050000C9425010C9425010C9425010C94250188
:100060000C9447040C94250127093C093C093B09E1
:100070003C0919093C093C093C091B093C093C099C
:100080002E09390937093C093C093C09350900406A
:100090007A10F35A00A0724E18090010A5D4E80097
:1000A00000E87648170000E40B54020000CA9A3BAF
:1000B000000000E1F5050000809698000000404235
:1000C0000F000000A08601000000102700000000C3
:1000D000E803000000006400000000000A000000C7
:1000E00000000100000000002C76D888DC674F0873
:1000F00023DFC1DFAE59E1B1B796E5E3E453C63A79
:10010000E651997696E8E6C28426EB898C9B62EDEF
:10011000407C6FFCEFBC9C9F40F2BAA56FA5F490A9
:10012000055A2AF75C936B6CF9676DC11BFCE0E420
:100130000D47FEF520E6B500D0ED902E0300943576
:1001400077050080841E080000204E0A000000C8C9
:100150000C333333330F986E12831141EF8D21141A
:10016000893BE65516CFFEE6DB18D1844B381BF7EA
:100170007C1D901DA4BBE424203284725E22810089
:10018000C9F124ECA1E53D2731303A35383A33390D
:10019000004A616E203331203230313900000000D6
:1001A0000023002600290000000000240027002A68
:1001B0000000000000250028002B000404040404B3
:1001C0000404040202020202020303030303030104
:1001D00002040810204080010204081020010204DB
:1001E00008102000000008000201000003040700BE
:1001F0000000000000000000910B11241FBECFEF93
:10020000D8E0DEBFCDBF22E0AEE4B1E001C01D9278
:10021000AA3CB207E1F711E0A0E0B1E0E0E1F4E2CE
:1002200002C005900D92AE34B107D9F710E0CDEFC2
:10023000D0E004C02197FE010E940410CC3FD107FA
:10024000C9F70E94FA070C9406120C9400008091E2
:100250009D0190919E01019690939E0180939D0136
:100260000895089508950895CF92DF92EF92FF9236
:100270000F931F93CF93DF936C017A018B01C0E042
:10028000D0E0CE15DF0581F0D8016D918D01D6014A
:10029000ED91FC910190F081E02DC6010995892B2B
:1002A00011F02196EECF7E01C701DF91CF911F9112
:1002B0000F91FF90EF90DF90CF900895FC01538D48
:1002C000448D252F30E0842F90E0821B930B541730
:1002D00010F0CF96089501970895FC01918D828DBD
:1002E000981761F0828DDF01A80FB11D5D968C918A
:1002F000928D9F5F9F73928F90E008958FEF9FEF95
:100300000895FC01918D828D981731F0828DE80F50
:10031000F11D858D90E008958FEF9FEF0895FC010A
:10032000918D228D892F90E0805C9F4F821B9109D7
:100330008F739927089588E192E00E948F0121E050
:10034000892B09F420E0822F0895FC01848DDF01C0
:10035000A80FB11DA35ABF4F2C91848D90E0019638
:100360008F739927848FA689B7892C93A089B18927
:100370008C91837080648C93938D848D981306C0C8
:100380000288F389E02D80818F7D80830895EF922C
:10039000FF920F931F93CF93DF93EC0181E0888F3F
:1003A0009B8D8C8D981305C0E889F989808185FD26
:1003B00026C0F62E0B8D10E00F5F1F4F0F73112715
:1003C000E02E8C8DE8120CC00FB607FCFACFE8893E
:1003D000F989808185FFF5CFCE010E94A501F1CF7B
:1003E0008B8DFE01E80FF11DE35AFF4FF0829FB79E
:1003F000F8940B8FEA89FB89808180620AC09FB7DD
:10040000F894EE89FF896083E889F9898081837097
:10041000806480839FBF81E090E0DF91CF911F9146
:100420000F91FF90EF900895CF93DF93EC01888DAB
:100430008823C9F0EA89FB89808185FD05C0A889E8
:10044000B9898C9186FD0FC00FB607FCF5CF80816E
:1004500085FFF2CFA889B9898C9185FFEDCFCE01B8
:100460000E94A501E7CFDF91CF91089580E090E051
:10047000892B29F00E949B0181110C9400000895A2
:1004800085ED8093BC008091BC0084FDFCCF109270
:10049000F301089540916E01262F30E0240F311DA5
:1004A00021323105DCF42091F3012430C9F4FC0140
:1004B00080E090E0861758F430916E012191DC01C4
:1004C000A25BBE4FA30FB11D2C930196F3CF809179
:1004D0006E01680F60936E0180E0089581E00895D9
:1004E00082E008950895E091AC018091AB01E81796
:1004F00030F4F0E0E355FE4F808190E008958FEFF7
:100500009FEF08959091AC018091AB01981750F442
:10051000E92FF0E0E355FE4F208130E09F5F90939C
:10052000AC0102C02FEF3FEFC90108958091AB01EC
:1005300090E02091AC01821B91090895CF92DF9247
:10054000EF92FF920F931F93CF93DF937C01CB0128
:100550008A012091F401222389F0EB016B01C40E82
:10056000D51ECC15DD0569F06991D701ED91FC919F
:100570000190F081E02DC7010995F3CF642F0E940F
:100580004A02C801DF91CF911F910F91FF90EF9028
:10059000DF90CF900895CF93DF931F92CDB7DEB752
:1005A00069832091F4012223D1F020911702203297
:1005B00040F021E030E0FC013383228380E090E0D2
:1005C00015C08091F501E82FF0E0EA50FE4F9981C7
:1005D00090838F5F8093F5018093170205C061E0DF
:1005E000CE0101960E944A0281E090E00F90DF91D7
:1005F000CF910895089580E090E008950E94F11150
:100600000F931F93CF93DF93EC018881998100971B
:1006100029F02A813B812617370788F48B016F5F09
:100620007F4F0E942B11009761F0998388831B8371
:100630000A832C813D81232B11F4FC01108281E07F
:1006400001C080E0DF91CF911F910F910895EF924B
:10065000FF920F931F93CF93DF936115710511F4F0
:1006600080E01CC041155105C1F07B01EC018C817B
:100670009D818A01080F191FB801CE010E94000355
:10068000882371F3288139818C819D81B701820F84
:10069000931F0E94FF111D830C8381E0DF91CF9196
:1006A0001F910F91FF90EF900895CF93DF93EC018E
:1006B00088819981009711F00E94A21019821882F6
:1006C0001D821C821B821A82DF91CF910895CF93E5
:1006D000DF93EC016115710561F0FB0101900020D1
:1006E000E9F73197AF01461B570B0E942703811191
:1006F00003C0CE010E945503CE01DF91CF91089532
:10070000EF92FF920F931F93CF93DF93EC017B0146
:100710008A01BA010E940003811104C0CE010E9427
:10072000550307C01D830C83B701888199810E94FE
:10073000FF11CE01DF91CF911F910F91FF90EF90AC
:1007400008951F920F920FB60F9211242F933F938B
:100750004F935F936F937F938F939F93AF93BF93C9
:10076000EF93FF93E0910201F09103010995FF914E
:10077000EF91BF91AF919F918F917F916F915F9119
:100780004F913F912F910F900FBE0F901F90189592
:100790001F920F920FB60F9211242F933F934F93F6
:1007A0005F936F937F938F939F93AF93BF93EF93D9
:1007B000FF93E0910001F09101010995FF91EF9104
:1007C000BF91AF919F918F917F916F915F914F9169
:1007D0003F912F910F900FBE0F901F9018951F9271
:1007E0000F920FB60F9211242F933F934F935F9365
:1007F0006F937F938F939F93AF93BF93EF93FF93E9
:1008000088E192E00E94A501FF91EF91BF91AF9125
:100810009F918F917F916F915F914F913F912F9118
:100820000F900FBE0F901F9018951F920F920FB64A
:100830000F9211242F938F939F93EF93FF93E09147
:100840002802F09129028081E0912E02F0912F027E
:1008500082FD12C09081809131028F5F8F73209151
:100860003202821751F0E0913102F0E0E85EFD4F74
:10087000958F8093310201C08081FF91EF919F910C
:100880008F912F910F900FBE0F901F9018951F9270
:100890000F920FB60F9211242F933F934F935F93B4
:1008A0006F937F938F939F93AF93BF93EF93FF9338
:1008B0008091B900887F803609F49CC068F5883241
:1008C00009F45BC090F4803109F454C038F48823F3
:1008D00009F4F6C0883009F44DC0F6C0883109F437
:1008E0004CC0803209F45DC0EFC0803409F468C0A8
:1008F00048F4803309F455C0883309F0E5C080938B
:10090000F101D8C0803509F44FC0883509F45DC0C5
:10091000883409F0D9C0D6C0883909F4C7C0A8F412
:10092000883709F467C038F4883609F463C0803723
:1009300009F460C0C9C0883809F4B8C0803909F426
:100940005FC0803809F0C0C05BC0803B09F486C03E
:1009500038F4803A09F466C0883A09F47FC0B4C01C
:10096000803C09F4A7C0883C09F4A4C0883B09F482
:100970008AC0AAC08091CE0110C09091F0018091F0
:10098000EF01981770F5E091F00181E08E0F8093F0
:10099000F001F0E0E153FE4F80818093BB0085ECD5
:1009A00086C08093F1018EC0E091F00181E08E0F4E
:1009B0008093F0018091BB00F0E0E153FE4F808313
:1009C0009091F0018091EF016EC0E091F00181E023
:1009D0008E0F8093F0018091BB00F0E0E153FE4F59
:1009E00080838091F20181116DC081E08093CD01FF
:1009F00084EA61C083E08093F30110929001CFCF2D
:100A000080919001803208F051C0E091900181E026
:100A10008E0F809390018091BB00F0E0E059FE4F73
:100A20008083BDCF85EC8093BC001092F301809150
:100A30009001803230F4E0919001F0E0E059FE4FF7
:100A400010826091900170E0E0919101F09192012B
:100A500080E791E009951092900136C084E0809380
:100A6000F30110926F0110926E01E0919301F091E9
:100A70009401099580916E01811105C081E08093F8
:100A80006E0110924E01E0916F0181E08E0F809314
:100A90006F01F0E0E25BFE4F80818093BB0090919C
:100AA0006F0180916E01981708F479CF85E88093E3
:100AB000BC000AC085EC8093BC001092F30104C016
:100AC0001092F1010E944002FF91EF91BF91AF910E
:100AD0009F918F917F916F915F914F913F912F9156
:100AE0000F900FBE0F901F9018953FB7F89480910C
:100AF000C2029091C302A091C402B091C50226B572
:100B0000A89B05C02F3F19F00196A11DB11D3FBF45
:100B1000BA2FA92F982F8827820F911DA11DB11DD3
:100B2000BC01CD0142E0660F771F881F991F4A95CF
:100B3000D1F708958230D8F4E82FF0E0EE0FFF1FD0
:100B4000E050FF4F27E231E031832083813041F0D4
:100B5000809169008C7F826080936900E89A089593
:100B600080916900837F886080936900E99A089585
:100B7000282F30911702313208F04AC08091F301DA
:100B80008111FCCF9091160242E04093F301209333
:100B9000F2012FEF2093F1011092F0013093EF0159
:100BA000E6EFF1E0AFECB1E020E0321721F0419147
:100BB0004D932F5FFACF1092CE012091CE01990F65
:100BC000922B9093CE019091CD01913061F41092CF
:100BD000CD019091CE019093BB009091BC0093FD0C
:100BE000F8CF95EC01C095EE9093BC009091F30185
:100BF0009230E1F39091F1019F3F79F08091F10102
:100C0000803241F08091F101803331F084E005C001
:100C100081E003C082E001C083E01092F5011092F0
:100C200017021092F40108959091F3019111FCCFF5
:100C3000982F813208F090E281E08093F301809355
:100C4000F2012FEF2093F1011092F001290F209370
:100C5000EF018093CE018091CE01806D8093CE0113
:100C60008091CD01813061F41092CD018091CE014F
:100C70008093BB008091BC0083FDF8CF85EC01C060
:100C800085EE8093BC008091F3018130E1F3809187
:100C9000F001891710F49091F001EFECF1E0ADEA6A
:100CA000B1E080E0891721F021912D938F5FFACF79
:100CB0001092AC018093AB010895EF92FF920F93D5
:100CC0001F93CF93DF93CDB7DEB7A1970FB6F894FC
:100CD000DEBF0FBECDBF7C01CB01BA01F70111828F
:100CE000108213821282158214828E010F5F1F4FB1
:100CF00022E044E00E94CA0B009769F0FC010190D9
:100D00000020E9F73197AF01481B590BBC01C7011F
:100D10000E94800303C0C7010E945503A1960FB62D
:100D2000F894DEBF0FBECDBFDF91CF911F910F9121
:100D3000FF90EF90089590E0FC01ED51FE4F24915B
:100D4000FC01E153FE4F3491FC01E554FE4FE49168
:100D5000EE2309F43CC0222339F1233091F038F41A
:100D60002130A9F0223001F584B58F7D12C02730E3
:100D700091F02830A1F02430B9F4809180008F7D6B
:100D800003C0809180008F77809380000DC084B570
:100D90008F7784BD09C08091B0008F7703C08091A8
:100DA000B0008F7D8093B000F0E0EE0FFF1FEF5496
:100DB000FE4FA591B4919FB7F894611104C08C9136
:100DC0003095382302C0EC913E2B3C939FBF089591
:100DD000CF93DF9390E0FC01E153FE4F2491FC019F
:100DE000E554FE4F8491882361F190E0880F991FAC
:100DF000FC01E955FE4FC591D491FC01EF54FE4F23
:100E0000A591B491611109C09FB7F894888120958C
:100E100082238883EC912E230BC0623061F49FB74C
:100E2000F8948881322F309583238883EC912E2B80
:100E30002C939FBF06C08FB7F894E8812E2B288390
:100E40008FBFDF91CF9108958F929F92AF92BF9203
:100E5000CF92DF92EF92FF926B017C010E947505A9
:100E60004B015C01C114D104E104F104F1F00E94D2
:100E70007505DC01CB0188199909AA09BB09883ECF
:100E80009340A105B10570F321E0C21AD108E10831
:100E9000F10888EE880E83E0981EA11CB11CC114D5
:100EA000D104E104F10419F7DDCFFF90EF90DF905A
:100EB000CF90BF90AF909F908F9008951F920F9208
:100EC0000FB60F9211242F933F938F939F93AF935D
:100ED000BF938091A7019091A801A091A901B09121
:100EE000AA013091C10223E0230F2D3720F401968F
:100EF000A11DB11D05C026E8230F0296A11DB11D3D
:100F00002093C1028093A7019093A801A093A90107
:100F1000B093AA018091C2029091C302A091C40231
:100F2000B091C5020196A11DB11D8093C20290939C
:100F3000C302A093C402B093C502BF91AF919F9129
:100F40008F913F912F910F900FBE0F901F9018958A
:100F5000CF92DF92EF92FF920F931F93E82FF92F1A
:100F600005C0015011092109310961F190819623D1
:100F70009417B9F305C0015011092109310911F184
:100F8000908196239413F7CFC12CD12CE12CF12C16
:100F90000AC08FEFC81AD80AE80AF80A0C151D050E
:100FA0002E053F0579F080818623841791F36C2DFF
:100FB0007D2D8E2D9F2D1F910F91FF90EF90DF9033
:100FC000CF90089560E070E080E090E01F910F9175
:100FD000FF90EF90DF90CF900895FC0190819053A7
:100FE0009A3008F090E0818180532AE0929F800D32
:100FF00011240895CF93DF93CDB7DEB76D970FB669
:10100000F894DEBF0FBECDBF789484B5826084BDF6
:1010100084B5816084BD85B5826085BD85B58160FC
:1010200085BD80916E00816080936E00109281007A
:101030008091810082608093810080918100816035
:1010400080938100809180008160809380008091F6
:10105000B10084608093B1008091B0008160809382
:10106000B00080917A00846080937A0080917A0049
:10107000826080937A0080917A00816080937A0008
:1010800080917A00806880937A001092C100E0918C
:101090002802F091290282E08083E0912402F091FD
:1010A00025021082E0912602F09127028FEC8083C6
:1010B00010923002E0912C02F0912D0286E08083A4
:1010C000E0912A02F0912B02808180618083E0917F
:1010D0002A02F0912B02808188608083E0912A02AD
:1010E000F0912B02808180688083E0912A02F09148
:1010F0002B0280818F7D808360E08BE00E94E80678
:1011000061E08DE00E94E80660E082E00E94E8066F
:1011100061E082E00E949B0610929E0110929D0168
:101120001092990110929A0110929B0110929C01C9
:1011300010929501109296011092970110929801C9
:1011400010929F011092A0011092A1011092A20191
:1011500064E670E080E090E00E9424071092AC0109
:101160001092AB011092F501109217021092F30148
:1011700001E00093F2011092CD0161E082E10E9452
:101180009B0661E083E10E949B068091B9008E7FFF
:101190008093B9008091B9008D7F8093B90088E475
:1011A0008093B80085E48093BC0082E391E0909343
:1011B00094018093930183E391E090939201809353
:1011C00091010093F40188E6809316021092F501D4
:1011D0001092170260E085EB92E00E94CB0281E062
:1011E0000E94B80581E090E00E94140685EB92E031
:1011F0000E94820287FFC7C04BE050E061E971E0C6
:10120000CE0101960E94EA0BCE010A960E94ED07DC
:10121000082FE9814E2FEE0F550B660B770BFA0165
:10122000E154F109E331F10538F5EC5CFF4F0C9422
:10123000041012E021C08A81813639F08B818E360C
:1012400011F017E019C016E017C011E015C08B812E
:10125000823711F018E010C014E00EC08B81823785
:1012600011F015E009C013E007C019E005C01AE04D
:1012700003C01BE001C01CE0CE0105960E94ED07F3
:10128000E82E48E050E068E871E0CE0101960E9447
:10129000EA0BCE0101960E94ED07D82ECE010496EE
:1012A0000E94ED07C82ECE0107960E94ED07B82ECA
:1012B00081E08093F40188E6809316021092F50194
:1012C0001092170260E085EB92E00E94CB025AE098
:1012D000F52E8B2D6F2D0E94F80F682F660F860F4D
:1012E000880F682F6B0D85EB92E00E94CB028C2D4E
:1012F0006F2D0E94F80F682F660F860F880F682FDA
:101300006C0D85EB92E00E94CB028D2D6F2D0E941B
:10131000F80F682F660F860F880F682F6D0D85EB0D
:1013200092E00E94CB0260E085EB92E00E94CB024B
:101330008E2D6F2D0E94F80F682F660F860F880F75
:10134000682F6E0D85EB92E00E94CB02812F6F2DEE
:101350000E94F80F682F660F680F660F610F85EB0C
:1013600092E00E94CB02802F6F2D0E94F80F682F11
:10137000660F680F660F600F85EB92E00E94CB024C
:1013800081E00E94B80580E00E949A059BE3C92E87
:101390009FE1D92E27E3A22EB12C36EC632E31E04B
:1013A000732E41E3842E41E0942E7E0128E1E20E6B
:1013B000F11C81E08093F401E8E6E09316021092BC
:1013C000F5011092170260E085EB92E00E94CB02DB
:1013D00081E00E94B80587E090E00E94140685EB4A
:1013E00092E00E94820285EB92E00E94820285EBED
:1013F00092E00E94820285EB92E00E94820285EBDD
:1014000092E00E94820285EB92E00E94820285EBCC
:1014100092E00E94820260E08DE00E949B06C6017D
:101420000197F1F761E08DE00E949B06C5010197ED
:10143000F1F760E08DE00E949B06EAEDF1E0649137
:10144000F3018491E82FF0E0EE0FFF1FE356FE4F0B
:101450008591949100E412E42FE030E0462F0E9441
:10146000A807611571058105910549F0DC01CB01E3
:101470000196A11DB11DBC01CD019F7003C060E0AC
:1014800070E0CB010E94250E20E034E244E759E4ED
:101490000E94570F20E030E84BEA53E40E94620EAE
:1014A00020E030E040E05FE30E94620E6093A30121
:1014B0007093A4018093A5019093A6012FB7F8948F
:1014C0008091A7019091A801A091A901B091AA01D2
:1014D0002FBF40919F015091A0016091A101709197
:1014E000A201841B950BA60BB70B893E9340A10567
:1014F000B10508F48EC0E898909201018092000135
:101500002FB7F8948091A7019091A801A091A9010B
:10151000B091AA012FBF00919F011091A0012091CD
:10152000A1013091A201BC01CD01601B710B820BA6
:10153000930B0E94250E9B01AC0160E070E08AE7EE
:1015400094E40E94570F1B012C0160919D01709142
:101550009E01072E000C880B990B0E94270E9B0101
:10156000AC01C201B1010E94620E20E030E040E90E
:1015700050E40E94570F6093990170939A018093F1
:101580009B0190939C012FB7F8948091A7019091B3
:10159000A801A091A901B091AA012FBF80939F013A
:1015A0009093A001A093A101B093A20120E030E0AC
:1015B00040E752E46091990170919A0180919B01FA
:1015C00090919C010E94570F20E030E04AE754E4DC
:1015D0000E94620E0E94C90F009195011091960120
:1015E0002091970130919801D901C801860F971F6A
:1015F000A11DB11D8093950190939601A093970131
:10160000B093980110929E0110929D0180E00E947B
:101610009A054091A3015091A4016091A501709198
:10162000A601CE0101960E945D064091990150915C
:101630009A0160919B0170919C01CE010C960E94D1
:101640005D061B8A1A8A1D8A1C8A1F8A1E8A40E12F
:1016500050E06EE271E0CE0142960E94800348891C
:1016600059896C857D85CE0142960E9427038111A0
:1016700004C0CE0142960E9455036FE371E0CE0193
:1016800042960E9467038C014D815E8169817A8157
:101690000E942703811103C0C8010E94550369E419
:1016A00071E0C8010E946703198E188E1B8E1A8E76
:1016B0001D8E1C8E8E159F0559F0FC016081718175
:1016C0006115710529F044815581C7010E9480038D
:1016D0008A899B890E94A2108C859D850E94A210F8
:1016E00089819A810E94A2104C8D5D8D688D798DC3
:1016F00088E192E00E94340142E050E06BE471E046
:1017000088E192E00E94340168EB7BE080E090E0A9
:101710000E942407888D998D0E94A2100E94360293
:1017200048CEE8E1F2E01382128288EE93E0A0E076
:10173000B0E084839583A683B7832EE031E03183C4
:10174000208325EC30E03587248724EC30E0378790
:10175000268720EC30E0318B208B21EC30E0338B7E
:10176000228B22EC30E0358B248B26EC30E0378B5B
:10177000268B118E128E138E148EE5EBF2E01382FF
:10178000128284839583A683B78380E291E091835C
:1017900080830895EF920F931F93CF93DF93E80117
:1017A00047FD02C034E001C034E1042E000C550BAB
:1017B00057FF03C0519541955109E32E022F242F65
:1017C000AE010E94F30BCE01DF91CF911F910F91DB
:1017D000EF900895FB01DC0102C005900D9241508D
:1017E0005040D8F70895A9E0B0E0E9EFFBE00C9491
:1017F000260F6A01122FB02E2BE3201720F0FF24B2
:10180000F394F00E02C02CE3F22E0F2D27E0AE0170
:101810004F5F5F4F0E944D0DBC014981842F89703D
:10182000813031F0E1FC06C0E0FE06C090E205C068
:101830009DE203C09BE201C090E05E2D507143FF2A
:101840003CC0911102C083E001C084E0811718F40C
:10185000212F281B01C020E051110BC0F601822F5F
:1018600030E2882319F031938150FBCFC20ED11C96
:1018700020E0992329F0D6019C93F60131966F015F
:10188000C6010396E2FE0AC03EE4D6013C9341E461
:1018900011964C93119712963C9306C03EE6F601C2
:1018A000308341E641833283FC01322F40E233230F
:1018B00009F442C041933150FACF42FF44C0911124
:1018C00002C083E001C084E0811718F4212F281B97
:1018D00001C020E051110BC0F601822F30E28823B5
:1018E00019F031938150FBCFC20ED11C20E0992317
:1018F00029F0D6019C93F60131966F01C60103963B
:10190000E2FE0BC039E4D6013C933EE411963C93D1
:10191000119736E412963C9307C039E6F6013083FE
:101920003EE6318336E63283FC01322F40E2332338
:1019300019F041933150FBCFFC01E20FF11D1082F1
:101940008EEF9FEFA6C021E030E0911102C020E0B1
:1019500030E0161617061CF4FB01319602C0E1E0D8
:10196000F0E02E0F3F1FBB2021F0EB2DF0E0319671
:1019700002C0E0E0F0E02E0F3F1FE12FF0E02E1755
:101980003F071CF4121B212F01C020E08E2D88710F
:1019900059F4F601822F30E2882319F031938150F7
:1019A000FBCFC20ED11C20E0992329F0D6019C93D5
:1019B000F60131966F0151110BC0F601822F90E3B1
:1019C000882319F091938150FBCFC20ED11C20E0E7
:1019D0000F2D060F9A81342F307144FF03C09133CD
:1019E00009F40150101624F4093018F008E001C081
:1019F00001E0AB0177FF02C040E050E0FB01E41BD7
:101A0000F50BA1E0B0E0AC0FBD1FEA0FFB1F8EE2AB
:101A1000A82E4B01801A91080B2D10E0119501950D
:101A200011094F3FBFEF5B0721F4D601AC9211962D
:101A30006D01641775072CF08416950614F48181E6
:101A400001C080E3415051093196D60111967D01C4
:101A50004017510724F0D6018C936701E2CF641739
:101A6000750739F4963320F4953319F4311101C018
:101A700081E3F6018083F701822F90E2882319F039
:101A800091938150FBCFF701E20FF11D108280E0AE
:101A900090E02996ECE00C94420F283008F027E003
:101AA0003327DA01990F311D87FD9160009661059A
:101AB000710539F432602E5F3D9330E32A95E1F7EA
:101AC00008959F3F30F080387105610509F03C5F53
:101AD0003C5F3D93913008F08068911DDF93CF9378
:101AE0001F930F93FF92EF92192F987F9695E92FEE
:101AF00096959695E90FFF27E851FF4F99273327D1
:101B0000EE24FF24A701E70105900894079428F428
:101B1000360FE71EF81E491F511D660F771F881FDD
:101B2000991F0694A1F70590079428F4E70EF81E74
:101B3000491F561FC11D770F881F991F661F0694E6
:101B4000A1F70590079428F4F80E491F561FC71FE8
:101B5000D11D880F991F661F771F0694A1F7059066
:101B6000079420F4490F561FC71FD81F990F661FEF
:101B7000771F881F0694A9F784911095177041F07C
:101B8000D695C79557954795F794E7941A95C1F759
:101B9000EEE8F0E068941590159135916591959176
:101BA00005907FE27395E118F10A430B560BC90BC0
:101BB000D009C0F7E10CF11E431F561FC91FD01DED
:101BC0007EF4703311F48A95E6CFE894015030F03A
:101BD000080F0AF40027021708F4202F2395022F7C
:101BE0007A3328F079E37D932A95E9F710C07D9345
:101BF0002A9589F6069497956795379517951794C2
:101C0000E118F10A430B560BC90BD00998F0239544
:101C10007E9173957A3308F070E37C932013B8F7C4
:101C20007E9170617D9330F0839571E37D9370E3D5
:101C30002A95E1F71124EF90FF900F911F91CF911A
:101C4000DF91992787FD90950895E89409C097FB47
:101C50003EF490958095709561957F4F8F4F9F4F83
:101C60009923A9F0F92F96E9BB279395F6958795C7
:101C700077956795B795F111F8CFFAF4BB0F11F48A
:101C800060FF1BC06F5F7F4F8F4F9F4F16C0882331
:101C900011F096E911C0772321F09EE8872F762F67
:101CA00005C0662371F096E8862F70E060E02AF0A8
:101CB0009A95660F771F881FDAF7880F9695879594
:101CC00097F908950E94750E0C94E60E0E94D80EA6
:101CD00038F00E94DF0E20F0952311F00C94CF0E07
:101CE0000C94D50E11240C941A0F0E94F70E70F369
:101CF000959FC1F3950F50E0551F629FF001729FB1
:101D0000BB27F00DB11D639FAA27F00DB11DAA1FBF
:101D1000649F6627B00DA11D661F829F2227B00D0C
:101D2000A11D621F739FB00DA11D621F839FA00D97
:101D3000611D221F749F3327A00D611D231F849FE7
:101D4000600D211D822F762F6A2F11249F5750403E
:101D50009AF0F1F088234AF0EE0FFF1FBB1F661FB9
:101D6000771F881F91505040A9F79E3F510580F082
:101D70000C94CF0E0C941A0F5F3FE4F3983ED4F30B
:101D8000869577956795B795F795E7959F5FC1F726
:101D9000FE2B880F911D9695879597F9089597F9D1
:101DA0009F6780E870E060E008959FEF80EC089501
:101DB00000240A941616170618060906089500242A
:101DC0000A9412161306140605060895092E0394A4
:101DD000000C11F4882352F0BB0F40F4BF2B11F418
:101DE00060FF04C06F5F7F4F8F4F9F4F089557FD77
:101DF0009058440F551F59F05F3F71F04795880F79
:101E000097FB991F61F09F3F79F08795089512160F
:101E100013061406551FF2CF4695F1DF08C01616BB
:101E200017061806991FF1CF86957105610508946C
:101E30000895E894BB2766277727CB0197F9089583
:101E40002F923F924F925F926F927F928F929F92CA
:101E5000AF92BF92CF92DF92EF92FF920F931F93B8
:101E6000CF93DF93CDB7DEB7CA1BDB0B0FB6F89469
:101E7000DEBF0FBECDBF09942A88398848885F84A9
:101E80006E847D848C849B84AA84B984C884DF801A
:101E9000EE80FD800C811B81AA81B981CE0FD11DFE
:101EA0000FB6F894DEBF0FBECDBFED0108950E94BE
:101EB0006B0F0C94E60E0E94DF0E58F00E94D80EB5
:101EC00040F029F45F3F29F00C94CF0E51110C948F
:101ED0001A0F0C94D50E0E94F70E68F39923B1F3F4
:101EE000552391F3951B550BBB27AA276217730740
:101EF000840738F09F5F5F4F220F331F441FAA1FD4
:101F0000A9F335D00E2E3AF0E0E832D0915050408F
:101F1000E695001CCAF72BD0FE2F29D0660F771F3D
:101F2000881FBB1F261737074807AB07B0E809F023
:101F3000BB0B802DBF01FF2793585F4F3AF09E3FA8
:101F4000510578F00C94CF0E0C941A0F5F3FE4F318
:101F5000983ED4F3869577956795B795F7959F5FEB
:101F6000C9F7880F911D9695879597F90895E1E037
:101F7000660F771F881FBB1F621773078407BA0796
:101F800020F0621B730B840BBA0BEE1F88F7E095F1
:101F900008950E94FF0E88F09F5798F0B92F992757
:101FA000B751B0F0E1F0660F771F881F991F1AF044
:101FB000BA95C9F714C0B13091F00E94190FB1E081
:101FC00008950C94190F672F782F8827B85F39F080
:101FD000B93FCCF3869577956795B395D9F73EF4DD
:101FE00090958095709561957F4F8F4F9F4F089585
:101FF000991B79E004C0991F961708F0961B881F5B
:102000007A95C9F780950895EE0FFF1F0590F4911A
:10201000E02D09940F931F93CF93DF9382309105A6
:1020200010F482E090E0E091C802F091C90220E053
:1020300030E0A0E0B0E0309719F140815181028199
:10204000138148175907C8F08417950769F410974A
:1020500031F012960C93129713961C9327C000939D
:10206000C8021093C90222C02115310519F0421788
:10207000530718F49A01BD01EF01DF01F801DBCF2E
:1020800021153105F9F0281B390B2430310580F476
:102090008A819B816115710521F0FB019383828305
:1020A00004C09093C9028093C802FE01329644C0D6
:1020B000FE01E20FF31F819391932250310939837E
:1020C00028833AC02091C6023091C702232B41F4E5
:1020D00020910601309107013093C7022093C60278
:1020E00020910401309105012115310541F42DB7EE
:1020F0003EB74091080150910901241B350BE09136
:10210000C602F091C702E217F307A0F42E1B3F0BA3
:102110002817390778F0AC014E5F5F4F2417350759
:1021200048F04E0F5F1F5093C7024093C602819341
:10213000919302C0E0E0F0E0CF01DF91CF911F91D9
:102140000F910895CF93DF93009709F481C0FC01AC
:10215000329713821282A091C802B091C9021097DF
:1021600081F420813181820F931F2091C60230912A
:10217000C7022817390751F5F093C702E093C6024A
:1021800067C0ED0120E030E0CE17DF0740F44A8160
:102190005B819E0141155105F1F0EA01F5CFD38332
:1021A000C28340815181840F951FC817D90759F404
:1021B00088819981840F951F0296918380838A81FB
:1021C0009B81938382832115310529F4F093C90201
:1021D000E093C8023DC0E901FB83EA83499159912C
:1021E000C40FD51FEC17FD0761F480819181840F26
:1021F000951F0296E90199838883828193819B834D
:102200008A83E0E0F0E012968D919C9113970097FD
:1022100019F0FD01DC01F7CF8D919C9111979D0183
:102220002E5F3F4F820F931F2091C6023091C7024D
:102230002817390769F4309729F41092C9021092CF
:10224000C80202C013821282B093C702A093C602D2
:10225000DF91CF910895A0E0B0E0E1E3F1E10C94CB
:10226000240FEC01009721F4CB010E940A10B4C0A6
:10227000FC01E60FF71F9C0122503109E217F3071A
:1022800008F4A8C0D9010D911C91119706171707E2
:10229000B0F00530110508F49BC0C80104978617FB
:1022A000970708F495C002501109061B170B0193FC
:1022B00011936D937C93CF010E94A21089C05B01A2
:1022C000A01AB10A4C01800E911EA091C802B091D3
:1022D000C902612C712CE12CF12C109709F446C035
:1022E0008D919C911197A815B905B1F56C0142E04B
:1022F000C40ED11CCA14DB0478F14C018A189B0867
:10230000640142E0C40ED11C1296BC901297139641
:10231000AC91B5E0CB16D10440F0B282A383918298
:102320008082D9016D937C9309C00E5F1F4F800F8F
:10233000911FF90191838083EB2DFA2FE114F104B1
:1023400031F0D7011396FC93EE93129741C0F093AE
:10235000C902E093C8023CC06816790608F43C0143
:102360007D0112960D90BC91A02DB7CF8091C60231
:102370009091C70288169906E1F466167706C8F4AC
:102380008091040190910501009741F48DB79EB7AB
:102390004091080150910901841B950BE817F9073A
:1023A000C8F4F093C702E093C602F9017183608319
:1023B0000FC0CB010E940A107C01009759F0A801C0
:1023C000BE010E94F611CE010E94A210C70104C0F6
:1023D000CE0102C080E090E0CDB7DEB7EEE00C9415
:1023E000400F81E090E0F8940C940612FB01DC01B0
:1023F00002C001900D9241505040D8F70895FB0162
:10240000DC0101900D920020E1F70895F894FFCFD0
:10241000310131010000CA02800000000000C70144
:1024200034015E0114028F016D0181010000000082
:10243000CB029E02FB0272029602820273022241CA
:10244000223A7B22666C6F7772617465223A002CA7
:0E245000226C6576656C223A007D000D0A0054
:107E0000112484B714BE81FFF0D085E080938100F7
:107E100082E08093C00088E18093C10086E0809377
:107E2000C20080E18093C4008EE0C9D0259A86E02C
:107E300020E33CEF91E0309385002093840096BBD3
:107E4000B09BFECF1D9AA8958150A9F7CC24DD24C4
:107E500088248394B5E0AB2EA1E19A2EF3E0BF2EE7
:107E6000A2D0813461F49FD0082FAFD0023811F036
:107E7000013811F484E001C083E08DD089C08234E0
:107E800011F484E103C0853419F485E0A6D080C0E4
:107E9000853579F488D0E82EFF2485D0082F10E0AE
:107EA000102F00270E291F29000F111F8ED06801E7
:107EB0006FC0863521F484E090D080E0DECF843638
:107EC00009F040C070D06FD0082F6DD080E0C81688
:107ED00080E7D80618F4F601B7BEE895C0E0D1E017
:107EE00062D089930C17E1F7F0E0CF16F0E7DF06D8
:107EF00018F0F601B7BEE89568D007B600FCFDCFD4
:107F0000A601A0E0B1E02C9130E011968C91119780
:107F100090E0982F8827822B932B1296FA010C0160
:107F200087BEE89511244E5F5F4FF1E0A038BF0790
:107F300051F7F601A7BEE89507B600FCFDCF97BE46
:107F4000E89526C08437B1F42ED02DD0F82E2BD052
:107F50003CD0F601EF2C8F010F5F1F4F84911BD097
:107F6000EA94F801C1F70894C11CD11CFA94CF0C13
:107F7000D11C0EC0853739F428D08EE10CD085E9AC
:107F80000AD08FE07ACF813511F488E018D01DD067
:107F900080E101D065CF982F8091C00085FFFCCF94
:107FA0009093C60008958091C00087FFFCCF809118
:107FB000C00084FD01C0A8958091C6000895E0E648
:107FC000F0E098E1908380830895EDDF803219F02E
:107FD00088E0F5DFFFCF84E1DECF1F93182FE3DFCA
:107FE0001150E9F7F2DF1F91089580E0E8DFEE27F6
:047FF000FF270994CA
:027FFE00040479
:0400000300007E007B
:00000001FF
