:100000000C94FD000C94F9030C94D2030C9425017C
:100010000C9425010C9425010C9425010C942501C8
:100020000C9425010C9425010C9425010C942501B8
:100030000C9425010C9425010C9425010C942501A8
:100040000C9496070C9425010C9446040C942004FF
:100050000C9425010C9425010C9425010C94250188
:100060000C9478040C9425016009750975097409CC
:1000700075095209750975097509540975097509D4
:100080006709720970097509750975096E090040DB
:100090007A10F35A00A0724E18090010A5D4E80097
:1000A00000E87648170000E40B54020000CA9A3BAF
:1000B000000000E1F5050000809698000000404235
:1000C0000F000000A08601000000102700000000C3
:1000D000E803000000006400000000000A000000C7
:1000E00000000100000000002C76D888DC674F0873
:1000F00023DFC1DFAE59E1B1B796E5E3E453C63A79
:10010000E651997696E8E6C28426EB898C9B62EDEF
:10011000407C6FFCEFBC9C9F40F2BAA56FA5F490A9
:10012000055A2AF75C936B6CF9676DC11BFCE0E420
:100130000D47FEF520E6B500D0ED902E0300943576
:1001400077050080841E080000204E0A000000C8C9
:100150000C333333330F986E12831141EF8D21141A
:10016000893BE65516CFFEE6DB18D1844B381BF7EA
:100170007C1D901DA4BBE424203284725E22810089
:10018000C9F124ECA1E53D2730353A34313A343811
:1001900000466562203234203230313900000000E0
:1001A0000023002600290000000000240027002A68
:1001B0000000000000250028002B000404040404B3
:1001C0000404040202020202020303030303030104
:1001D00002040810204080010204081020010204DB
:1001E00008102000000008000201000003040700BE
:1001F0000000000000000000C30C11241FBECFEF60
:10020000D8E0DEBFCDBF22E0A0E6B1E001C01D9284
:10021000AC3DB207E1F711E0A0E0B1E0E2EAF7E2BD
:1002200002C005900D92A036B107D9F710E0CDEFCE
:10023000D0E004C02197FE010E94CD11CC3FD10730
:10024000C9F70E9432080C94CF130C9400008091DF
:10025000AF019091B00101969093B0018093AF01EE
:100260000895089508950895CF92DF92EF92FF9236
:100270000F931F93CF93DF936C017A018B01C0E042
:10028000D0E0CE15DF0581F0D8016D918D01D6014A
:10029000ED91FC910190F081E02DC6010995892B2B
:1002A00011F02196EECF7E01C701DF91CF911F9112
:1002B0000F91FF90EF90DF90CF900895FC01538D48
:1002C000448D252F30E0842F90E0821B930B541730
:1002D00010F0CF96089501970895FC01918D828DBD
:1002E000981761F0828DDF01A80FB11D5D968C918A
:1002F000928D9F5F9F73928F90E008958FEF9FEF95
:100300000895FC01918D828D981731F0828DE80F50
:10031000F11D858D90E008958FEF9FEF0895FC010A
:10032000918D228D892F90E0805C9F4F821B9109D7
:100330008F73992708958AE292E00E948F0121E04D
:10034000892B09F420E0822F0895FC01848DDF01C0
:10035000A80FB11DA35ABF4F2C91848D90E0019638
:100360008F739927848FA689B7892C93A089B18927
:100370008C91837080648C93938D848D981306C0C8
:100380000288F389E02D80818F7D80830895EF922C
:10039000FF920F931F93CF93DF93EC0181E0888F3F
:1003A0009B8D8C8D981305C0E889F989808185FD26
:1003B00026C0F62E0B8D10E00F5F1F4F0F73112715
:1003C000E02E8C8DE8120CC00FB607FCFACFE8893E
:1003D000F989808185FFF5CFCE010E94A501F1CF7B
:1003E0008B8DFE01E80FF11DE35AFF4FF0829FB79E
:1003F000F8940B8FEA89FB89808180620AC09FB7DD
:10040000F894EE89FF896083E889F9898081837097
:10041000806480839FBF81E090E0DF91CF911F9146
:100420000F91FF90EF900895CF93DF93EC01888DAB
:100430008823C9F0EA89FB89808185FD05C0A889E8
:10044000B9898C9186FD0FC00FB607FCF5CF80816E
:1004500085FFF2CFA889B9898C9185FFEDCFCE01B8
:100460000E94A501E7CFDF91CF91089580E090E051
:10047000892B29F00E949B0181110C9400000895A2
:1004800085ED8093BC008091BC0084FDFCCF109270
:100490000502089540918001262F30E0240F311D80
:1004A00021323105DCF4209105022430C9F4FC012D
:1004B00080E090E0861758F4309180012191DC01B2
:1004C000A05ABE4FA30FB11D2C930196F3CF80917C
:1004D0008001680F6093800180E0089581E00895B5
:1004E00082E008950895E091BE018091BD01E81772
:1004F00030F4F0E0E154FE4F808190E008958FEFFA
:100500009FEF08959091BE018091BD01981750F41E
:10051000E92FF0E0E154FE4F208130E09F5F90939F
:10052000BE0102C02FEF3FEFC90108958091BD01C8
:1005300090E02091BE01821B91090895CF92DF9235
:10054000EF92FF920F931F93CF93DF937C01CB0128
:100550008A0120910602222389F0EB016B01C40E6F
:10056000D51ECC15DD0569F06991D701ED91FC919F
:100570000190F081E02DC7010995F3CF642F0E940F
:100580004A02C801DF91CF911F910F91FF90EF9028
:10059000DF90CF900895CF93DF931F92CDB7DEB752
:1005A0006983209106022223D1F020912902203272
:1005B00040F021E030E0FC013383228380E090E0D2
:1005C00015C080910702E82FF0E0E85FFD4F9981A8
:1005D00090838F5F809307028093290205C061E0BA
:1005E000CE0101960E944A0281E090E00F90DF91D7
:1005F000CF910895089580E090E008950E94BA1385
:100600000F931F93CF93DF93EC018881998100971B
:1006100029F02A813B812617370788F48B016F5F09
:100620007F4F0E94F412009761F0998388831B83A7
:100630000A832C813D81232B11F4FC01108281E07F
:1006400001C080E0DF91CF911F910F910895EF924B
:10065000FF920F931F93CF93DF936115710511F4F0
:1006600080E01CC041155105C1F07B01EC018C817B
:100670009D818A01080F191FB801CE010E94000355
:10068000882371F3288139818C819D81B701820F84
:10069000931F0E94C8131D830C8381E0DF91CF91CB
:1006A0001F910F91FF90EF900895CF93DF93EC018E
:1006B00088819981009711F00E946B12198218822B
:1006C0001D821C821B821A82DF91CF910895CF93E5
:1006D000DF93EC016115710561F0FB0101900020D1
:1006E000E9F73197AF01461B570B0E942703811191
:1006F00003C0CE010E945503CE01DF91CF91089532
:10070000EF92FF920F931F93CF93DF93EC017B0146
:100710008A01BA010E940003811104C0CE010E9427
:10072000550307C01D830C83B701888199810E94FE
:10073000C813CE01DF91CF911F910F91FF90EF90E1
:100740000895CF93DF93EC016115710559F0FB011A
:1007500001900020E9F73197AF01461B570B0E942B
:10076000800302C00E945503CE01DF91CF9108950E
:10077000FB01DC0111961C921E9213961C921E9294
:10078000129715961C921E9214978617970749F098
:10079000608171816115710521F0448155810C944E
:1007A000800308951F920F920FB60F9211242F937A
:1007B0003F934F935F936F937F938F939F93AF93E9
:1007C000BF93EF93FF93E0910201F091030109952C
:1007D000FF91EF91BF91AF919F918F917F916F9119
:1007E0005F914F913F912F910F900FBE0F901F90EF
:1007F00018951F920F920FB60F9211242F933F93CB
:100800004F935F936F937F938F939F93AF93BF9318
:10081000EF93FF93E0910001F09101010995FF91A1
:10082000EF91BF91AF919F918F917F916F915F9168
:100830004F913F912F910F900FBE0F901F901895E1
:100840001F920F920FB60F9211242F933F934F9345
:100850005F936F937F938F939F93AF93BF93EF9328
:10086000FF938AE292E00E94A501FF91EF91BF9170
:10087000AF919F918F917F916F915F914F913F9138
:100880002F910F900FBE0F901F9018951F920F92EF
:100890000FB60F9211242F938F939F93EF93FF9393
:1008A000E0913A02F0913B028081E0914002F091A8
:1008B000410282FD12C09081809143028F5F8F734D
:1008C00020914402821751F0E0914302F0E0E65D8E
:1008D000FD4F958F8093430201C08081FF91EF917E
:1008E0009F918F912F910F900FBE0F901F90189591
:1008F0001F920F920FB60F9211242F933F934F9395
:100900005F936F937F938F939F93AF93BF93EF9377
:10091000FF938091B900887F803609F49CC068F508
:10092000883209F45BC090F4803109F454C038F483
:10093000882309F4F6C0883009F44DC0F6C0883128
:1009400009F44CC0803209F45DC0EFC0803409F472
:1009500068C048F4803309F455C0883309F0E5C015
:1009600080930302D8C0803509F44FC0883509F45C
:100970005DC0883409F0D9C0D6C0883909F4C7C031
:10098000A8F4883709F467C038F4883609F463C0DE
:10099000803709F460C0C9C0883809F4B8C080390C
:1009A00009F45FC0803809F0C0C05BC0803B09F427
:1009B00086C038F4803A09F466C0883A09F47FC0EA
:1009C000B4C0803C09F4A7C0883C09F4A4C0883BAB
:1009D00009F48AC0AAC08091E00110C0909102027F
:1009E00080910102981770F5E091020281E08E0F6C
:1009F00080930202F0E0EF51FE4F80818093BB00B4
:100A000085EC86C0809303028EC0E091020281E0F3
:100A10008E0F809302028091BB00F0E0EF51FE4FF9
:100A2000808390910202809101026EC0E0910202E7
:100A300081E08E0F809302028091BB00F0E0EF51C5
:100A4000FE4F80838091040281116DC081E080930C
:100A5000DF0184EA61C083E0809305021092A20165
:100A6000CFCF8091A201803208F051C0E091A20165
:100A700081E08E0F8093A2018091BB00F0E0EE57E1
:100A8000FE4F8083BDCF85EC8093BC0010920502A1
:100A90008091A201803230F4E091A201F0E0EE57A3
:100AA000FE4F10826091A20170E0E091A301F091ED
:100AB000A40182E891E009951092A20136C084E079
:100AC000809305021092810110928001E091A501AE
:100AD000F091A601099580918001811105C081E006
:100AE0008093800110926001E091810181E08E0F7E
:100AF00080938101F0E0E05AFE4F80818093BB003B
:100B00009091810180918001981708F479CF85E850
:100B10008093BC000AC085EC8093BC001092050253
:100B200004C0109203020E944002FF91EF91BF9116
:100B3000AF919F918F917F916F915F914F913F9175
:100B40002F910F900FBE0F901F9018953FB7F894FC
:100B50008091D4029091D502A091D602B091D70293
:100B600026B5A89B05C02F3F19F00196A11DB11D08
:100B70003FBFBA2FA92F982F8827820F911DA11D43
:100B8000B11DBC01CD0142E0660F771F881F991F80
:100B90004A95D1F708958230D8F4E82FF0E0EE0FAF
:100BA000FF1FE050FF4F27E231E031832083813087
:100BB00041F0809169008C7F826080936900E89A9F
:100BC000089580916900837F886080936900E99A25
:100BD0000895282F30912902313208F04AC08091BF
:100BE00005028111FCCF9091280242E0409305025A
:100BF000209304022FEF20930302109202023093FD
:100C00000102E8E0F2E0A1EEB1E020E0321721F0CD
:100C100041914D932F5FFACF1092E0012091E001B6
:100C2000990F922B9093E0019091DF01913061F444
:100C30001092DF019091E0019093BB009091BC0075
:100C400093FDF8CF95EC01C095EE9093BC00909188
:100C500005029230E1F3909103029F3F79F0809179
:100C60000302803241F080910302803331F084E04E
:100C700005C081E003C082E001C083E0109207025A
:100C80001092290210920602089590910502911186
:100C9000FCCF982F813208F090E281E0809305022A
:100CA000809304022FEF2093030210920202290F77
:100CB000209301028093E0018091E001806D809398
:100CC000E0018091DF01813061F41092DF018091B9
:100CD000E0018093BB008091BC0083FDF8CF85ECE0
:100CE00001C085EE8093BC00809105028130E1F364
:100CF00080910202891710F490910202E1EEF1E076
:100D0000AFEBB1E080E0891721F021912D938F5F47
:100D1000FACF1092BE018093BD010895FC0180813D
:100D200091810C946B12CF93DF93EC01FB01448112
:100D30005581608171810E942703811103C0CE011A
:100D40000E945503CE01DF91CF9108950F931F9319
:100D5000CF93DF93CDB7DEB729970FB6F894DEBFF8
:100D60000FBECDBF8C01862FF80111821082138235
:100D70001282158214824AE0BE016F5F7F4F90E0BD
:100D80000E94250DBE016F5F7F4FC8010E94A10325
:100D900029960FB6F894DEBF0FBECDBFDF91CF917D
:100DA0001F910F91089590E0FC01ED51FE4F2491A9
:100DB000FC01E153FE4F3491FC01E554FE4FE491F8
:100DC000EE2309F43CC0222339F1233091F038F4AA
:100DD0002130A9F0223001F584B58F7D12C0273073
:100DE00091F02830A1F02430B9F4809180008F7DFB
:100DF00003C0809180008F77809380000DC084B500
:100E00008F7784BD09C08091B0008F7703C0809137
:100E1000B0008F7D8093B000F0E0EE0FFF1FEF5425
:100E2000FE4FA591B4919FB7F894611104C08C91C5
:100E30003095382302C0EC913E2B3C939FBF089520
:100E4000CF93DF9390E0FC01E153FE4F2491FC012E
:100E5000E554FE4F8491882361F190E0880F991F3B
:100E6000FC01E955FE4FC591D491FC01EF54FE4FB2
:100E7000A591B491611109C09FB7F894888120951C
:100E800082238883EC912E230BC0623061F49FB7DC
:100E9000F8948881322F309583238883EC912E2B10
:100EA0002C939FBF06C08FB7F894E8812E2B288320
:100EB0008FBFDF91CF9108958F929F92AF92BF9293
:100EC000CF92DF92EF92FF926B017C010E94A60508
:100ED0004B015C01C114D104E104F104F1F00E9462
:100EE000A605DC01CB0188199909AA09BB09883E2E
:100EF0009340A105B10570F321E0C21AD108E108C1
:100F0000F10888EE880E83E0981EA11CB11CC11464
:100F1000D104E104F10419F7DDCFFF90EF90DF90E9
:100F2000CF90BF90AF909F908F9008951F920F9297
:100F30000FB60F9211242F933F938F939F93AF93EC
:100F4000BF938091B9019091BA01A091BB01B0917A
:100F5000BC013091D30223E0230F2D3720F40196FA
:100F6000A11DB11D05C026E8230F0296A11DB11DCC
:100F70002093D3028093B9019093BA01A093BB014F
:100F8000B093BC018091D4029091D502A091D60279
:100F9000B091D7020196A11DB11D8093D402909308
:100FA000D502A093D602B093D702BF91AF919F9183
:100FB0008F913F912F910F900FBE0F901F9018951A
:100FC000CF92DF92EF92FF920F931F93E82FF92FAA
:100FD00005C0015011092109310961F19081962361
:100FE0009417B9F305C0015011092109310911F114
:100FF000908196239413F7CFC12CD12CE12CF12CA6
:101000000AC08FEFC81AD80AE80AF80A0C151D059D
:101010002E053F0579F080818623841791F36C2D8E
:101020007D2D8E2D9F2D1F910F91FF90EF90DF90C2
:10103000CF90089560E070E080E090E01F910F9104
:10104000FF90EF90DF90CF900895FC019081905336
:101050009A3008F090E0818180532AE0929F800DC1
:1010600011240895CF93DF93CDB7DEB7CB54D109C8
:101070000FB6F894DEBF0FBECDBF789484B5826002
:1010800084BD84B5816084BD85B5826085BD85B52C
:10109000816085BD80916E00816080936E001092AA
:1010A0008100809181008260809381008091810025
:1010B00081608093810080918000816080938000B6
:1010C0008091B10084608093B1008091B000816014
:1010D0008093B00080917A00846080937A00809140
:1010E0007A00826080937A0080917A008160809398
:1010F0007A0080917A00806880937A001092C10013
:10110000E0913A02F0913B0282E08083E091360266
:10111000F09137021082E0913802F09139028FECA1
:10112000808310924202E0913E02F0913F0286E0FD
:101130008083E0913C02F0913D0280818061808358
:10114000E0913C02F0913D02808188608083E091D3
:101150003C02F0913D02808180688083E0913C02F6
:10116000F0913D0280818F7D808360E08BE00E9462
:10117000200761E08DE00E94200760E082E00E948D
:10118000200761E082E00E94D3061092B001109225
:10119000AF011092AB011092AC011092AD01109210
:1011A000AE011092A7011092A8011092A90110920D
:1011B000AA011092B1011092B2011092B3011092E3
:1011C000B40164E670E080E090E00E945C07109259
:1011D000BE011092BD0110920702109229021092D6
:1011E000050201E0009304021092DF0161E082E158
:1011F0000E94D30661E083E10E94D3068091B9008A
:101200008E7F8093B9008091B9008D7F8093B90063
:1012100088E48093B80085E48093BC0082E391E089
:101220009093A6018093A50183E391E09093A4019C
:101230008093A3010093060288E68093280210920F
:1012400007021092290260E087EC92E00E94CB0234
:1012500081E00E94E90581E090E00E94450687EC6C
:1012600092E00E94820287FFC7C04BE050E061E934
:1012700071E0CE0101960E941C0DCE010A960E94DB
:101280002508082FE9814E2FEE0F550B660B770BC3
:10129000FA01E154F109E331F10538F5EC5CFF4F57
:1012A0000C94CD1112E021C08A81813639F08B81F6
:1012B0008E3611F017E019C016E017C011E015C006
:1012C0008B81823711F018E010C014E00EC08B81C2
:1012D000823711F015E009C013E007C019E005C01E
:1012E0001AE003C01BE001C01CE0CE0105960E947D
:1012F0002508E82E48E050E068E871E0CE0101964C
:101300000E941C0DCE0101960E942508D82ECE0108
:1013100004960E942508C82ECE0107960E94250833
:10132000B82E81E08093060288E68093280210920E
:1013300007021092290260E087EC92E00E94CB0243
:101340008AE0F82E8B2D6F2D0E94C111682F660F39
:10135000860F880F682F6B0D87EC92E00E94CB02FE
:101360008C2D6F2D0E94C111682F660F860F880F7C
:10137000682F6C0D87EC92E00E94CB028D2D6F2DB3
:101380000E94C111682F660F860F880F682F6D0DA0
:1013900087EC92E00E94CB0260E087EC92E00E9432
:1013A000CB028E2D6F2D0E94C111682F660F860F04
:1013B000880F682F6E0D87EC92E00E94CB02812F80
:1013C0006F2D0E94C111682F660F680F660F610FA5
:1013D00087EC92E00E94CB02802F6F2D0E94C111FA
:1013E000682F660F680F660F600F87EC92E00E940F
:1013F000CB0281E00E94E90580E00E94CB058824B1
:101400008394EFE29E2EFBE3EF2EFFE1FF2EA7E396
:10141000CA2ED12CBAEDAB2EB1E0BB2E80920602C3
:1014200088E680932802109207021092290260E059
:1014300087EC92E00E94CB0281E00E94E90587E000
:1014400090E00E94450687EC92E00E9482028F772E
:10145000982F92959F701AEF382E919F300C11247F
:1014600087EC92E00E9482029C01332794E035953C
:1014700027959A95E1F7482E129F400C112487EC8E
:1014800092E00E9482029C01332744E03595279523
:101490004A95E1F7582E129F500C112487EC92E0E8
:1014A0000E94820287EC92E00E9482029C01332714
:1014B00054E0359527955A95E1F7682E129F600CF8
:1014C000112487EC92E00E9482029C01332764E0A1
:1014D000359527956A95E1F7782E129F700C1124A7
:1014E00087EC92E00E9482029C01332774E03595DC
:1014F00027957A95E1F7129F800D1124082F10E0AF
:101500000053184F632DCE0182960E94A606642DCB
:10151000CE0188960E94A606652DCE018E960E9469
:10152000A606662DCE01C4960E94A606672DCE01A2
:10153000CA960E94A60622961FAE1EAE2297249639
:101540001FAE1EAE249726961FAE1EAE26974AE00B
:10155000BE016F5F7F4FC8010E94250DBE016F5F06
:101560007F4FCE01805C9F4F0E94A103BE01605C53
:101570007F4FCE0101960E94B80327969FAE279712
:1015800028961FAE289741E050E0BE016A5B7F4F6E
:10159000CE0101960E942703811104C0CE0101965D
:1015A0000E945503BE01665C7F4FCE0101960E94EA
:1015B00093068C0127969FAE279728961FAE2897F3
:1015C00041E050E0BE016A5B7F4F0E94270381111A
:1015D00003C0C8010E945503BE016C5C7F4FC80167
:1015E0000E9493066EE271E00E946703BE01625D95
:1015F0007F4F0E94930668E571E00E946703BE0179
:10160000685D7F4F0E94930668E571E00E94670362
:10161000BE016E5D7F4F0E949306BC01CE018A5BC6
:101620009F4F0E94B803CE0101960E948E06CE0104
:10163000805C9F4F0E948E06CE01CA960E948E0645
:10164000CE01C4960E948E06CE018E960E948E0612
:10165000CE0188960E948E06CE0182960E948E064A
:1016600060E08DE00E94D306C7010197F1F761E0C9
:101670008DE00E94D306C6010197F1F760E08DE08E
:101680000E94D306F5016491E6ECF1E0E491F0E00C
:10169000EE0FFF1FE356FE4F8591949100E412E494
:1016A0002FE030E0462F0E94E007611571058105AB
:1016B000910549F0DC01CB010196A11DB11DBC01D2
:1016C000CD019F7003C060E070E0CB010E94810FEC
:1016D00020E034E244E759E40E94201120E030E8A1
:1016E0004BEA53E40E94BE0F20E030E040E05FE3AD
:1016F0000E94BE0F9B01AC0160E070E080E090E4CE
:101700000E94B3106093B5017093B6018093B70146
:101710009093B8012FB7F8948091B9019091BA01D4
:10172000A091BB01B091BC012FBF4091B10150917C
:10173000B2016091B3017091B401841B950BA60BAB
:10174000B70B893E9340A105B10508F490C0E89815
:1017500081E391E090930101809300012FB7F89409
:101760008091B9019091BA01A091BB01B091BC01E7
:101770002FBF0091B1011091B2012091B3013091BE
:10178000B401BC01CD01601B710B820B930B0E9455
:10179000810F9B01AC0160E070E08AE794E40E9455
:1017A00020112B013C016091AF017091B001072E17
:1017B000000C880B990B0E94830F9B01AC01C301A5
:1017C000B2010E94BE0F20E030E040E950E40E94E8
:1017D00020116093AB017093AC018093AD019093A5
:1017E000AE012FB7F8948091B9019091BA01A09100
:1017F000BB01B091BC012FBF8093B1019093B201A6
:10180000A093B301B093B40120E030E040E752E48C
:101810006091AB017091AC018091AD019091AE01EE
:101820000E94201120E030E04AE754E40E94BE0FFD
:101830000E9492110091A7011091A8012091A90185
:101840003091AA01D901C801860F971FA11DB11DB2
:101850008093A7019093A801A093A901B093AA0136
:101860001092B0011092AF0180E00E94CB05609110
:10187000B5017091B6018091B7019091B8011BA29A
:101880001AA21DA21CA21FA21EA28E010F5F1F4F33
:1018900022E044E00E94FC0CBC01CE0182960E9432
:1018A000A1036091AB017091AC018091AD01909169
:1018B000AE0119A618A61BA61AA61DA61CA622E0F4
:1018C00044E00E94FC0CBC01CE0188960E94A1035A
:1018D0001A8219821C821B821E821D8246E150E000
:1018E00060E371E0C8010E948003BE01685D7F4F24
:1018F000C8010E94930667E471E00E946703BE017D
:101900006E5D7F4F0E94930661E571E00E94670360
:10191000BE016A5B7F4F0E9493066AE571E00E94F8
:101920006703BC01CE018E960E94B803C8010E94D5
:101930008E06CE0188960E948E06CE0182960E9467
:101940008E064AA95BA96EA57FA58AE292E00E9455
:10195000340142E050E06CE571E08AE292E00E94DE
:10196000340168ED7EE080E090E00E945C07CE01EB
:101970008E960E948E06CE018A5B9F4F0E948E0635
:101980000E9436024BCDEAE2F2E01382128288EE28
:1019900093E0A0E0B0E084839583A683B7832EE034
:1019A00031E03183208325EC30E03587248724EC37
:1019B00030E03787268720EC30E0318B208B21EC1C
:1019C00030E0338B228B22EC30E0358B248B26ECFD
:1019D00030E0378B268B118E128E138E148EE7EC2F
:1019E000F2E01382128284839583A683B78380E218
:1019F00091E0918380830895EF920F931F93CF938B
:101A0000DF93E80147FD02C034E001C034E1042E59
:101A1000000C550B57FF03C0519541955109E32E1A
:101A2000022F242FAE010E943F0DCE01DF91CF91F6
:101A30001F910F91EF900895FB01DC0102C005900A
:101A40000D9241505040D8F70895BB27FB01552710
:101A5000AA27880F991FAA1FA41710F0A41B83950B
:101A60005051B9F7A05DAA3308F0A95DA193009782
:101A700079F7B111B1931192CB010C94710FA9E0D8
:101A8000B0E0E5E4FDE00C9482106A01122FB02E64
:101A90002BE3201720F0FF24F394F00E02C02CE378
:101AA000F22E0F2D27E0AE014F5F5F4F0E94990E7F
:101AB000BC014981842F8970813031F0E1FC06C07E
:101AC000E0FE06C090E205C09DE203C09BE201C0BB
:101AD00090E05E2D507143FF3CC0911102C083E045
:101AE00001C084E0811718F4212F281B01C020E0D9
:101AF00051110BC0F601822F30E2882319F0319387
:101B00008150FBCFC20ED11C20E0992329F0D601D1
:101B10009C93F60131966F01C6010396E2FE0AC05E
:101B20003EE4D6013C9341E411964C9311971296F2
:101B30003C9306C03EE6F601308341E641833283A2
:101B4000FC01322F40E2332309F442C0419331506B
:101B5000FACF42FF44C0911102C083E001C084E08B
:101B6000811718F4212F281B01C020E051110BC050
:101B7000F601822F30E2882319F031938150FBCF98
:101B8000C20ED11C20E0992329F0D6019C93F601C6
:101B900031966F01C6010396E2FE0BC039E4D6010F
:101BA0003C933EE411963C93119736E412963C9395
:101BB00007C039E6F60130833EE6318336E63283EC
:101BC000FC01322F40E2332319F041933150FBCF17
:101BD000FC01E20FF11D10828EEF9FEFA6C021E005
:101BE00030E0911102C020E030E0161617061CF418
:101BF000FB01319602C0E1E0F0E02E0F3F1FBB2059
:101C000021F0EB2DF0E0319602C0E0E0F0E02E0F85
:101C10003F1FE12FF0E02E173F071CF4121B212F6E
:101C200001C020E08E2D887159F4F601822F30E238
:101C3000882319F031938150FBCFC20ED11C20E0D4
:101C4000992329F0D6019C93F60131966F01511129
:101C50000BC0F601822F90E3882319F091938150F5
:101C6000FBCFC20ED11C20E00F2D060F9A81342F1E
:101C7000307144FF03C0913309F40150101624F46D
:101C8000093018F008E001C001E0AB0177FF02C0A5
:101C900040E050E0FB01E41BF50BA1E0B0E0AC0F2D
:101CA000BD1FEA0FFB1F8EE2A82E4B01801A910880
:101CB0000B2D10E01195019511094F3FBFEF5B0708
:101CC00021F4D601AC9211966D01641775072CF0C2
:101CD0008416950614F4818101C080E341505109B6
:101CE0003196D60111967D014017510724F0D60197
:101CF0008C936701E2CF6417750739F4963320F4AB
:101D0000953319F4311101C081E3F6018083F701A5
:101D1000822F90E2882319F091938150FBCFF70135
:101D2000E20FF11D108280E090E02996ECE00C9427
:101D30009E10283008F027E03327DA01990F311D73
:101D400087FD916000966105710539F432602E5F60
:101D50003D9330E32A95E1F708959F3F30F08038B6
:101D60007105610509F03C5F3C5F3D93913008F0DF
:101D70008068911DDF93CF931F930F93FF92EF9293
:101D8000192F987F9695E92F96959695E90FFF273D
:101D9000E851FF4F99273327EE24FF24A701E701DD
:101DA00005900894079428F4360FE71EF81E491F83
:101DB000511D660F771F881F991F0694A1F7059084
:101DC000079428F4E70EF81E491F561FC11D770F10
:101DD000881F991F661F0694A1F70590079428F4A1
:101DE000F80E491F561FC71FD11D880F991F661F68
:101DF000771F0694A1F70590079420F4490F561F0A
:101E0000C71FD81F990F661F771F881F0694A9F751
:101E100084911095177041F0D695C79557954795C1
:101E2000F794E7941A95C1F7EEE8F0E068941590FE
:101E3000159135916591959105907FE27395E11823
:101E4000F10A430B560BC90BD009C0F7E10CF11E88
:101E5000431F561FC91FD01D7EF4703311F48A959D
:101E6000E6CFE894015030F0080F0AF4002702177B
:101E700008F4202F2395022F7A3328F079E37D93FD
:101E80002A95E9F710C07D932A9589F606949795CF
:101E90006795379517951794E118F10A430B560B80
:101EA000C90BD00998F023957E9173957A3308F089
:101EB00070E37C932013B8F77E9170617D9330F0CE
:101EC000839571E37D9370E32A95E1F71124EF90F8
:101ED000FF900F911F91CF91DF91992787FD9095EA
:101EE0000895DC01FC01672F71917723E1F73297A8
:101EF00004C07C916D9370836291AE17BF07C8F3E5
:101F00000895E89409C097FB3EF4909580957095EC
:101F100061957F4F8F4F9F4F9923A9F0F92F96E935
:101F2000BB279395F695879577956795B795F111AA
:101F3000F8CFFAF4BB0F11F460FF1BC06F5F7F4F47
:101F40008F4F9F4F16C0882311F096E911C0772359
:101F500021F09EE8872F762F05C0662371F096E862
:101F6000862F70E060E02AF09A95660F771F881F31
:101F7000DAF7880F9695879597F908950E94D10F03
:101F80000C9442100E94341038F00E943B1020F054
:101F9000952311F00C942B100C94311011240C94F7
:101FA00076100E94531070F3959FC1F3950F50E087
:101FB000551F629FF001729FBB27F00DB11D639FFB
:101FC000AA27F00DB11DAA1F649F6627B00DA11DA1
:101FD000661F829F2227B00DA11D621F739FB00D47
:101FE000A11D621F839FA00D611D221F749F3327B7
:101FF000A00D611D231F849F600D211D822F762F50
:102000006A2F11249F5750409AF0F1F088234AF02C
:10201000EE0FFF1FBB1F661F771F881F9150504098
:10202000A9F79E3F510580F00C942B100C9476106C
:102030005F3FE4F3983ED4F3869577956795B7951F
:10204000F795E7959F5FC1F7FE2B880F911D969539
:10205000879597F9089597F99F6780E870E060E0A9
:1020600008959FEF80EC089500240A941616170631
:1020700018060906089500240A9412161306140679
:1020800005060895092E0394000C11F4882352F0DC
:10209000BB0F40F4BF2B11F460FF04C06F5F7F4F94
:1020A0008F4F9F4F089557FD9058440F551F59F07B
:1020B0005F3F71F04795880F97FB991F61F09F3F35
:1020C00079F087950895121613061406551FF2CF5E
:1020D0004695F1DF08C0161617061806991FF1CFAE
:1020E00086957105610508940895E894BB276627D5
:1020F0007727CB0197F908952F923F924F925F92E5
:102100006F927F928F929F92AF92BF92CF92DF9207
:10211000EF92FF920F931F93CF93DF93CDB7DEB76C
:10212000CA1BDB0B0FB6F894DEBF0FBECDBF099400
:102130002A88398848885F846E847D848C849B8457
:10214000AA84B984C884DF80EE80FD800C811B8165
:10215000AA81B981CE0FD11D0FB6F894DEBF0FBE94
:10216000CDBFED0108955058BB27AA270E94CB1080
:102170000C9442100E94341038F00E943B1020F062
:1021800039F49F3F19F426F40C9431100EF4E095C5
:10219000E7FB0C942B10E92F0E94531058F3BA1749
:1021A000620773078407950720F079F4A6F50C946D
:1021B00075100EF4E0950B2EBA2FA02D0B01B9016E
:1021C00090010C01CA01A0011124FF27591B99F0AD
:1021D000593F50F4503E68F11A16F040A22F232FB9
:1021E000342F4427585FF3CF469537952795A79509
:1021F000F0405395C9F77EF41F16BA0B620B730BB0
:10220000840BBAF09150A1F0FF0FBB1F661F771F20
:10221000881FC2F70EC0BA0F621F731F841F48F4D5
:10222000879577956795B795F7959E3F08F0B0CF5E
:102230009395880F08F09927EE0F97958795089545
:102240000E9434110C9442100E943B1058F00E94DE
:10225000341040F029F45F3F29F00C942B105111F9
:102260000C9476100C9431100E94531068F399234B
:10227000B1F3552391F3951B550BBB27AA27621782
:102280007307840738F09F5F5F4F220F331F441F8F
:10229000AA1FA9F335D00E2E3AF0E0E832D09150C3
:1022A0005040E695001CCAF72BD0FE2F29D0660FB0
:1022B000771F881FBB1F261737074807AB07B0E8F3
:1022C00009F0BB0B802DBF01FF2793585F4F3AF0F9
:1022D0009E3F510578F00C942B100C9476105F3FC4
:1022E000E4F3983ED4F3869577956795B795F7957F
:1022F0009F5FC9F7880F911D9695879597F9089567
:10230000E1E0660F771F881FBB1F62177307840702
:10231000BA0720F0621B730B840BBA0BEE1F88F711
:10232000E09508950E945B1088F09F5798F0B92FB0
:102330009927B751B0F0E1F0660F771F881F991FFA
:102340001AF0BA95C9F714C0B13091F00E94751017
:10235000B1E008950C947510672F782F8827B85F27
:1023600039F0B93FCCF3869577956795B395D9F752
:102370003EF490958095709561957F4F8F4F9F4F5C
:102380000895991B79E004C0991F961708F0961BD1
:10239000881F7A95C9F780950895EE0FFF1F059065
:1023A000F491E02D09940F931F93CF93DF93823024
:1023B000910510F482E090E0E091DA02F091DB0206
:1023C00020E030E0A0E0B0E0309719F14081518189
:1023D0000281138148175907C8F08417950769F4DB
:1023E000109731F012960C93129713961C9327C0F6
:1023F0000093DA021093DB0222C02115310519F097
:102400004217530718F49A01BD01EF01DF01F801EB
:10241000DBCF21153105F9F0281B390B24303105AC
:1024200080F48A819B816115710521F0FB01938302
:10243000828304C09093DB028093DA02FE0132961D
:1024400044C0FE01E20FF31F8193919322503109A2
:10245000398328833AC02091D8023091D902232BA6
:1024600041F420910601309107013093D902209365
:10247000D80220910401309105012115310541F464
:102480002DB73EB74091080150910901241B350B2F
:10249000E091D802F091D902E217F307A0F42E1BC5
:1024A0003F0B2817390778F0AC014E5F5F4F2417B8
:1024B000350748F04E0F5F1F5093D9024093D80262
:1024C0008193919302C0E0E0F0E0CF01DF91CF91E2
:1024D0001F910F910895CF93DF93009709F481C066
:1024E000FC01329713821282A091DA02B091DB02D2
:1024F000109781F420813181820F931F2091D8029F
:102500003091D9022817390751F5F093D902E09399
:10251000D80267C0ED0120E030E0CE17DF0740F4BD
:102520004A815B819E0141155105F1F0EA01F5CF29
:10253000D383C28340815181840F951FC817D90767
:1025400059F488819981840F951F02969183808325
:102550008A819B81938382832115310529F4F0932D
:10256000DB02E093DA023DC0E901FB83EA83499193
:102570005991C40FD51FEC17FD0761F4808191813B
:10258000840F951F0296E901998388838281938144
:102590009B838A83E0E0F0E012968D919C911397E3
:1025A000009719F0FD01DC01F7CF8D919C911197F7
:1025B0009D012E5F3F4F820F931F2091D8023091D3
:1025C000D9022817390769F4309729F41092DB02F1
:1025D0001092DA0202C013821282B093D902A09341
:1025E000D802DF91CF910895A0E0B0E0EAEFF2E1E8
:1025F0000C948010EC01009721F4CB010E94D311C0
:10260000B4C0FC01E60FF71F9C0122503109E2170C
:10261000F30708F4A8C0D9010D911C911197061772
:102620001707B0F00530110508F49BC0C8010497E6
:102630008617970708F495C002501109061B170B5F
:10264000019311936D937C93CF010E946B1289C00B
:102650005B01A01AB10A4C01800E911EA091DA0212
:10266000B091DB02612C712CE12CF12C109709F454
:1026700046C08D919C911197A815B905B1F56C01D3
:1026800042E0C40ED11CCA14DB0478F14C018A1854
:102690009B08640142E0C40ED11C1296BC901297B4
:1026A0001396AC91B5E0CB16D10440F0B282A3836F
:1026B00091828082D9016D937C9309C00E5F1F4F78
:1026C000800F911FF90191838083EB2DFA2FE11484
:1026D000F10431F0D7011396FC93EE93129741C0A9
:1026E000F093DB02E093DA023CC06816790608F446
:1026F0003C017D0112960D90BC91A02DB7CF809129
:10270000D8029091D90288169906E1F466167706E8
:10271000C8F48091040190910501009741F48DB7B0
:102720009EB74091080150910901841B950BE81751
:10273000F907C8F4F093D902E093D802F901718344
:1027400060830FC0CB010E94D3117C01009759F028
:10275000A801BE010E94BF13CE010E946B12C701E7
:1027600004C0CE0102C080E090E0CDB7DEB7EEE05D
:102770000C949C1081E090E0F8940C94CF13FB0132
:10278000DC0102C001900D9241505040D8F70895ED
:10279000FB01DC0101900D920020E1F70895F8940F
:0227A000FFCF69
:1027A200310131010000DC02800000000000C7019D
:1027B20034015E0114028F016D01810100000000ED
:1027C200CB029E02FB027202960282027302200078
:1027D2002273656E736F7231223A7B22666C6F7759
:1027E20072617465223A002C226C6576656C223A1D
:1027F200002C2274696D65223A007D000D0A0000EA
:00000001FF
