:100000000C9404010C9470040C9449040C941F0586
:100010000C941F050C941F050C942C010C942C01BE
:100020000C942C010C942C010C942C010C942C019C
:100030000C942C010C942C010C942C010C942C018C
:100040000C94FF080C942C010C94ED040C94C70440
:100050000C942C010C942C010C942C010C942C016C
:100060000C9499050C942C016F0B840B840B830B5F
:10007000840B610B840B840B840B630B840B840B4C
:10008000760B810B7F0B840B840B840B7D0B004064
:100090007A10F35A00A0724E18090010A5D4E80097
:1000A00000E87648170000E40B54020000CA9A3BAF
:1000B000000000E1F5050000809698000000404235
:1000C0000F000000A08601000000102700000000C3
:1000D000E803000000006400000000000A000000C7
:1000E00000000100000000002C76D888DC674F0873
:1000F00023DFC1DFAE59E1B1B796E5E3E453C63A79
:10010000E651997696E8E6C28426EB898C9B62EDEF
:10011000407C6FFCEFBC9C9F40F2BAA56FA5F490A9
:10012000055A2AF75C936B6CF9676DC11BFCE0E420
:100130000D47FEF520E6B500D0ED902E0300943576
:1001400077050080841E080000204E0A000000C8C9
:100150000C333333330F986E12831141EF8D21141A
:10016000893BE65516CFFEE6DB18D1844B381BF7EA
:100170007C1D901DA4BBE424203284725E22810089
:10018000C9F124ECA1E53D2731333A32383A313810
:10019000004A616E2032342032303139001F1C1F7A
:1001A0001E1F1E1F1F1E1F1E1F00000000240027F1
:1001B000002A0000000008000201000003040700FC
:1001C00000000000000000000000002300260029BD
:1001D0000000000000250028002B00040404040493
:1001E00004040402020202020203030303030301E4
:1001F00002040810204080010204081020010204BB
:10020000081020008E10721011241FBECFEFD8E00E
:10021000DEBFCDBF25E0AAEDB3E001C01D92AB3B30
:10022000B207E1F713E0A0E0B1E0EAE0F1E302C0D9
:1002300005900D92AA3DB107D9F711E0C3E0D1E0D6
:1002400004C02197FE010E947616C230D107C9F77B
:100250000E948E090C9478180C9400000895CF9297
:10026000DF92EF92FF920F931F93CF93DF936C0176
:100270007A018B01C0E0D0E0CE15DF0581F0D80116
:100280006D918D01D601ED91FC910190F081E02DF1
:10029000C6010995892B11F02196EECF7E01C70189
:1002A000DF91CF911F910F91FF90EF90DF90CF9052
:1002B0000895FC01538D448D252F30E0842F90E06C
:1002C000821B930B541710F0CF9608950197089551
:1002D000FC01918D828D981761F0828DDF01A80F4E
:1002E000B11D5D968C91928D9F5F9F73928F90E070
:1002F00008958FEF9FEF0895FC01918D828D9817DF
:1003000031F0828DE80FF11D858D90E008958FEF1B
:100310009FEF0895FC01918D228D892F90E0805CE4
:100320009F4F821B91098F73992708958AEE94E05D
:100330000E948A0121E0892B09F420E0822F089590
:10034000FC01848DDF01A80FB11DA35ABF4F2C9172
:10035000848D90E001968F739927848FA689B78941
:100360002C93A089B1898C91837080648C93938D38
:10037000848D981306C00288F389E02D80818F7DDB
:1003800080830895EF92FF920F931F93CF93DF9393
:10039000EC0181E0888F9B8D8C8D981305C0E889D6
:1003A000F989808185FD26C0F62E0B8D10E00F5F48
:1003B0001F4F0F731127E02E8C8DE8120CC00FB663
:1003C00007FCFACFE889F989808185FFF5CFCE0156
:1003D0000E94A001F1CF8B8DFE01E80FF11DE35AC1
:1003E000FF4FF0829FB7F8940B8FEA89FB898081D9
:1003F00080620AC09FB7F894EE89FF896083E8891C
:10040000F98980818370806480839FBF81E090E060
:10041000DF91CF911F910F91FF90EF900895CF93AF
:10042000DF93EC01888D8823C9F0EA89FB898081FC
:1004300085FD05C0A889B9898C9186FD0FC00FB6CE
:1004400007FCF5CF808185FFF2CFA889B9898C910F
:1004500085FFEDCFCE010E94A001E7CFDF91CF91C4
:10046000089580E090E0892B29F00E949601811187
:100470000C94000008952091DC033091DD032817CF
:10048000390771F49091DA038091DB03981741F0FA
:10049000E091DA03F0E0E75CFB4F808190E00895A3
:1004A0008FEF9FEF089508951F93CF93DF93DC01A3
:1004B0005C968D919C915D97009739F421E030E036
:1004C00013963C932E9312973BC05196ED91FC915D
:1004D000529750962C915097322F30951FB75E96B9
:1004E0004C915E97742F727041FD6095F894408135
:1004F000772311F0422B01C043234083EC01219765
:10050000F1F748E0508160FF02C0522B01C0532335
:100510005083EC012197F1F76695415099F780815E
:10052000772319F08323808302C0282B20831FBFE9
:100530005C968D919C915D970197F1F781E090E039
:10054000DF91CF911F9108952091DC033091DD035D
:100550002817390771F48091DB032091DA0390E0CA
:10056000805C9F4F821B910960E470E00E944016FE
:10057000089580E090E008952091DC033091DD0340
:1005800028173907B9F49091DA038091DB039817A3
:1005900089F0E091DA03F0E0E75CFB4F8081209185
:1005A000DA0330E02F5F3F4F2F7333272093DA03B6
:1005B00090E008958FEF9FEF089585ED8093BC0044
:1005C0008091BC0084FDFCCF1092C5040895409139
:1005D0001604262F30E0240F311D21323105DCF4C2
:1005E0002091C5042430C9F4FC0180E090E0861716
:1005F00058F4309116042191DC01AA50BC4FA30F8E
:10060000B11D2C930196F3CF80911604680F60936F
:10061000160480E0089581E0089582E00895089529
:100620000895E0917E0480917D04E81730F4F0E0B5
:10063000E158FB4F808190E008958FEF9FEF089580
:1006400090917E0480917D04981750F4E92FF0E09A
:10065000E158FB4F208130E09F5F90937E0402C001
:100660002FEF3FEFC901089580917D0490E0209124
:100670007E04821B91090895CF92DF92EF92FF9240
:100680000F931F93CF93DF937C01CB018A012091BD
:10069000C604222389F0EB016B01C40ED51ECC15D4
:1006A000DD0569F06991D701ED91FC910190F08130
:1006B000E02DC7010995F3CF642F0E94E702C8011E
:1006C000DF91CF911F910F91FF90EF90DF90CF902E
:1006D0000895CF93DF931F92CDB7DEB76983209142
:1006E000C6042223D1F02091E904203240F021E019
:1006F00030E0FC013383228380E090E015C08091DC
:10070000C704E82FF0E0E853FB4F998190838F5F97
:100710008093C7048093E90405C061E0CE0101968F
:100720000E94E70281E090E00F90DF91CF91089561
:10073000089580E090E008958091E2039091E303B2
:1007400001969093E3038093E20308950E94631857
:100750000F931F93CF93DF93EC01888199810097CA
:1007600029F02A813B812617370788F48B016F5FB8
:100770007F4F0E949D17009761F0998388831B83A8
:100780000A832C813D81232B11F4FC01108281E02E
:1007900001C080E0DF91CF911F910F910895EF92FA
:1007A000FF920F931F93CF93DF936115710511F49F
:1007B00080E01CC041155105C1F07B01EC018C812A
:1007C0009D818A01080F191FB801CE010E94A8035C
:1007D000882371F3288139818C819D81B701820F33
:1007E000931F0E9471181D830C8381E0DF91CF91CC
:1007F0001F910F91FF90EF900895CF93DF93EC013D
:1008000088819981009711F00E941417198218822B
:100810001D821C821B821A82DF91CF910895CF9393
:10082000DF93EC016115710561F0FB01019000207F
:10083000E9F73197AF01461B570B0E94CF03811197
:1008400003C0CE010E94FD03CE01DF91CF91089538
:10085000EF92FF920F931F93CF93DF93EC017B01F5
:100860008A01BA010E94A803811104C0CE010E942E
:10087000FD0307C01D830C83B701888199810E9405
:100880007118CE01DF91CF911F910F91FF90EF90E2
:1008900008951F920F920FB60F9211242F933F933A
:1008A0004F935F936F937F938F939F93AF93BF9378
:1008B000EF93FF93E0915601F09157010995FF9155
:1008C000EF91BF91AF919F918F917F916F915F91C8
:1008D0004F913F912F910F900FBE0F901F90189541
:1008E0001F920F920FB60F9211242F933F934F93A5
:1008F0005F936F937F938F939F93AF93BF93EF9388
:10090000FF93E0915401F09155010995FF91EF910A
:10091000BF91AF919F918F917F916F915F914F9117
:100920003F912F910F900FBE0F901F901895DC01F3
:10093000ED91FC910190F081E02D09946115710514
:1009400079F0FB0101900020E9F73197AF01461BD8
:10095000570BDC01ED91FC910280F381E02D0994AD
:1009600080E090E008950F931F93CF93DF93EC0105
:100970000E949E048C0169EC71E0CE010E949E04ED
:10098000800F911FDF91CF911F910F9108951F92BA
:100990000F920FB60F9211242F933F934F935F93B3
:1009A0006F937F938F939F93AF93BF93EF93FF9337
:1009B0008AEE94E00E94A001FF91EF91BF91AF9168
:1009C0009F918F917F916F915F914F913F912F9167
:1009D0000F900FBE0F901F9018951F920F920FB699
:1009E0000F9211242F938F939F93EF93FF93E09196
:1009F000FA04F091FB048081E0910005F09101057B
:100A000082FD12C09081809103058F5F8F732091CA
:100A10000405821751F0E0910305F0E0E651FB4F29
:100A2000958F8093030501C08081FF91EF919F9185
:100A30008F912F910F900FBE0F901F9018951F92BE
:100A40000F920FB60F9211242F933F934F935F9302
:100A50006F937F938F939F93AF93BF93EF93FF9386
:100A6000E091DC03F091DD03309709F451C0968DDD
:100A7000A685B785858591FF04C09C91892329F4BB
:100A800047C09C91892309F043C0A389B4899C91F4
:100A90008589809589238C93868997890197F1F7B9
:100AA000608D718DA685B785558538E020E0CB0136
:100AB0000197F1F7822F90E095958795282F4C911B
:100AC000452309F02068315091F7868D81FD2095EE
:100AD0008091DB0390E001968F7399273091DA03C0
:100AE000381749F0A091DB03B0E0A75CBB4F2C9313
:100AF0008093DB0303C0868D8160868F828D938D0A
:100B00000197F1F7A389B4899C918589892B8C93EE
:100B1000FF91EF91BF91AF919F918F917F916F91D5
:100B20005F914F913F912F910F900FBE0F901F90AB
:100B300018951F920F920FB60F9211242F933F9387
:100B40004F935F936F937F938F939F93AF93BF93D5
:100B5000EF93FF938091B900887F803609F49CC0A1
:100B600068F5883209F45BC090F4803109F454C010
:100B700038F4882309F4F6C0883009F44DC0F6C073
:100B8000883109F44CC0803209F45DC0EFC0803474
:100B900009F468C048F4803309F455C0883309F07B
:100BA000E5C08093C304D8C0803509F44FC08835B0
:100BB00009F45DC0883409F0D9C0D6C0883909F479
:100BC000C7C0A8F4883709F467C038F4883609F438
:100BD00063C0803709F460C0C9C0883809F4B8C060
:100BE000803909F45FC0803809F0C0C05BC0803B29
:100BF00009F486C038F4803A09F466C0883A09F4EA
:100C00007FC0B4C0803C09F4A7C0883C09F4A4C0EC
:100C1000883B09F48AC0AAC08091A00410C09091BA
:100C2000C2048091C104981770F5E091C20481E07C
:100C30008E0F8093C204F0E0EF55FB4F80818093CC
:100C4000BB0085EC86C08093C3048EC0E091C204D3
:100C500081E08E0F8093C2048091BB00F0E0EF55DD
:100C6000FB4F80839091C2048091C1046EC0E091DB
:100C7000C20481E08E0F8093C2048091BB00F0E03B
:100C8000EF55FB4F80838091C40481116DC081E0DA
:100C900080939F0484EA61C083E08093C50410922E
:100CA0003804CFCF80913804803208F051C0E091F1
:100CB000380481E08E0F809338048091BB00F0E00F
:100CC000E85EFB4F8083BDCF85EC8093BC00109223
:100CD000C50480913804803230F4E0913804F0E0AB
:100CE000E85EFB4F10826091380470E0E091DE0313
:100CF000F091DF0388E194E009951092380436C042
:100D000084E08093C5041092170410921604E091B9
:100D1000E003F091E103099580911604811105C06B
:100D200081E0809316041092F603E091170481E0AD
:100D30008E0F80931704F0E0EA50FC4F808180937F
:100D4000BB009091170480911604981708F479CF8E
:100D500085E88093BC000AC085EC8093BC001092AB
:100D6000C50404C01092C3040E94DD02FF91EF91FC
:100D7000BF91AF919F918F917F916F915F914F91B3
:100D80003F912F910F900FBE0F901F9018953FB776
:100D9000F8948091B3059091B405A091B505B091F8
:100DA000B60526B5A89B05C02F3F19F00196A11DD9
:100DB000B11D3FBFBA2FA92F982F8827820F911DF1
:100DC000A11DB11DBC01CD0142E0660F771F881F38
:100DD000991F4A95D1F708958230D8F4E82FF0E0B2
:100DE000EE0FFF1FEC5AFE4F2CE933E031832083D6
:100DF000813041F0809169008C7F8260809369002E
:100E0000E89A089580916900837F886080936900E3
:100E1000E99A0895282F3091E904313208F04AC048
:100E20008091C5048111FCCF9091E80442E0409389
:100E3000C5042093C4042FEF2093C3041092C2046E
:100E40003093C104E8ECF4E0A1EAB4E020E032170A
:100E500021F041914D932F5FFACF1092A004209181
:100E6000A004990F922B9093A00490919F0491302D
:100E700061F410929F049091A0049093BB00909114
:100E8000BC0093FDF8CF95EC01C095EE9093BC00AB
:100E90009091C5049230E1F39091C3049F3F79F0A3
:100EA0008091C304803241F08091C304803331F0DB
:100EB00084E005C081E003C082E001C083E01092BD
:100EC000C7041092E9041092C60408959091C504D5
:100ED0009111FCCF982F813208F090E281E080934D
:100EE000C5048093C4042FEF2093C3041092C2045E
:100EF000290F2093C1048093A0048091A004806DE9
:100F00008093A00480919F04813061F410929F042B
:100F10008091A0048093BB008091BC0083FDF8CF3A
:100F200085EC01C085EE8093BC008091C5048130C2
:100F3000E1F38091C204891710F49091C204E1EAB0
:100F4000F4E0AFE7B4E080E0891721F021912D9320
:100F50008F5FFACF10927E0480937D040895EF9204
:100F6000FF920F931F93CF93DF93CDB7DEB7A19777
:100F70000FB6F894DEBF0FBECDBF7C01CB01BA0126
:100F8000F7011182108213821282158214828E015F
:100F90000F5F1F4F22E044E00E944B11009769F061
:100FA000FC0101900020E9F73197AF01481B590B74
:100FB000BC01C7010E94280403C0C7010E94FD03B1
:100FC000A1960FB6F894DEBF0FBECDBFDF91CF91D3
:100FD0001F910F91FF90EF9008958F929F92AF9283
:100FE000BF920F931F93CF93DF93CDB7DEB7A19737
:100FF0000FB6F894DEBF0FBECDBF19A2423008F481
:101000004AE08E010F5D1F4F842E912CA12CB12C34
:10101000A50194010E945416E62FB901CA0101509E
:101020001109EA3014F4E05D01C0E95CD801EC93E9
:10103000232B242B252B61F7B8018AEE94E00E9424
:101040009E04A1960FB6F894DEBF0FBECDBFDF9110
:10105000CF911F910F91BF90AF909F908F90089567
:10106000682F70E080E090E04AE00C94ED07BC014E
:101070008AEE94E00C949E0490E0FC01ED54FE4F47
:101080002491FC01E151FE4F3491FC01E552FE4FE9
:10109000E491EE2309F43CC0222339F1233091F08E
:1010A00038F42130A9F0223001F584B58F7D12C0CB
:1010B000273091F02830A1F02430B9F480918000DD
:1010C0008F7D03C0809180008F77809380000DC05A
:1010D00084B58F7784BD09C08091B0008F7703C03D
:1010E0008091B0008F7D8093B000F0E0EE0FFF1F85
:1010F000EF52FE4FA591B4919FB7F894611104C0CF
:101100008C913095382302C0EC913E2B3C939FBFCD
:101110000895CF93DF9390E0FC01E151FE4F2491BD
:10112000FC01E552FE4F8491882361F190E0880F25
:10113000991FFC01E755FE4FC591D491FC01EF5278
:10114000FE4FA591B491611109C09FB7F8948881B1
:10115000209582238883EC912E230BC0623061F4AA
:101160009FB7F8948881322F309583238883EC9140
:101170002E2B2C939FBF06C08FB7F894E8812E2B9F
:1011800028838FBFDF91CF9108958F929F92AF9266
:10119000BF92CF92DF92EF92FF926B017C010E948F
:1011A000C7064B015C01C114D104E104F104F1F064
:1011B0000E94C706DC01CB0188199909AA09BB095D
:1011C000883E9340A105B10570F321E0C21AD10811
:1011D000E108F10888EE880E83E0981EA11CB11C7E
:1011E000C114D104E104F10419F7DDCFFF90EF90B1
:1011F000DF90CF90BF90AF909F908F9008951F92F7
:101200000F920FB60F9211242F933F938F939F93BA
:10121000AF93BF938091790490917A04A0917B045D
:10122000B0917C043091B20523E0230F2D3720F4D8
:101230000196A11DB11D05C026E8230F0296A11D30
:10124000B11D2093B2058093790490937A04A09302
:101250007B04B0937C048091B3059091B405A09178
:10126000B505B091B6050196A11DB11D8093B305DA
:101270009093B405A093B505B093B605BF91AF9117
:101280009F918F913F912F910F900FBE0F901F90C4
:101290001895CF92DF92EF92FF920F931F93E82F52
:1012A000F92F05C0015011092109310961F190811F
:1012B00096239417B9F305C001501109210931098A
:1012C00011F1908196239413F7CFC12CD12CE12CEE
:1012D000F12C0AC08FEFC81AD80AE80AF80A0C15D0
:1012E0001D052E053F0579F080818623841791F333
:1012F0006C2D7D2D8E2D9F2D1F910F91FF90EF90C6
:10130000DF90CF90089560E070E080E090E01F9162
:101310000F91FF90EF90DF90CF900895CF93DF93E0
:10132000CDB7DEB76F970FB6F894DEBF0FBECDBF57
:10133000789484B5826084BD84B5816084BD85B5B0
:10134000826085BD85B5816085BD80916E008160BC
:1013500080936E0010928100809181008260809362
:101360008100809181008160809381008091800064
:101370008160809380008091B10084608093B1008F
:101380008091B00081608093B00080917A00846089
:1013900080937A0080917A00826080937A008091B5
:1013A0007A00816080937A0080917A0080688093CF
:1013B0007A001092C1001092AE051092AD05109205
:1013C000AC051092AB051092AA051092A9058DE903
:1013D00091E09093B0058093AF0590919F05963171
:1013E00008F058C02DEB30E03093AA052093A905F2
:1013F0002BE931E03093AC052093AB052CE231E0D2
:101400003093AE052093AD0540916800983058F0B8
:1014100031E09E3008F430E021E0822F01C0880FD7
:101420003A95EAF701C084E0842B809368009830F5
:1014300038F09E3040F0963148F020E030E008C0AF
:101440002DE630E005C02BE630E002C02CE630E0AF
:101450003093A7052093A605983030F481E001C0B1
:10146000880F9A95EAF70EC0292F30E09E3018F4C5
:101470002850310902C02E50310981E001C0880F87
:101480002A95EAF78093A8058091AF059091B00561
:101490000197F1F78091AD059091AE05892B49F147
:1014A000E091DC03F091DD0325E0E339F20709F177
:1014B000309739F0A389B4899C91858980958923D7
:1014C0008C938091B1058E7F8093B1051092DB03E0
:1014D0001092DA0383E995E09093DD038093DC03B7
:1014E000E091A605F091A70590818091A805892B30
:1014F0008083E091FA04F091FB0482E08083E09124
:10150000F604F091F7041082E091F804F091F904E8
:101510008FEC808310920205E091FE04F091FF04AD
:1015200086E08083E091FC04F091FD04808180617D
:101530008083E091FC04F091FD04808188608083C9
:10154000E091FC04F091FD04808180688083E0914B
:10155000FC04F091FD0480818F7D808360E08BE04E
:101560000E94890861E08DE00E94890860E082E0C5
:101570000E94890861E082E00E943C0861E086E008
:101580000E94890861E088E00E94890861E087E0A4
:101590000E9489081092E3031092E2031092EA037A
:1015A0001092EB031092EC031092ED031092E903FA
:1015B0001092E8031092E4031092E5031092E60300
:1015C0001092E7031092EE031092EF031092F003D3
:1015D0001092F10364E670E080E090E00E94C5089C
:1015E00010927E0410927D041092C7041092E904B8
:1015F0001092C50401E00093C40410929F0461E0BE
:1016000082E10E943C0861E083E10E943C088091F5
:10161000B9008E7F8093B9008091B9008D7F80934F
:10162000B90088E48093B80085E48093BC008FE023
:1016300093E09093E1038093E00380E193E0909343
:10164000DF038093DE030093C60488E68093E804FA
:101650001092C7041092E90460E087E895E00E94C8
:10166000690381E00E940A0781E090E00E9466071A
:1016700087E895E00E94200387FFCDC064E971E010
:101680008AEE94E00E94B3044BE050E061E971E01F
:10169000CE0101960E946B11CE010A960E94651040
:1016A000082FE9814E2FEE0F550B660B770BFA01D1
:1016B000E154F109E331F10538F5EC5CFF4F0C948E
:1016C000761612E021C08A81813639F08B818E3600
:1016D00011F017E019C016E017C011E015C08B819A
:1016E000823711F018E010C014E00EC08B818237F1
:1016F00011F015E009C013E007C019E005C01AE0B9
:1017000003C01BE001C01CE0CE0105960E946510DD
:10171000E82E48E050E068E871E0CE0101960E94B2
:101720006B11CE0101960E946510D82ECE01049651
:101730000E946510C82ECE0107960E946510B82E33
:1017400081E08093C60488E68093E8041092C70481
:101750001092E90460E087E895E00E9469038AE05E
:10176000F82E8B2D6F2D0E942016682F660F860F86
:10177000880F682F6B0D87E895E00E9469038C2D18
:101780006F2D0E942016682F660F860F880F682F16
:101790006C0D87E895E00E9469038D2D6F2D0E94E6
:1017A0002016682F660F860F880F682F6D0D87E84B
:1017B00095E00E94690360E087E895E00E94690374
:1017C0008E2D6F2D0E942016682F660F860F880FB2
:1017D000682F6E0D87E895E00E946903812F6F2DB9
:1017E0000E942016682F660F680F660F610F87E84A
:1017F00095E00E946903802F6F2D0E942016682FAC
:10180000660F680F660F600F87E895E00E94690316
:1018100081E00E940A0780E00E94EC0668EA71E01D
:1018200083E995E00E94B304BEE2AB2EB1E0BB2E8B
:101830001AEF512EAE01485E5F4F5F8F4E8F61E011
:1018400086E00E943C0860E08DE00E943C088BE34B
:101850009FE10197F1F761E08DE00E943C0887E38A
:1018600090E00197F1F760E08DE00E943C08EAEF1C
:10187000F1E06491E6EEF1E08491E82FF0E0EE0F04
:10188000FF1FE953FE4F8591949100E412E42FE08D
:1018900030E0462F0E9449096115710581059105C7
:1018A00049F0DC01CB010196A11DB11DBC01CD01A8
:1018B0009F7003C060E070E0CB010E94AB1320E09A
:1018C00034E244E759E40E946E1520E030E84BEA28
:1018D00053E40E940C1420E030E040E05FE30E94FB
:1018E0000C146093F2037093F3038093F4039093CA
:1018F000F5038BEA91E00E943708C090F203D09084
:10190000F303E090F403F090F503A7019601C701FB
:10191000B6010E941B16882319F06DEB71E01AC006
:1019200036014701E89497F82FEF3FEF4FE75FE765
:10193000C401B3010E941B16811111C02FEF3FEFAC
:101940004FE75FE7C401B3010E94A61318163CF4E9
:1019500061EC71E08AEE94E00E949E0476C02FEF65
:101960003FEF4FE75FE4C701B6010E941616181655
:101970001CF465EC71E0EECF2FEF3FEF4FE75FEC2B
:10198000C701B6010E94A61387FDF3CF20E030E027
:10199000A901C701B6010E94A61387FF09C06DE225
:1019A0008AEE94E00E949704F7FAF094F7F8F09426
:1019B0002AE037ED43EA5BE3C701B6010E94021556
:1019C0006B017C010E94E7153B014C010E94AB13A7
:1019D0009B01AC01C701B6010E9401156B017C019E
:1019E0004AE0C401B3010E94ED076EE28AEE94E082
:1019F0000E94970420E030E040E251E4C701B601C4
:101A00000E940C143B014C010E94E7156B01E12C74
:101A1000F12C4AE0C701B6010E94ED07C701B601EB
:101A20000E94AB139B01AC01C401B3010E940115DC
:101A300020E030E040E251E40E940C140E94E715DF
:101A400080E090E04AE00E94ED0769EC71E08AEEE8
:101A500094E00E949E042FB7F894809179049091AD
:101A60007A04A0917B04B0917C042FBF4091EE03D7
:101A70005091EF036091F0037091F103841B950B7B
:101A8000A60BB70B893E9340A105B10508F40CC124
:101A9000E898B0925501A09254012FB7F894809124
:101AA000790490917A04A0917B04B0917C042FBFBB
:101AB0000091EE031091EF032091F0033091F103B8
:101AC000BC01CD01601B710B820B930B0E94AB1309
:101AD0009B01AC0160E070E08AE794E40E946E151F
:101AE0003B014C016091E2037091E303072E000C6F
:101AF000880B990B0E94AD139B01AC01C401B3018B
:101B00000E940C1420E030E040E950E40E946E1581
:101B10006093EA037093EB038093EC039093ED03DF
:101B20002FB7F8948091790490917A04A0917B0466
:101B3000B0917C042FBF8093EE039093EF03A093AA
:101B4000F003B093F10320E030E040E752E460910D
:101B5000EA037091EB038091EC039091ED030E94F6
:101B60006E1520E030E04AE754E40E940C140E9415
:101B7000E7157093E9036093E8030091E403109183
:101B8000E5032091E6033091E703D901C801860FF0
:101B9000971FA11DB11D8093E4039093E503A093CB
:101BA000E603B093E7038CEC91E00E943708609164
:101BB000EA037091EB038091EC039091ED030E9496
:101BC000E0153B01770F8808990897FE0EC06DE27B
:101BD0008AEE94E00E94970466277727CB01661966
:101BE0007709880999094AE003C04AE0C401B301B2
:101BF0000E94ED0788ED91E00E9437086090EA03AB
:101C00007090EB038090EC039090ED03C401B3015E
:101C10000E94E015072E000C880B990B0E94AD1353
:101C20009B01AC01C401B3010E94011520E030E02A
:101C300040E251E40E940C140E94E71580E090E01D
:101C40004AE00E94ED078AED91E00E94370880EE9D
:101C500091E00E9437086091E8037091E90380E009
:101C600090E04AE00E94ED078BEF91E00E94370878
:101C700082E092E00E9437086091E4037091E503EE
:101C80008091E6039091E7034AE00E94ED076DE141
:101C900072E08AEE94E00E94B3041092E303109283
:101CA000E20380E00E94EC0681E08093C60428E60F
:101CB0002093E8041092C7041092E90460E087E8DA
:101CC00095E00E94690381E00E940A0787E090E0A6
:101CD0000E94660787E895E00E9420038F77982F7F
:101CE00092959F70482E959D400C112487E895E0B1
:101CF0000E9420039C01332794E0359527959A95FF
:101D0000E1F7382E529E300C112487E895E00E94AE
:101D100020039C01332744E0359527954A95E1F748
:101D2000282E529E200C112487E895E00E94200363
:101D300087E895E00E9420039C01332754E0359505
:101D400027955A95E1F7182F529E100D112487E818
:101D500095E00E9420039C01332764E03595279588
:101D60006A95E1F7082F529E000D112487E895E04F
:101D70000E9420039C01332774E0359527957A95BE
:101D8000E1F7529E800D1124E82EF12C370130E34B
:101D9000631A38EF730AB301072C000C880B990BF8
:101DA0004AE00E94ED076FE28AEE94E00E949704F9
:101DB000802F0E9430086FE28AEE94E00E94970420
:101DC000812F0E94300880E292E00E943708212F84
:101DD00030E0EDE9F1E081E0801730F49491290FD3
:101DE000311D8F5F3196F8CF033038F0C701837013
:101DF0009927892B11F42F5F3F4F4DEC641A47E070
:101E0000740A7694679476946794EDE6F1E0EE9E1A
:101E1000C001EF9E900DFE9E900D1124860D971D22
:101E20000596820F931F67E070E00E942C164CE02D
:101E3000489F9001499F300D1124C90180509F4F48
:101E40000E94370883E292E00E943708822D0E94A8
:101E500030086AE38AEE94E00E949704832D0E9482
:101E600030086AE38AEE94E00E949704842D0E9471
:101E7000300869EC71E08AEE94E00E949E0468EEFE
:101E800073E080E090E00E94C5088AEE94E00E9432
:101E90008A01181619060CF006C18AEE94E00E9419
:101EA00068018237910509F4F2C08337910509F082
:101EB000FAC061E088E00E943C0866E272E083E9D3
:101EC00095E00E94B3046DE083E995E00E949704D9
:101ED00069EC71E083E995E00E949E0468EE73E08E
:101EE00080E090E00E94C50862E372E083E995E03B
:101EF0000E94B30468EE73E080E090E00E94C508A1
:101F000066E472E083E995E00E94B30468EE73E052
:101F100080E090E00E94C50868E772E083E995E000
:101F20000E94B30468EE73E080E090E00E94C50870
:101F300065ED72E083E995E00E94B3046BEE72E018
:101F400083E995E00E94B30464E173E083E995E0DE
:101F50000E94B3046EE573E083E995E00E94B30448
:101F60004091EA035091EB036091EC037091ED0313
:101F7000CE0101960E94AF074091F2035091F30306
:101F80006091F4037091F503CE010C960E94AF07A7
:101F90001B8A1A8A1D8A1C8A1F8A1E8A4BE250E0FD
:101FA0006DE773E0CE0142960E9428044889598962
:101FB0006C857D85CE0142960E94CF03811104C0BD
:101FC000CE0142960E94FD0369EA73E0CE0142967B
:101FD0000E940F048C014D815E8169817A810E948B
:101FE000CF03811103C0C8010E94FD0366EB73E0BB
:101FF000C8010E940F04198E188E1B8E1A8E1D8E1A
:102000001C8E2E8D3F8D8217930761F0FC0160813D
:1020100071816115710531F044815581CE01489679
:102020000E9428048A899B890E9414178C859D85AB
:102030000E94141789819A810E9414174C8D5D8D1E
:10204000688D798D83E995E00E942F0169EC71E03C
:1020500083E995E00E949E046BEE72E083E995E0CF
:102060000E94B30468EB73E083E995E00E94B30437
:1020700068EE73E080E090E00E94C508888D998D3D
:102080000E94141760E088E00E943C080CC068ECD5
:1020900073E083E995E00E94B30468EE73E080E0AA
:1020A00090E00E94C50883E995E00E94A402892B74
:1020B00049F083E995E00E94BC02682F8AEE94E023
:1020C0000E94C2010E943102BACBFC019081905360
:1020D0009A3008F090E0818180532AE0929F800D31
:1020E0001124089586E891E09093940580939305D8
:1020F0008091DC039091DD038359954071F4E09168
:10210000A605F091A70590818091A8058095892367
:1021100080831092DD031092DC0308951092ED0489
:102120001092EC0488EE93E0A0E0B0E08093EE041F
:102130009093EF04A093F004B093F10422E631E011
:102140003093EB042093EA0425EC30E03093F7045D
:102150002093F60424EC30E03093F9042093F80443
:1021600020EC30E03093FB042093FA0421EC30E0C3
:102170003093FD042093FC0422EC30E03093FF0404
:102180002093FE0426EC30E03093010520930005F7
:102190001092030510920405109205051092060591
:1021A00010928A051092890580938B0590938C0577
:1021B000A0938D05B0938E0524E731E03093880518
:1021C00020938705109296051092950580939705A8
:1021D00090939805A0939905B0939A0586E891E0AD
:1021E00090939405809393051092AA051092A905E7
:1021F0001092AC051092AB051092AE051092AD0591
:102200001092B0051092AF056091B1056E7F6D7FA1
:102210006093B1056695617081E068278AE00E944D
:102220003C0861E08AE00E948908E9EFF1E0E4916E
:10223000E093A305E5EEF1E0E491F0E0EE0FFF1F7F
:10224000EF52FE4F859194919093A5058093A4053C
:1022500060E089E00E9489088091B10581FD04C099
:1022600061E089E00E943C0889E080939F05E8EFE7
:10227000F1E0E491E093A005E4EEF1E0E491F0E018
:10228000EE0FFF1FE953FE4F859194919093A205A5
:102290008093A1050895EF920F931F93CF93DF933F
:1022A000E80147FD02C034E001C034E1042E000C17
:1022B000550B57FF03C0519541955109E32E022F4D
:1022C000242FAE010E947411CE01DF91CF911F9196
:1022D0000F91EF900895FB01DC0102C005900D9273
:1022E00041505040D8F70895A9E0B0E0EAE7F1E1A5
:1022F0000C94D0146A01122FB02E2BE3201720F07B
:10230000FF24F394F00E02C02CE3F22E0F2D27E0F1
:10231000AE014F5F5F4F0E94CE12BC014981842FF6
:102320008970813031F0E1FC06C0E0FE06C090E229
:1023300005C09DE203C09BE201C090E05E2D50719C
:1023400043FF3CC0911102C083E001C084E08117CB
:1023500018F4212F281B01C020E051110BC0F601F9
:10236000822F30E2882319F031938150FBCFC20EC7
:10237000D11C20E0992329F0D6019C93F6013196D7
:102380006F01C6010396E2FE0AC03EE4D6013C930B
:1023900041E411964C93119712963C9306C03EE689
:1023A000F601308341E641833283FC01322F40E263
:1023B000332309F442C041933150FACF42FF44C065
:1023C000911102C083E001C084E0811718F4212F2D
:1023D000281B01C020E051110BC0F601822F30E212
:1023E000882319F031938150FBCFC20ED11C20E01D
:1023F000992329F0D6019C93F60131966F01C6010D
:102400000396E2FE0BC039E4D6013C933EE41196FC
:102410003C93119736E412963C9307C039E6F601D7
:1024200030833EE6318336E63283FC01322F40E2D0
:10243000332319F041933150FBCFFC01E20FF11D22
:1024400010828EEF9FEFA6C021E030E0911102C014
:1024500020E030E0161617061CF4FB01319602C08E
:10246000E1E0F0E02E0F3F1FBB2021F0EB2DF0E06C
:10247000319602C0E0E0F0E02E0F3F1FE12FF0E0C8
:102480002E173F071CF4121B212F01C020E08E2DB8
:10249000887159F4F601822F30E2882319F03193C4
:1024A0008150FBCFC20ED11C20E0992329F0D60128
:1024B0009C93F60131966F0151110BC0F601822FEA
:1024C00090E3882319F091938150FBCFC20ED11C69
:1024D00020E00F2D060F9A81342F307144FF03C086
:1024E000913309F40150101624F4093018F008E073
:1024F00001C001E0AB0177FF02C040E050E0FB010A
:10250000E41BF50BA1E0B0E0AC0FBD1FEA0FFB1F11
:102510008EE2A82E4B01801A91080B2D10E0119528
:10252000019511094F3FBFEF5B0721F4D601AC9233
:1025300011966D01641775072CF08416950614F436
:10254000818101C080E3415051093196D601119635
:102550007D014017510724F0D6018C936701E2CF2B
:102560006417750739F4963320F4953319F4311153
:1025700001C081E3F6018083F701822F90E2882376
:1025800019F091938150FBCFF701E20FF11D1082FA
:1025900080E090E02996ECE00C94EC14283008F0F0
:1025A00027E03327DA01990F311D87FD91600096EE
:1025B0006105710539F432602E5F3D9330E32A9551
:1025C000E1F708959F3F30F080387105610509F00B
:1025D0003C5F3C5F3D93913008F08068911DDF9334
:1025E000CF931F930F93FF92EF92192F987F969599
:1025F000E92F96959695E90FFF27E851FF4F992708
:102600003327EE24FF24A701E701059008940794DF
:1026100028F4360FE71EF81E491F511D660F771F5D
:10262000881F991F0694A1F70590079428F4E70ED8
:10263000F81E491F561FC11D770F881F991F661F5F
:102640000694A1F70590079428F4F80E491F561F29
:10265000C71FD11D880F991F661F771F0694A1F70A
:102660000590079420F4490F561FC71FD81F990FD4
:10267000661F771F881F0694A9F78491109517701D
:1026800041F0D695C79557954795F794E7941A95D5
:10269000C1F7EEE8F0E068941590159135916591D9
:1026A000959105907FE27395E118F10A430B560B63
:1026B000C90BD009C0F7E10CF11E431F561FC91FFB
:1026C000D01D7EF4703311F48A95E6CFE894015062
:1026D00030F0080F0AF40027021708F4202F239582
:1026E000022F7A3328F079E37D932A95E9F710C019
:1026F0007D932A9589F60694979567953795179552
:102700001794E118F10A430B560BC90BD00998F046
:1027100023957E9173957A3308F070E37C932013B0
:10272000B8F77E9170617D9330F0839571E37D936E
:1027300070E32A95E1F71124EF90FF900F911F911C
:10274000CF91DF91992787FD909508950E94E81316
:1027500008F481E00895E89409C097FB3EF4909551
:102760008095709561957F4F8F4F9F4F9923A9F06A
:10277000F92F96E9BB279395F695879577956795F9
:10278000B795F111F8CFFAF4BB0F11F460FF1BC03D
:102790006F5F7F4F8F4F9F4F16C0882311F096E9D0
:1027A00011C0772321F09EE8872F762F05C066237E
:1027B00071F096E8862F70E060E02AF09A95660F37
:1027C000771F881FDAF7880F9695879597F90895F0
:1027D000990F0008550FAA0BE0E8FEEF1616170632
:1027E000E807F907C0F012161306E407F50798F09A
:1027F000621B730B840B950B39F40A2661F0232BB3
:10280000242B252B21F408950A2609F4A140A6952E
:102810008FEF811D811D08950E941F140C94901448
:102820000E94821438F00E94891420F0952311F040
:102830000C9479140C947F1411240C94C4140E94E9
:10284000A11470F3959FC1F3950F50E0551F629F3F
:10285000F001729FBB27F00DB11D639FAA27F00DF9
:10286000B11DAA1F649F6627B00DA11D661F829F20
:102870002227B00DA11D621F739FB00DA11D621F05
:10288000839FA00D611D221F749F3327A00D611D22
:10289000231F849F600D211D822F762F6A2F112404
:1028A0009F5750409AF0F1F088234AF0EE0FFF1F37
:1028B000BB1F661F771F881F91505040A9F79E3F8E
:1028C000510580F00C9479140C94C4145F3FE4F328
:1028D000983ED4F3869577956795B795F795E795E4
:1028E0009F5FC1F7FE2B880F911D9695879597F9ED
:1028F000089597F99F6780E870E060E008959FEF82
:1029000080EC089500240A94161617061806090686
:10291000089500240A941216130614060506089555
:10292000092E0394000C11F4882352F0BB0F40F4DD
:10293000BF2B11F460FF04C06F5F7F4F8F4F9F4F1D
:10294000089557FD9058440F551F59F05F3F71F09F
:102950004795880F97FB991F61F09F3F79F0879506
:102960000895121613061406551FF2CF4695F1DF8F
:1029700008C0161617061806991FF1CF869571051F
:10298000610508940895E894BB2766277727CB0153
:1029900097F908952F923F924F925F926F927F9294
:1029A0008F929F92AF92BF92CF92DF92EF92FF925F
:1029B0000F931F93CF93DF93CDB7DEB7CA1BDB0B0B
:1029C0000FB6F894DEBF0FBECDBF09942A883988B0
:1029D00048885F846E847D848C849B84AA84B984B7
:1029E000C884DF80EE80FD800C811B81AA81B981C3
:1029F000CE0FD11D0FB6F894DEBF0FBECDBFED01D7
:102A000008955058BB27AA270E9419150C949014BA
:102A10000E94821438F00E94891420F039F49F3FFC
:102A200019F426F40C947F140EF4E095E7FB0C9453
:102A30007914E92F0E94A11458F3BA17620773079B
:102A40008407950720F079F4A6F50C94C3140EF4CE
:102A5000E0950B2EBA2FA02D0B01B90190010C01AE
:102A6000CA01A0011124FF27591B99F0593F50F4C6
:102A7000503E68F11A16F040A22F232F342F44271E
:102A8000585FF3CF469537952795A795F040539516
:102A9000C9F77EF41F16BA0B620B730B840BBAF0E6
:102AA0009150A1F0FF0FBB1F661F771F881FC2F751
:102AB0000EC0BA0F621F731F841F48F48795779565
:102AC0006795B795F7959E3F08F0B0CF9395880F1F
:102AD00008F09927EE0F9795879508950E94821523
:102AE0000C9490140E94891458F00E94821440F0B3
:102AF00029F45F3F29F00C94791451110C94C414FB
:102B00000C947F140E94A11468F39923B1F3552308
:102B100091F3951B550BBB27AA27621773078407F0
:102B200038F09F5F5F4F220F331F441FAA1FA9F386
:102B300035D00E2E3AF0E0E832D091505040E69574
:102B4000001CCAF72BD0FE2F29D0660F771F881FD5
:102B5000BB1F261737074807AB07B0E809F0BB0BC8
:102B6000802DBF01FF2793585F4F3AF09E3F5105DC
:102B700078F00C9479140C94C4145F3FE4F3983EFD
:102B8000D4F3869577956795B795F7959F5FC9F7C5
:102B9000880F911D9695879597F90895E1E0660F46
:102BA000771F881FBB1F621773078407BA0720F0BF
:102BB000621B730B840BBA0BEE1F88F7E095089528
:102BC0000E94E7156894B1110C94C41408950E94F2
:102BD000A91488F09F5798F0B92F9927B751B0F0F2
:102BE000E1F0660F771F881F991F1AF0BA95C9F791
:102BF00014C0B13091F00E94C314B1E008950C9458
:102C0000C314672F782F8827B85F39F0B93FCCF30A
:102C1000869577956795B395D9F73EF4909580950D
:102C2000709561957F4F8F4F9F4F08950E94E813D5
:102C300008F48FEF08950E94E813880B990B08950C
:102C4000991B79E004C0991F961708F0961B881FFE
:102C50007A95C9F780950895AA1BBB1B51E107C05F
:102C6000AA1FBB1FA617B70710F0A61BB70B881F1C
:102C7000991F5A95A9F780959095BC01CD010895AB
:102C800097FB072E16F4009407D077FD09D00E9419
:102C90002C1607FC05D03EF4909581959F4F089522
:102CA000709561957F4F0895A1E21A2EAA1BBB1B58
:102CB000FD010DC0AA1FBB1FEE1FFF1FA217B30708
:102CC000E407F50720F0A21BB30BE40BF50B661F1E
:102CD000771F881F991F1A9469F7609570958095E2
:102CE00090959B01AC01BD01CF010895EE0FFF1F30
:102CF0000590F491E02D09940F931F93CF93DF93E8
:102D00008230910510F482E090E0E091B905F091F5
:102D1000BA0520E030E0A0E0B0E0309719F1408142
:102D200051810281138148175907C8F0841795070C
:102D300069F4109731F012960C93129713961C9326
:102D400027C00093B9051093BA0522C0211531059B
:102D500019F04217530718F49A01BD01EF01DF0182
:102D6000F801DBCF21153105F9F0281B390B243090
:102D7000310580F48A819B816115710521F0FB0189
:102D80009383828304C09093BA058093B905FE01B2
:102D9000329644C0FE01E20FF31F819391932250BB
:102DA0003109398328833AC02091B7053091B8059D
:102DB000232B41F420915A0130915B013093B805E7
:102DC0002093B70520915801309159012115310503
:102DD00041F42DB73EB740915C0150915D01241B39
:102DE000350BE091B705F091B805E217F307A0F4B1
:102DF0002E1B3F0B2817390778F0AC014E5F5F4F51
:102E00002417350748F04E0F5F1F5093B8054093C5
:102E1000B7058193919302C0E0E0F0E0CF01DF912C
:102E2000CF911F910F910895CF93DF93009709F4ED
:102E300081C0FC01329713821282A091B905B09132
:102E4000BA05109781F420813181820F931F209160
:102E5000B7053091B8052817390751F5F093B80533
:102E6000E093B70567C0ED0120E030E0CE17DF0743
:102E700040F44A815B819E0141155105F1F0EA0160
:102E8000F5CFD383C28340815181840F951FC8172A
:102E9000D90759F488819981840F951F02969183EF
:102EA00080838A819B81938382832115310529F454
:102EB000F093BA05E093B9053DC0E901FB83EA83CD
:102EC00049915991C40FD51FEC17FD0761F480811A
:102ED0009181840F951F0296E901998388838281ED
:102EE00093819B838A83E0E0F0E012968D919C9120
:102EF0001397009719F0FD01DC01F7CF8D919C919C
:102F000011979D012E5F3F4F820F931F2091B705B0
:102F10003091B8052817390769F4309729F41092D1
:102F2000BA051092B90502C013821282B093B80597
:102F3000A093B705DF91CF910895A0E0B0E0E3EA58
:102F4000F7E10C94CE14EC01009721F4CB010E9420
:102F50007C16B4C0FC01E60FF71F9C01225031091A
:102F6000E217F30708F4A8C0D9010D911C9111973D
:102F700006171707B0F00530110508F49BC0C8010B
:102F800004978617970708F495C002501109061B8D
:102F9000170B019311936D937C93CF010E9414172B
:102FA00089C05B01A01AB10A4C01800E911EA0914C
:102FB000B905B091BA05612C712CE12CF12C109758
:102FC00009F446C08D919C911197A815B905B1F5EA
:102FD0006C0142E0C40ED11CCA14DB0478F14C0130
:102FE0008A189B08640142E0C40ED11C1296BC9062
:102FF00012971396AC91B5E0CB16D10440F0B28293
:10300000A38391828082D9016D937C9309C00E5F66
:103010001F4F800F911FF90191838083EB2DFA2FB1
:10302000E114F10431F0D7011396FC93EE9312975B
:1030300041C0F093BA05E093B9053CC06816790623
:1030400008F43C017D0112960D90BC91A02DB7CFE4
:103050008091B7059091B80588169906E1F4661637
:103060007706C8F48091580190915901009741F476
:103070008DB79EB740915C0150915D01841B950B0B
:10308000E817F907C8F4F093B805E093B705F9011C
:10309000718360830FC0CB010E947C167C01009776
:1030A00059F0A801BE010E946818CE010E941417B1
:1030B000C70104C0CE0102C080E090E0CDB7DEB70A
:1030C000EEE00C94EA1481E090E0F8940C94781807
:1030D000FB01DC0102C001900D9241505040D8F735
:1030E0000895FB01DC0101900D920020E1F70895A5
:1030F00011E0C3E0D1E004C0FE010E9476162196E3
:0A310000C430D107C9F7F894FFCFDF
:10310A0053756E6461790000000000004D6F6E64B3
:10311A0061790000000000005475657364617900EC
:10312A00000000005765646E6573646179000000F1
:10313A0054687572736461790000000046726964AC
:10314A00617900000000000053617475726461794E
:10315A00000000002E012E010000BB0580000000C7
:10316A000000C2012F0159010F028A0168017C0186
:10317A000000000069033C0399035302340320034F
:10318A0011030000000054022F0199035302A40204
:10319A00BC023B02525443206973204E4F542072A2
:1031AA00756E6E696E67210041540054686520642B
:1031BA00697374616E63652069733A20006E616E8B
:1031CA0000696E66006F7666000D0A00466C6F77BE
:1031DA0020726174653A20002E004C2F6D696E00D2
:1031EA00202043757272656E74204C69717569642A
:1031FA0020466C6F77696E673A20006D4C2F5365D5
:10320A00630020204F7574707574204C697175695C
:10321A0064205175616E746974793A20006D4C00AE
:10322A0020280029200041542B48545450494E4923
:10323A00540041542B48545450504152413D22436A
:10324A004944222C310041542B4854545050415285
:10325A00413D2255524C222C22687474703A2F2F09
:10326A006C6F63616C686F73743A383038302F61F1
:10327A0070692F616464220041542B4854545050A1
:10328A004152413D22434F4E54454E54222C226D09
:10329A00756C7469706172742F666F726D2D6461DA
:1032AA0074613B20626F756E646172793D2D2D2DBC
:1032BA002D5765624B6974466F726D426F756E6405
:1032CA00617279765A305A4853684E416342414294
:1032DA00574679220041542B485454504441544192
:1032EA003D3139322C3130303030002D2D2D2D2DFD
:1032FA002D5765624B6974466F726D426F756E64C5
:10330A00617279765A305A4853684E416342414253
:10331A0057467900436F6E74656E742D44697370F5
:10332A006F736974696F6E3A20666F726D2D64618E
:10333A0074613B206E616D653D2266696C65546FF0
:10334A0055706C6F6164223B2066696C656E616DB5
:10335A00653D22646174612E6A736F6E2200436F49
:10336A006E74656E742D547970653A206170706C54
:10337A0069636174696F6E2F6A736F6E007B226E68
:10338A00616D65223A224B69796161222C226C6F48
:10339A00636174696F6E223A226164616D61222CE5
:1033AA00226C6576656C223A002C22666C6F775225
:1033BA00617465223A007D0041542B4854545041AF
:1033CA004354494F4E3D310041542B434E4D493DE4
:0A33DA00322C322C302C302C300045
:00000001FF
