:100000000C9404010C9470040C9449040C943C0569
:100010000C943C050C943C050C942C010C942C0184
:100020000C942C010C942C010C942C010C942C019C
:100030000C942C010C942C010C942C010C942C018C
:100040000C945C090C942C010C940A050C94E404A7
:100050000C942C010C942C010C942C010C942C016C
:100060000C94B6050C942C01CC0BE10BE10BE00BCE
:10007000E10BBE0BE10BE10BE10BC00BE10BE10B64
:10008000D30BDE0BDC0BE10BE10BE10BDA0B0040D9
:100090007A10F35A00A0724E18090010A5D4E80097
:1000A00000E87648170000E40B54020000CA9A3BAF
:1000B000000000E1F5050000809698000000404235
:1000C0000F000000A08601000000102700000000C3
:1000D000E803000000006400000000000A000000C7
:1000E00000000100000000002C76D888DC674F0873
:1000F00023DFC1DFAE59E1B1B796E5E3E453C63A79
:10010000E651997696E8E6C28426EB898C9B62EDEF
:10011000407C6FFCEFBC9C9F40F2BAA56FA5F490A9
:10012000055A2AF75C936B6CF9676DC11BFCE0E420
:100130000D47FEF520E6B500D0ED902E0300943576
:1001400077050080841E080000204E0A000000C8C9
:100150000C333333330F986E12831141EF8D21141A
:10016000893BE65516CFFEE6DB18D1844B381BF7EA
:100170007C1D901DA4BBE424203284725E22810089
:10018000C9F124ECA1E53D2731313A30363A32331A
:10019000004A616E2033312032303139001F1C1F7C
:1001A0001E1F1E1F1F1E1F1E1F00000000240027F1
:1001B000002A0000000008000201000003040700FC
:1001C00000000000000000000000002300260029BD
:1001D0000000000000250028002B00040404040493
:1001E00004040402020202020203030303030301E4
:1001F00002040810204080010204081020010204BB
:1002000008102000F710DB1011241FBECFEFD8E03C
:10021000DEBFCDBF25E0A8EEB3E001C01D92A93C32
:10022000B207E1F713E0A0E0B1E0ECEDF1E302C0CA
:1002300005900D92A83EB107D9F711E0C3E0D1E0D7
:1002400004C02197FE010E94DF16C230D107C9F712
:100250000E94EB090C94E1180C9400000895CF92D1
:10026000DF92EF92FF920F931F93CF93DF936C0176
:100270007A018B01C0E0D0E0CE15DF0581F0D80116
:100280006D918D01D601ED91FC910190F081E02DF1
:10029000C6010995892B11F02196EECF7E01C70189
:1002A000DF91CF911F910F91FF90EF90DF90CF9052
:1002B0000895FC01538D448D252F30E0842F90E06C
:1002C000821B930B541710F0CF9608950197089551
:1002D000FC01918D828D981761F0828DDF01A80F4E
:1002E000B11D5D968C91928D9F5F9F73928F90E070
:1002F00008958FEF9FEF0895FC01918D828D9817DF
:1003000031F0828DE80FF11D858D90E008958FEF1B
:100310009FEF0895FC01918D228D892F90E0805CE4
:100320009F4F821B91098F739927089584EF94E062
:100330000E948A0121E0892B09F420E0822F089590
:10034000FC01848DDF01A80FB11DA35ABF4F2C9172
:10035000848D90E001968F739927848FA689B78941
:100360002C93A089B1898C91837080648C93938D38
:10037000848D981306C00288F389E02D80818F7DDB
:1003800080830895EF92FF920F931F93CF93DF9393
:10039000EC0181E0888F9B8D8C8D981305C0E889D6
:1003A000F989808185FD26C0F62E0B8D10E00F5F48
:1003B0001F4F0F731127E02E8C8DE8120CC00FB663
:1003C00007FCFACFE889F989808185FFF5CFCE0156
:1003D0000E94A001F1CF8B8DFE01E80FF11DE35AC1
:1003E000FF4FF0829FB7F8940B8FEA89FB898081D9
:1003F00080620AC09FB7F894EE89FF896083E8891C
:10040000F98980818370806480839FBF81E090E060
:10041000DF91CF911F910F91FF90EF900895CF93AF
:10042000DF93EC01888D8823C9F0EA89FB898081FC
:1004300085FD05C0A889B9898C9186FD0FC00FB6CE
:1004400007FCF5CF808185FFF2CFA889B9898C910F
:1004500085FFEDCFCE010E94A001E7CFDF91CF91C4
:10046000089580E090E0892B29F00E949601811187
:100470000C94000008952091EA033091EB032817B3
:10048000390771F49091E8038091E903981741F0DE
:10049000E091E803F0E0E95BFB4F808190E0089594
:1004A0008FEF9FEF089508951F93CF93DF93DC01A3
:1004B0005C968D919C915D97009739F421E030E036
:1004C00013963C932E9312973BC05196ED91FC915D
:1004D000529750962C915097322F30951FB75E96B9
:1004E0004C915E97742F727041FD6095F894408135
:1004F000772311F0422B01C043234083EC01219765
:10050000F1F748E0508160FF02C0522B01C0532335
:100510005083EC012197F1F76695415099F780815E
:10052000772319F08323808302C0282B20831FBFE9
:100530005C968D919C915D970197F1F781E090E039
:10054000DF91CF911F9108952091EA033091EB0341
:100550002817390771F48091E9032091E80390E0AE
:10056000805C9F4F821B910960E470E00E94A91695
:10057000089580E090E008952091EA033091EB0324
:1005800028173907B9F49091E8038091E903981787
:1005900089F0E091E803F0E0E95BFB4F8081209176
:1005A000E80330E02F5F3F4F2F7333272093E8039A
:1005B00090E008958FEF9FEF089585ED8093BC0044
:1005C0008091BC0084FDFCCF1092CF04089540912F
:1005D0002404262F30E0240F311D21323105DCF4B4
:1005E0002091CF042430C9F4FC0180E090E086170C
:1005F00058F4309124042191DC01AC5FBB4FA30F70
:10060000B11D2C930196F3CF80912404680F609361
:10061000240480E0089581E0089582E0089508951B
:100620000895E091880480918704E81730F4F0E0A1
:10063000E757FB4F808190E008958FEF9FEF08957B
:100640009091880480918704981750F4E92FF0E086
:10065000E757FB4F208130E09F5F9093880402C0F2
:100660002FEF3FEFC90108958091870490E020911A
:100670008804821B91090895CF92DF92EF92FF9236
:100680000F931F93CF93DF937C01CB018A012091BD
:10069000D004222389F0EB016B01C40ED51ECC15CA
:1006A000DD0569F06991D701ED91FC910190F08130
:1006B000E02DC7010995F3CF642F0E94E702C8011E
:1006C000DF91CF911F910F91FF90EF90DF90CF902E
:1006D0000895CF93DF931F92CDB7DEB76983209142
:1006E000D0042223D1F02091F304203240F021E005
:1006F00030E0FC013383228380E090E015C08091DC
:10070000D104E82FF0E0EE52FB4F998190838F5F88
:100710008093D1048093F30405C061E0CE0101967B
:100720000E94E70281E090E00F90DF91CF91089561
:10073000089580E090E008958091F0039091F10396
:1007400001969093F1038093F00308950E94CC18D2
:100750000F931F93CF93DF93EC01888199810097CA
:1007600029F02A813B812617370788F48B016F5FB8
:100770007F4F0E940618009761F0998388831B833E
:100780000A832C813D81232B11F4FC01108281E02E
:1007900001C080E0DF91CF911F910F910895EF92FA
:1007A000FF920F931F93CF93DF936115710511F49F
:1007B00080E01CC041155105C1F07B01EC018C812A
:1007C0009D818A01080F191FB801CE010E94A8035C
:1007D000882371F3288139818C819D81B701820F33
:1007E000931F0E94DA181D830C8381E0DF91CF9163
:1007F0001F910F91FF90EF900895CF93DF93EC013D
:1008000088819981009711F00E947D1719821882C2
:100810001D821C821B821A82DF91CF910895CF9393
:10082000DF93EC016115710561F0FB01019000207F
:10083000E9F73197AF01461B570B0E94CF03811197
:1008400003C0CE010E94FD03CE01DF91CF91089538
:10085000EF92FF920F931F93CF93DF93EC017B01F5
:100860008A01BA010E94A803811104C0CE010E942E
:10087000FD0307C01D830C83B701888199810E9405
:10088000DA18CE01DF91CF911F910F91FF90EF9079
:1008900008951F920F920FB60F9211242F933F933A
:1008A0004F935F936F937F938F939F93AF93BF9378
:1008B000EF93FF93E0915601F09157010995FF9155
:1008C000EF91BF91AF919F918F917F916F915F91C8
:1008D0004F913F912F910F900FBE0F901F90189541
:1008E0001F920F920FB60F9211242F933F934F93A5
:1008F0005F936F937F938F939F93AF93BF93EF9388
:10090000FF93E0915401F09155010995FF91EF910A
:10091000BF91AF919F918F917F916F915F914F9117
:100920003F912F910F900FBE0F901F901895DC01F3
:10093000ED91FC910190F081E02D09946115710514
:1009400079F0FB0101900020E9F73197AF01461BD8
:10095000570BDC01ED91FC910280F381E02D0994AD
:1009600080E090E008950F931F93CF93DF93EC0105
:100970000E949E048C0169EC71E0CE010E949E04ED
:10098000800F911FDF91CF911F910F9108950F93C9
:100990001F93CF93DF93EC01FB014481558160816C
:1009A0007181E881F9810280F381E02D09958C0144
:1009B00069EC71E0CE010E949E04800F911FDF91CF
:1009C000CF911F910F9108951F920F920FB60F9222
:1009D00011242F933F934F935F936F937F938F9344
:1009E0009F93AF93BF93EF93FF9384EF94E00E94A4
:1009F000A001FF91EF91BF91AF919F918F917F9156
:100A00006F915F914F913F912F910F900FBE0F907B
:100A10001F9018951F920F920FB60F9211242F93CB
:100A20008F939F93EF93FF93E0910405F091050559
:100A30008081E0910A05F0910B0582FD12C0908142
:100A400080910D058F5F8F7320910E05821751F0F5
:100A5000E0910D05F0E0EC50FB4F958F80930D0574
:100A600001C08081FF91EF919F918F912F910F9005
:100A70000FBE0F901F9018951F920F920FB60F92F6
:100A800011242F933F934F935F936F937F938F9393
:100A90009F93AF93BF93EF93FF93E091EA03F0919D
:100AA000EB03309709F451C0968DA685B7858585EF
:100AB00091FF04C09C91892329F447C09C9189230C
:100AC00009F043C0A389B4899C91858980958923C5
:100AD0008C93868997890197F1F7608D718DA68532
:100AE000B785558538E020E0CB010197F1F7822FDB
:100AF00090E095958795282F4C91452309F0206823
:100B0000315091F7868D81FD20958091E90390E029
:100B100001968F7399273091E803381749F0A09117
:100B2000E903B0E0A95BBB4F2C938093E90303C0BA
:100B3000868D8160868F828D938D0197F1F7A389D1
:100B4000B4899C918589892B8C93FF91EF91BF91FA
:100B5000AF919F918F917F916F915F914F913F9155
:100B60002F910F900FBE0F901F9018951F920F920C
:100B70000FB60F9211242F933F934F935F936F9370
:100B80007F938F939F93AF93BF93EF93FF93809146
:100B9000B900887F803609F49CC068F5883209F472
:100BA0005BC090F4803109F454C038F4882309F410
:100BB000F6C0883009F44DC0F6C0883109F44CC045
:100BC000803209F45DC0EFC0803409F468C048F495
:100BD000803309F455C0883309F0E5C08093CD0413
:100BE000D8C0803509F44FC0883509F45DC0883419
:100BF00009F0D9C0D6C0883909F4C7C0A8F488372D
:100C000009F467C038F4883609F463C0803709F402
:100C100060C0C9C0883809F4B8C0803909F45FC021
:100C2000803809F0C0C05BC0803B09F486C038F44E
:100C3000803A09F466C0883A09F47FC0B4C0803CA9
:100C400009F4A7C0883C09F4A4C0883B09F48AC011
:100C5000AAC08091AA0410C09091CC048091CB04CA
:100C6000981770F5E091CC0481E08E0F8093CC044E
:100C7000F0E0E555FB4F80818093BB0085EC86C09A
:100C80008093CD048EC0E091CC0481E08E0F8093E0
:100C9000CC048091BB00F0E0E555FB4F8083909140
:100CA000CC048091CB046EC0E091CC0481E08E0F27
:100CB0008093CC048091BB00F0E0E555FB4F80832E
:100CC0008091CE0481116DC081E08093A90484EAF3
:100CD00061C083E08093CF0410924604CFCF80910F
:100CE0004604803208F051C0E091460481E08E0F46
:100CF000809346048091BB00F0E0EA5DFB4F808367
:100D0000BDCF85EC8093BC001092CF048091460447
:100D1000803230F4E0914604F0E0EA5DFB4F10824F
:100D20006091460470E0E091EC03F091ED0386E2FF
:100D300094E009951092460436C084E08093CF0475
:100D40001092250410922404E091EE03F091EF0339
:100D5000099580912404811105C081E080932404C9
:100D600010920404E091250481E08E0F8093250405
:100D7000F0E0EC5FFB4F80818093BB0090912504F5
:100D800080912404981708F479CF85E88093BC00FB
:100D90000AC085EC8093BC001092CF0404C010926E
:100DA000CD040E94DD02FF91EF91BF91AF919F9121
:100DB0008F917F916F915F914F913F912F910F9004
:100DC0000FBE0F901F9018953FB7F8948091C10502
:100DD0009091C205A091C305B091C40526B5A89B0A
:100DE00005C02F3F19F00196A11DB11D3FBFBA2FBD
:100DF000A92F982F8827820F911DA11DB11DBC011D
:100E0000CD0142E0660F771F881F991F4A95D1F7E1
:100E100008958230D8F4E82FF0E0EE0FFF1FEC5A6F
:100E2000FE4F2CE933E031832083813041F0809103
:100E300069008C7F826080936900E89A08958091B0
:100E40006900837F886080936900E99A0895282F5C
:100E50003091F304313208F04AC08091CF048111FF
:100E6000FCCF9091F20442E04093CF042093CE0453
:100E70002FEF2093CD041092CC043093CB04E2EDFD
:100E8000F4E0ABEAB4E020E0321721F041914D9359
:100E90002F5FFACF1092AA042091AA04990F922BE7
:100EA0009093AA049091A904913061F41092A9043E
:100EB0009091AA049093BB009091BC0093FDF8CF51
:100EC00095EC01C095EE9093BC009091CF049230C8
:100ED000E1F39091CD049F3F79F08091CD04803271
:100EE00041F08091CD04803331F084E005C081E091
:100EF00003C082E001C083E01092D1041092F30499
:100F00001092D00408959091CF049111FCCF982FA6
:100F1000813208F090E281E08093CF048093CE0488
:100F20002FEF2093CD041092CC04290F2093CB04F3
:100F30008093AA048091AA04806D8093AA04809172
:100F4000A904813061F41092A9048091AA048093CD
:100F5000BB008091BC0083FDF8CF85EC01C085EE1D
:100F60008093BC008091CF048130E1F38091CC0468
:100F7000891710F49091CC04EBEAF4E0A9E8B4E00E
:100F800080E0891721F021912D938F5FFACF109285
:100F90008804809387040895EF92FF920F931F9324
:100FA000CF93DF93CDB7DEB7A1970FB6F894DEBF2E
:100FB0000FBECDBF7C01CB01BA01F70111821082B7
:100FC00013821282158214828E010F5F1F4F22E05E
:100FD00044E00E94B411009769F0FC0101900020E8
:100FE000E9F73197AF01481B590BBC01C7010E94BB
:100FF000280403C0C7010E94FD03A1960FB6F89410
:10100000DEBF0FBECDBFDF91CF911F910F91FF903B
:10101000EF9008958F929F92AF92BF920F931F937C
:10102000CF93DF93CDB7DEB7A1970FB6F894DEBFAD
:101030000FBECDBF19A2423008F44AE08E010F5D09
:101040001F4F842E912CA12CB12CA50194010E943C
:10105000BD16E62FB901CA0101501109EA3014F496
:10106000E05D01C0E95CD801EC93232B242B252BF8
:1010700061F7B80184EF94E00E949E04A1960FB638
:10108000F894DEBF0FBECDBFDF91CF911F910F91BE
:10109000BF90AF909F908F900895682F70E080E090
:1010A00090E04AE00C940A08BC0184EF94E00C94B0
:1010B0009E0490E0FC01ED54FE4F2491FC01E151AF
:1010C000FE4F3491FC01E552FE4FE491EE2309F40A
:1010D0003CC0222339F1233091F038F42130A9F0BB
:1010E000223001F584B58F7D12C0273091F0283071
:1010F000A1F02430B9F4809180008F7D03C08091ED
:1011000080008F77809380000DC084B58F7784BD79
:1011100009C08091B0008F7703C08091B0008F7DAF
:101120008093B000F0E0EE0FFF1FEF52FE4FA5914D
:10113000B4919FB7F894611104C08C913095382315
:1011400002C0EC913E2B3C939FBF0895CF93DF9359
:1011500090E0FC01E151FE4F2491FC01E552FE4F6D
:101160008491882361F190E0880F991FFC01E75575
:10117000FE4FC591D491FC01EF52FE4FA591B49161
:10118000611109C09FB7F8948881209582238883D4
:10119000EC912E230BC0623061F49FB7F8948881E4
:1011A000322F309583238883EC912E2B2C939FBF75
:1011B00006C08FB7F894E8812E2B28838FBFDF916C
:1011C000CF9108958F929F92AF92BF92CF92DF926C
:1011D000EF92FF926B017C010E94E4064B015C01DF
:1011E000C114D104E104F104F1F00E94E406DC0131
:1011F000CB0188199909AA09BB09883E9340A1052A
:10120000B10570F321E0C21AD108E108F10888EEB7
:10121000880E83E0981EA11CB11CC114D104E10406
:10122000F10419F7DDCFFF90EF90DF90CF90BF90E2
:10123000AF909F908F9008952FB7F8946091BD055F
:101240007091BE058091BF059091C0052FBF089594
:101250000F931F930E941C096093FC047093FD047C
:101260008093FE049093FF0484EF94E00E94680151
:1012700097FF1FC00E941C090091FC041091FD04FF
:101280002091FE043091FF04DC01CB01801B910B07
:10129000A20BB30B0091F8041091F9042091FA0409
:1012A0003091FB0480179107A207B307E8F28FEF94
:1012B0009FEF1F910F9108951F920F920FB60F92FB
:1012C00011242F933F938F939F93AF93BF9380915C
:1012D000BD059091BE05A091BF05B091C0053091AC
:1012E000BC0523E0230F2D3720F40196A11DB11D6D
:1012F00005C026E8230F0296A11DB11D2093BC0551
:101300008093BD059093BE05A093BF05B093C00523
:101310008091C1059091C205A091C305B091C4050B
:101320000196A11DB11D8093C1059093C205A093A4
:10133000C305B093C405BF91AF919F918F913F9129
:101340002F910F900FBE0F901F901895CF92DF92A4
:10135000EF92FF920F931F93E82FF92F05C00150D2
:1013600011092109310961F1908196239417B9F38C
:1013700005C0015011092109310911F1908196230D
:101380009413F7CFC12CD12CE12CF12C0AC08FEF94
:10139000C81AD80AE80AF80A0C151D052E053F05DB
:1013A00079F080818623841791F36C2D7D2D8E2D0D
:1013B0009F2D1F910F91FF90EF90DF90CF90089598
:1013C00060E070E080E090E01F910F91FF90EF905F
:1013D000DF90CF900895CF93DF93CDB7DEB7A3977B
:1013E0000FB6F894DEBF0FBECDBF789484B582608F
:1013F00084BD84B5816084BD85B5826085BD85B5B9
:10140000816085BD80916E00816080936E00109236
:1014100081008091810082608093810080918100B1
:101420008160809381008091800081608093800042
:101430008091B10084608093B1008091B0008160A0
:101440008093B00080917A00846080937A008091CC
:101450007A00826080937A0080917A008160809324
:101460007A0080917A00806880937A001092C1009F
:101470001092B8051092B7051092B6051092B505F6
:101480001092B4051092B3058DE991E09093BA05DE
:101490008093B9059091A905963108F058C02DEBBD
:1014A00030E03093B4052093B3052BE931E030935D
:1014B000B6052093B5052CE231E03093B8052093B2
:1014C000B70540916800983058F031E09E3008F43C
:1014D00030E021E0822F01C0880F3A95EAF701C081
:1014E00084E0842B80936800983038F09E3040F080
:1014F000963148F020E030E008C02DE630E005C02D
:101500002BE630E002C02CE630E03093B1052093AA
:10151000B005983030F481E001C0880F9A95EAF761
:101520000EC0292F30E09E3018F42850310902C037
:101530002E50310981E001C0880F2A95EAF7809387
:10154000B2058091B9059091BA050197F1F78091A4
:10155000B7059091B805892B49F1E091EA03F09124
:10156000EB0325E0ED39F20709F1309739F0A38953
:10157000B4899C918589809589238C938091BB0542
:101580008E7F8093BB051092E9031092E8038DE9EA
:1015900095E09093EB038093EA03E091B005F0911E
:1015A000B10590818091B205892B8083E09104057B
:1015B000F091050582E08083E0910005F09101053E
:1015C0001082E0910205F09103058FEC8083109268
:1015D0000C05E0910805F091090586E08083E09113
:1015E0000605F0910705808180618083E091060502
:1015F000F0910705808188608083E0910605F09175
:101600000705808180688083E0910605F0910705D9
:1016100080818F7D808360E08BE00E94A60861E07E
:101620008DE00E94A60860E082E00E94A60861E0CA
:1016300082E00E94590861E086E00E94A60861E00D
:1016400088E00E94A60861E087E00E94A608109248
:10165000F1031092F0031092F8031092F903109224
:10166000FA031092FB031092F7031092F603109204
:10167000F2031092F3031092F4031092F503109208
:10168000FC031092FD031092FE031092FF0364E628
:1016900070E080E090E00E94E208109288041092CE
:1016A00087041092D1041092F3041092CF0401E049
:1016B0000093CE041092A90461E082E10E945908CF
:1016C00061E083E10E9459088091B9008E7F809388
:1016D000B9008091B9008D7F8093B90088E4809330
:1016E000B80085E48093BC008FE093E09093EF0313
:1016F0008093EE0380E193E09093ED038093EC03FD
:101700000093D00488E68093F2041092D1041092E2
:10171000F30460E081E995E00E94690381E00E94A2
:10172000270781E090E00E94830781E995E00E940D
:10173000200387FFCDC064E971E084EF94E00E944C
:10174000B3044BE050E061E971E0CE0101960E94E4
:10175000D411CE010A960E94CE10082FE9814E2F97
:10176000EE0F550B660B770BFA01E154F109E331EB
:10177000F10538F5EC5CFF4F0C94DF1612E021C048
:101780008A81813639F08B818E3611F017E019C0CD
:1017900016E017C011E015C08B81823711F018E0F8
:1017A00010C014E00EC08B81823711F015E009C023
:1017B00013E007C019E005C01AE003C01BE001C038
:1017C0001CE0CE0105960E94CE10E82E48E050E0C5
:1017D00068E871E0CE0101960E94D411CE01019615
:1017E0000E94CE10D82ECE0104960E94CE10C82E94
:1017F000CE0107960E94CE10B82E81E08093D004CF
:1018000088E68093F2041092D1041092F30460E011
:1018100081E995E00E9469038AE0F82E8B2D6F2DF7
:101820000E948916682F660F860F880F682F6B0D30
:1018300081E995E00E9469038C2D6F2D0E94891625
:10184000682F660F860F880F682F6C0D81E995E071
:101850000E9469038D2D6F2D0E948916682F660FD7
:10186000860F880F682F6D0D81E995E00E9469034E
:1018700060E081E995E00E9469038E2D6F2D0E9442
:101880008916682F660F860F880F682F6E0D81E905
:1018900095E00E946903812F6F2D0E948916682FA1
:1018A000660F680F660F610F81E995E00E9469037A
:1018B000802F6F2D0E948916682F660F680F660FA4
:1018C000600F81E995E00E94690381E00E9427078B
:1018D00080E00E94090768EA71E08DE995E00E94C6
:1018E000B304BBE32B2EBFE13B2E1EE2C12E11E061
:1018F000D12E7E0148E1E40EF11C61E086E00E94F9
:10190000590860E08DE00E945908C1010197F1F784
:1019100061E08DE00E94590887E390E00197F1F7BC
:1019200060E08DE00E945908EAEFF1E06491E6EE94
:10193000F1E08491E82FF0E0EE0FFF1FE953FE4F36
:101940008591949100E412E42FE030E0462F0E944C
:10195000A609611571058105910549F0DC01CB01EE
:101960000196A11DB11DBC01CD019F7003C060E0B7
:1019700070E0CB010E94141420E034E244E759E403
:101980000E94D71520E030E84BEA53E40E9475141A
:1019900020E030E040E05FE30E94751460930004B3
:1019A0007093010480930204909303048BEA91E006
:1019B0000E9454084090000450900104609002047A
:1019C00070900304A3019201C301B2010E94841626
:1019D000882319F06DEB71E01AC053014201E894BD
:1019E000B7F82FEF3FEF4FE75FE7C501B4010E9463
:1019F0008416811111C02FEF3FEF4FE75FE7C5015C
:101A0000B4010E940F1418163CF461EC71E084EFED
:101A100094E00E949E0476C02FEF3FEF4FE75FE413
:101A2000C301B2010E947F1618161CF465EC71E028
:101A3000EECF2FEF3FEF4FE75FECC301B2010E9403
:101A40000F1487FDF3CF20E030E0A901C301B201FC
:101A50000E940F1487FF09C06DE284EF94E00E949A
:101A6000970477FA709477F870942AE037ED43EA98
:101A70005BE3C301B2010E946B154B015C010E9444
:101A800050162B013C010E9414149B01AC01C501AE
:101A9000B4010E946A154B015C014AE0C301B20126
:101AA0000E940A086EE284EF94E00E94970420E00E
:101AB00030E040E251E4C501B4010E9475144B01CD
:101AC0005C010E9450162B01612C712C4AE0C3016D
:101AD000B2010E940A08C301B2010E9414149B01C2
:101AE000AC01C501B4010E946A1520E030E040E27B
:101AF00051E40E9475140E94501680E090E04AE084
:101B00000E940A0869EC71E084EF94E00E949E0450
:101B10000E941C090091FC031091FD032091FE031B
:101B20003091FF03DC01CB01801B910BA20BB30BA7
:101B3000893E9340A105B10508F4F4C0E898D0921D
:101B40005501C09254010E941C090091FC031091A0
:101B5000FD032091FE033091FF03601B710B820B8C
:101B6000930B0E9414149B01AC0160E070E08AE7C3
:101B700094E40E94D7152B013C016091F003709111
:101B8000F103072E000C880B990B0E9416149B0181
:101B9000AC01C301B2010E94751420E030E040E9BD
:101BA00050E40E94D7152B013C016093F803709319
:101BB000F9038093FA039093FB030E941C0960933E
:101BC000FC037093FD038093FE039093FF0320E0DA
:101BD00030E040E752E4C301B2010E94D71520E093
:101BE00030E04AE754E40E9475140E945016709346
:101BF000F7036093F6030091F2031091F303209131
:101C0000F4033091F503D901C801860F971FA11D78
:101C1000B11D8093F2039093F303A093F403B09368
:101C2000F5038CEC91E00E9454086091F8037091E8
:101C3000F9038091FA039091FB030E9449162B014E
:101C4000770F6608770877FE0EC06DE284EF94E0A8
:101C50000E94970466277727CB01641975098609C6
:101C600097094AE003C04AE0C301B2010E940A0892
:101C700082E392E00E9454084090F8035090F903E8
:101C80006090FA037090FB03C301B2010E944916F1
:101C9000072E000C880B990B0E9416149B01AC01B7
:101CA000C301B2010E946A1520E030E040E251E435
:101CB0000E9475140E94501680E090E04AE00E9455
:101CC0000A0888ED91E00E9454088EED91E00E9490
:101CD00054086091F6037091F70380E090E04AE0C9
:101CE0000E940A0889EF91E00E94540880E092E087
:101CF0000E9454086091F2037091F3038091F40301
:101D00009091F5034AE00E940A086BE172E084EFCB
:101D100094E00E94B3041092F1031092F00380E06B
:101D20000E94090781E08093D00488E68093F20442
:101D30001092D1041092F30460E081E995E00E94D2
:101D4000690381E00E94270787E090E00E948307F3
:101D500081E995E00E9420038F77982F92959F70DC
:101D60002AEF722E982E979D900C112481E995E010
:101D70000E9420039C01332744E0359527954A951E
:101D8000E1F7882E729E800C112481E995E00E9473
:101D900020039C01332754E0359527955A95E1F7A8
:101DA000B82E729EB00C112481E995E00E942003A8
:101DB00081E995E00E9420039C01332764E035957A
:101DC00027956A95E1F7182F729E100D112481E96D
:101DD00095E00E9420039C01332774E035952795F8
:101DE0007A95E1F7082F729E000D112481E995E0A4
:101DF0000E9420039C013327E4E035952795EA955E
:101E0000E1F7729E800D1124682E712C230120E3CE
:101E1000421A28EF520AB201052C000C880B990BCC
:101E20004AE00E940A086FE284EF94E00E9497045F
:101E3000802F0E944D086FE284EF94E00E94970487
:101E4000812F0E944D088EE192E00E945408212FBC
:101E500030E0EDE9F1E081E0801730F49491290F52
:101E6000311D8F5F3196F8CF033038F0C301837096
:101E70009927892B11F42F5F3F4F4DEC441A47E00F
:101E8000540A5694479456944794EDE6F1E06E9EBA
:101E9000C0016F9E900D7E9E900D1124840D951DA6
:101EA0000596820F931F67E070E00E9495164CE044
:101EB000489F9001499F300D1124C90180509F4FC8
:101EC0000E94540881E292E00E9454088B2D0E94E7
:101ED0004D086AE384EF94E00E949704882D0E94E5
:101EE0004D086AE384EF94E00E949704892D0E94D4
:101EF0004D0869EC71E084EF94E00E949E0484EF49
:101F000094E00E948A01181619060CF02FC164E2B1
:101F100072E084EF94E00E94B3041F8E1E8E19A21B
:101F200018A21BA21AA240E050E06BEC71E0CE01B7
:101F30004E960E9428040E94280997FD0CC08983B0
:101F40001A8241E050E0BE016F5F7F4FCE014E9696
:101F50000E94CF03F0CF68EC70E080E090E00E9438
:101F6000E208BE01625E7F4F84EF94E00E94C704E6
:101F700084EF94E00E9468018237910509F4E6C07D
:101F80008337910509F0EEC061E088E00E945908AE
:101F900064E372E08DE995E00E94B3046DE08DE9A1
:101FA00095E00E94970469EC71E08DE995E00E944C
:101FB0009E0468EE73E080E090E00E94E20860E436
:101FC00072E08DE995E00E94B30468EE73E080E072
:101FD00090E00E94E20864E572E08DE995E00E94DD
:101FE000B30468EE73E080E090E00E94E20866E8E7
:101FF00072E08DE995E00E94B30468EE73E080E042
:1020000090E00E94E20863EE72E08DE995E00E94A4
:10201000B30469EF72E08DE995E00E94B30462E2D7
:1020200073E08DE995E00E94B3046CE673E08DE9FE
:1020300095E00E94B3044091F8035091F903609138
:10204000FA037091FB03CE0101960E94CC074091E8
:102050000004509101046091020470910304CE01C8
:102060000C960E94CC071B8A1A8A1D8A1C8A1F8A1A
:102070001E8A4BE250E06BE873E0CE0142960E946C
:102080002804488959896C857D85CE0142960E9435
:10209000CF03811104C0CE0142960E94FD0367EB7D
:1020A00073E0CE0142960E940F048C014D815E8147
:1020B00069817A810E94CF03811103C0C8010E9407
:1020C000FD0364EC73E0C8010E940F04198E188EA2
:1020D0001B8E1A8E1D8E1C8E8E159F0559F0FC01CD
:1020E000608171816115710529F044815581C701B5
:1020F0000E9428048A899B890E947D178C859D8572
:102100000E947D1789819A810E947D17B7018DE910
:1021100095E00E94C70469EF72E08DE995E00E94A6
:10212000B30466EC73E08DE995E00E94B30468EEB9
:1021300073E080E090E00E94E208888D998D0E9413
:102140007D1760E088E00E9459080CC066ED73E0DE
:102150008DE995E00E94B30468EE73E080E090E0C2
:102160000E94E2088E8D9F8D0E947D178DE995E07B
:102170000E94A402892B49F08DE995E00E94BC02DF
:10218000682F84EF94E00E94C20168EE73E080E063
:1021900090E00E94E2080E943102AFCBFC019081E6
:1021A00090539A3008F090E0818180532AE0929F0A
:1021B000800D1124089586E891E090939E05809308
:1021C0009D058091EA039091EB038D59954071F440
:1021D000E091B005F091B10590818091B2058095B4
:1021E000892380831092EB031092EA0308951092E2
:1021F000F7041092F60488EE93E0A0E0B0E080933C
:10220000F8049093F904A093FA04B093FB0422E637
:1022100031E03093F5042093F40425EC30E0309362
:1022200001052093000524EC30E030930305209352
:10223000020520EC30E0309305052093040521ECE5
:1022400030E0309307052093060522EC30E0309310
:1022500009052093080526EC30E030930B05209308
:102260000A0510920D0510920E0510920F0510929E
:102270001005109294051092930580939505909304
:102280009605A0939705B093980524E731E0309325
:102290009205209391051092A00510929F058093BE
:1022A000A1059093A205A093A305B093A40586E889
:1022B00091E090939E0580939D051092B405109235
:1022C000B3051092B6051092B5051092B80510929C
:1022D000B7051092BA051092B9056091BB056E7FE3
:1022E0006D7F6093BB056695617081E068278AE029
:1022F0000E94590861E08AE00E94A608E9EFF1E037
:10230000E491E093AD05E5EEF1E0E491F0E0EE0F4D
:10231000FF1FEF52FE4F859194919093AF058093EC
:10232000AE0560E089E00E94A6088091BB0581FDB2
:1023300004C061E089E00E94590889E08093A90502
:10234000E8EFF1E0E491E093AA05E4EEF1E0E49136
:10235000F0E0EE0FFF1FE953FE4F859194919093AB
:10236000AC058093AB050895EF920F931F93CF9325
:10237000DF93E80147FD02C034E001C034E1042EE0
:10238000000C550B57FF03C0519541955109E32EA1
:10239000022F242FAE010E94DD11CE01DF91CF91DB
:1023A0001F910F91EF900895FB01DC0102C0059091
:1023B0000D9241505040D8F70895A9E0B0E0E3EE07
:1023C000F1E10C9439156A01122FB02E2BE320177E
:1023D00020F0FF24F394F00E02C02CE3F22E0F2D18
:1023E00027E0AE014F5F5F4F0E943713BC01498168
:1023F000842F8970813031F0E1FC06C0E0FE06C018
:1024000090E205C09DE203C09BE201C090E05E2D1A
:10241000507143FF3CC0911102C083E001C084E0D1
:10242000811718F4212F281B01C020E051110BC087
:10243000F601822F30E2882319F031938150FBCFCF
:10244000C20ED11C20E0992329F0D6019C93F601FD
:1024500031966F01C6010396E2FE0AC03EE4D60142
:102460003C9341E411964C93119712963C9306C00D
:102470003EE6F601308341E641833283FC01322F90
:1024800040E2332309F442C041933150FACF42FF76
:1024900044C0911102C083E001C084E0811718F4A8
:1024A000212F281B01C020E051110BC0F601822F03
:1024B00030E2882319F031938150FBCFC20ED11C3A
:1024C00020E0992329F0D6019C93F60131966F0103
:1024D000C6010396E2FE0BC039E4D6013C933EE40C
:1024E00011963C93119736E412963C9307C039E657
:1024F000F60130833EE6318336E63283FC01322F2B
:1025000040E2332319F041933150FBCFFC01E20F3D
:10251000F11D10828EEF9FEFA6C021E030E09111F7
:1025200002C020E030E0161617061CF4FB013196BD
:1025300002C0E1E0F0E02E0F3F1FBB2021F0EB2DA9
:10254000F0E0319602C0E0E0F0E02E0F3F1FE12FF7
:10255000F0E02E173F071CF4121B212F01C020E0D2
:102560008E2D887159F4F601822F30E2882319F0FC
:1025700031938150FBCFC20ED11C20E0992329F06A
:10258000D6019C93F60131966F0151110BC0F601F3
:10259000822F90E3882319F091938150FBCFC20ED4
:1025A000D11C20E00F2D060F9A81342F307144FF8B
:1025B00003C0913309F40150101624F4093018F0C7
:1025C00008E001C001E0AB0177FF02C040E050E04D
:1025D000FB01E41BF50BA1E0B0E0AC0FBD1FEA0F5F
:1025E000FB1F8EE2A82E4B01801A91080B2D10E0E4
:1025F0001195019511094F3FBFEF5B0721F4D601FB
:10260000AC9211966D01641775072CF0841695062F
:1026100014F4818101C080E3415051093196D60103
:1026200011967D014017510724F0D6018C93670164
:10263000E2CF6417750739F4963320F4953319F413
:10264000311101C081E3F6018083F701822F90E20E
:10265000882319F091938150FBCFF701E20FF11D10
:10266000108280E090E02996ECE00C94551528301B
:1026700008F027E03327DA01990F311D87FD9160BB
:1026800000966105710539F432602E5F3D9330E3A9
:102690002A95E1F708959F3F30F080387105610574
:1026A00009F03C5F3C5F3D93913008F08068911DDC
:1026B000DF93CF931F930F93FF92EF92192F987F81
:1026C0009695E92F96959695E90FFF27E851FF4FCC
:1026D00099273327EE24FF24A701E70105900894EA
:1026E000079428F4360FE71EF81E491F511D660F88
:1026F000771F881F991F0694A1F70590079428F467
:10270000E70EF81E491F561FC11D770F881F991F1E
:10271000661F0694A1F70590079428F4F80E491F48
:10272000561FC71FD11D880F991F661F771F06945C
:10273000A1F70590079420F4490F561FC71FD81F13
:10274000990F661F771F881F0694A9F7849110952B
:10275000177041F0D695C79557954795F794E7942C
:102760001A95C1F7EEE8F0E068941590159135914F
:102770006591959105907FE27395E118F10A430BFD
:10278000560BC90BD009C0F7E10CF11E431F561FB1
:10279000C91FD01D7EF4703311F48A95E6CFE894FA
:1027A000015030F0080F0AF40027021708F4202F18
:1027B0002395022F7A3328F079E37D932A95E9F760
:1027C00010C07D932A9589F606949795679537955D
:1027D00017951794E118F10A430B560BC90BD00952
:1027E00098F023957E9173957A3308F070E37C938B
:1027F0002013B8F77E9170617D9330F0839571E37B
:102800007D9370E32A95E1F71124EF90FF900F91EB
:102810001F91CF91DF91992787FD909508950E9490
:10282000511408F481E00895E89409C097FB3EF440
:1028300090958095709561957F4F8F4F9F4F99230D
:10284000A9F0F92F96E9BB279395F695879577958B
:102850006795B795F111F8CFFAF4BB0F11F460FF4B
:102860001BC06F5F7F4F8F4F9F4F16C0882311F0A3
:1028700096E911C0772321F09EE8872F762F05C0B7
:10288000662371F096E8862F70E060E02AF09A9552
:10289000660F771F881FDAF7880F9695879597F947
:1028A0000895990F0008550FAA0BE0E8FEEF1616E1
:1028B0001706E807F907C0F012161306E407F50734
:1028C00098F0621B730B840B950B39F40A2661F0A8
:1028D000232B242B252B21F408950A2609F4A1404B
:1028E000A6958FEF811D811D08950E9488140C9478
:1028F000F9140E94EB1438F00E94F21420F0952392
:1029000011F00C94E2140C94E81411240C942D157D
:102910000E940A1570F3959FC1F3950F50E0551F63
:10292000629FF001729FBB27F00DB11D639FAA2724
:10293000F00DB11DAA1F649F6627B00DA11D661F73
:10294000829F2227B00DA11D621F739FB00DA11D94
:10295000621F839FA00D611D221F749F3327A00D4E
:10296000611D231F849F600D211D822F762F6A2FEA
:1029700011249F5750409AF0F1F088234AF0EE0F4F
:10298000FF1FBB1F661F771F881F91505040A9F77C
:102990009E3F510580F00C94E2140C942D155F3F7E
:1029A000E4F3983ED4F3869577956795B795F795B8
:1029B000E7959F5FC1F7FE2B880F911D9695879530
:1029C00097F9089597F99F6780E870E060E00895AF
:1029D0009FEF80EC089500240A9416161706180637
:1029E0000906089500240A94121613061406050613
:1029F0000895092E0394000C11F4882352F0BB0FA4
:102A000040F4BF2B11F460FF04C06F5F7F4F8F4F06
:102A10009F4F089557FD9058440F551F59F05F3F41
:102A200071F04795880F97FB991F61F09F3F79F0F0
:102A300087950895121613061406551FF2CF469572
:102A4000F1DF08C0161617061806991FF1CF8695F4
:102A50007105610508940895E894BB2766277727D8
:102A6000CB0197F908952F923F924F925F926F9208
:102A70007F928F929F92AF92BF92CF92DF92EF920E
:102A8000FF920F931F93CF93DF93CDB7DEB7CA1B8F
:102A9000DB0B0FB6F894DEBF0FBECDBF09942A88BA
:102AA000398848885F846E847D848C849B84AA8462
:102AB000B984C884DF80EE80FD800C811B81AA81EF
:102AC000B981CE0FD11D0FB6F894DEBF0FBECDBFBA
:102AD000ED0108955058BB27AA270E9482150C9437
:102AE000F9140E94EB1438F00E94F21420F039F42B
:102AF0009F3F19F426F40C94E8140EF4E095E7FBDC
:102B00000C94E214E92F0E940A1558F3BA176207D1
:102B100073078407950720F079F4A6F50C942C151B
:102B20000EF4E0950B2EBA2FA02D0B01B9019001E8
:102B30000C01CA01A0011124FF27591B99F0593F2C
:102B400050F4503E68F11A16F040A22F232F342F74
:102B50004427585FF3CF469537952795A795F040C2
:102B60005395C9F77EF41F16BA0B620B730B840BD7
:102B7000BAF09150A1F0FF0FBB1F661F771F881F8F
:102B8000C2F70EC0BA0F621F731F841F48F48795E7
:102B900077956795B795F7959E3F08F0B0CF9395D9
:102BA000880F08F09927EE0F9795879508950E9452
:102BB000EB150C94F9140E94F21458F00E94EB14D7
:102BC00040F029F45F3F29F00C94E21451110C9469
:102BD0002D150C94E8140E940A1568F39923B1F39B
:102BE000552391F3951B550BBB27AA276217730733
:102BF000840738F09F5F5F4F220F331F441FAA1FC7
:102C0000A9F335D00E2E3AF0E0E832D09150504082
:102C1000E695001CCAF72BD0FE2F29D0660F771F30
:102C2000881FBB1F261737074807AB07B0E809F016
:102C3000BB0B802DBF01FF2793585F4F3AF09E3F9B
:102C4000510578F00C94E2140C942D155F3FE4F3D9
:102C5000983ED4F3869577956795B795F7959F5FDE
:102C6000C9F7880F911D9695879597F90895E1E02A
:102C7000660F771F881FBB1F621773078407BA0789
:102C800020F0621B730B840BBA0BEE1F88F7E095E4
:102C900008950E9450166894B1110C942D15089552
:102CA0000E94121588F09F5798F0B92F9927B751B5
:102CB000B0F0E1F0660F771F881F991F1AF0BA95E0
:102CC000C9F714C0B13091F00E942C15B1E00895FD
:102CD0000C942C15672F782F8827B85F39F0B93FEF
:102CE000CCF3869577956795B395D9F73EF4909593
:102CF0008095709561957F4F8F4F9F4F08950E94EB
:102D0000511408F48FEF08950E945114880B990B09
:102D10000895991B79E004C0991F961708F0961B37
:102D2000881F7A95C9F780950895AA1BBB1B51E1AE
:102D300007C0AA1FBB1FA617B70710F0A61BB70B2B
:102D4000881F991F5A95A9F780959095BC01CD01D0
:102D5000089597FB072E16F4009407D077FD09D04D
:102D60000E94951607FC05D03EF4909581959F4FE3
:102D70000895709561957F4F0895A1E21A2EAA1BC0
:102D8000BB1BFD010DC0AA1FBB1FEE1FFF1FA2171B
:102D9000B307E407F50720F0A21BB30BE40BF50B18
:102DA000661F771F881F991F1A9469F760957095A1
:102DB000809590959B01AC01BD01CF010895EE0F68
:102DC000FF1F0590F491E02D09940F931F93CF936B
:102DD000DF938230910510F482E090E0E091C70526
:102DE000F091C80520E030E0A0E0B0E0309719F1A4
:102DF000408151810281138148175907C8F0841717
:102E0000950769F4109731F012960C931297139668
:102E10001C9327C00093C7051093C80522C0211535
:102E2000310519F04217530718F49A01BD01EF015B
:102E3000DF01F801DBCF21153105F9F0281B390B33
:102E40002430310580F48A819B816115710521F060
:102E5000FB019383828304C09093C8058093C705C8
:102E6000FE01329644C0FE01E20FF31F819391935D
:102E700022503109398328833AC02091C505309109
:102E8000C605232B41F420915A0130915B01309308
:102E9000C6052093C505209158013091590121158F
:102EA000310541F42DB73EB740915C0150915D0171
:102EB000241B350BE091C505F091C605E217F30719
:102EC000A0F42E1B3F0B2817390778F0AC014E5F9A
:102ED0005F4F2417350748F04E0F5F1F5093C6050C
:102EE0004093C5058193919302C0E0E0F0E0CF01EB
:102EF000DF91CF911F910F910895CF93DF930097AA
:102F000009F481C0FC01329713821282A091C70597
:102F1000B091C805109781F420813181820F931FF1
:102F20002091C5053091C6052817390751F5F09352
:102F3000C605E093C50567C0ED0120E030E0CE177F
:102F4000DF0740F44A815B819E0141155105F1F094
:102F5000EA01F5CFD383C28340815181840F951F4D
:102F6000C817D90759F488819981840F951F029653
:102F7000918380838A819B8193838283211531058C
:102F800029F4F093C805E093C7053DC0E901FB8330
:102F9000EA8349915991C40FD51FEC17FD0761F4DD
:102FA00080819181840F951F0296E901998388831E
:102FB000828193819B838A83E0E0F0E012968D9179
:102FC0009C911397009719F0FD01DC01F7CF8D91CB
:102FD0009C9111979D012E5F3F4F820F931F20916F
:102FE000C5053091C6052817390769F4309729F4CB
:102FF0001092C8051092C70502C013821282B093C6
:10300000C605A093C505DF91CF910895A0E0B0E07B
:10301000ECE0F8E10C943715EC01009721F4CB01BA
:103020000E94E516B4C0FC01E60FF71F9C01225078
:103030003109E217F30708F4A8C0D9010D911C91DA
:10304000119706171707B0F00530110508F49BC05B
:10305000C80104978617970708F495C00250110914
:10306000061B170B019311936D937C93CF010E9464
:103070007D1789C05B01A01AB10A4C01800E911E18
:10308000A091C705B091C805612C712CE12CF12CE1
:10309000109709F446C08D919C911197A815B90518
:1030A000B1F56C0142E0C40ED11CCA14DB0478F106
:1030B0004C018A189B08640142E0C40ED11C129690
:1030C000BC9012971396AC91B5E0CB16D10440F0AA
:1030D000B282A38391828082D9016D937C9309C0CF
:1030E0000E5F1F4F800F911FF90191838083EB2D9D
:1030F000FA2FE114F10431F0D7011396FC93EE930B
:10310000129741C0F093C805E093C7053CC068160C
:10311000790608F43C017D0112960D90BC91A02D1A
:10312000B7CF8091C5059091C60588169906E1F440
:1031300066167706C8F4809158019091590100975E
:1031400041F48DB79EB740915C0150915D01841BA5
:10315000950BE817F907C8F4F093C605E093C50589
:10316000F901718360830FC0CB010E94E5167C01D9
:10317000009759F0A801BE010E94D118CE010E940B
:103180007D17C70104C0CE0102C080E090E0CDB73A
:10319000DEB7EEE00C94531581E090E0F8940C94C7
:1031A000E118FB01DC0102C001900D92415050403A
:1031B000D8F70895FB01DC0101900D920020E1F7A2
:1031C000089511E0C3E0D1E004C0FE010E94DF16C3
:0C31D0002196C430D107C9F7F894FFCF56
:1031DC0053756E6461790000000000004D6F6E64E1
:1031EC00617900000000000054756573646179001A
:1031FC00000000005765646E65736461790000001F
:10320C0054687572736461790000000046726964D9
:10321C00617900000000000053617475726461797B
:10322C00000000002E012E010000C90580000000E6
:10323C000000C2012F0159010F028A0168017C01B3
:10324C000000000069033C0399035302340320037C
:10325C0011030000000054022F0199035302A40231
:10326C00BC023B02525443206973204E4F542072CF
:10327C00756E6E696E672100415400546865206458
:10328C00697374616E63652069733A20006E616EB8
:10329C0000696E66006F7666000D0A00466C6F77EB
:1032AC0020726174653A20004C2F6D696E002020ED
:1032BC0043757272656E74204C6971756964204631
:1032CC006C6F77696E673A20006D4C2F5365630005
:1032DC0020204F7574707574204C69717569642069
:1032EC005175616E746974793A20006D4C00202818
:1032FC000029200052656164696E67206461746105
:10330C002E2E2E0041542B48545450494E495400F3
:10331C0041542B48545450504152413D224349444E
:10332C00222C310041542B48545450504152413DB1
:10333C002255524C222C22687474703A2F2F6C6FC9
:10334C0063616C686F73743A383038302F61706910
:10335C002F616464220041542B4854545050415204
:10336C00413D22434F4E54454E54222C226D756CD8
:10337C007469706172742F666F726D2D6461746103
:10338C003B20626F756E646172793D2D2D2D2D572A
:10339C0065624B6974466F726D426F756E646172D3
:1033AC0079765A305A4853684E41634241425746E7
:1033BC0079220041542B48545450444154413D31DE
:1033CC0039322C3130303030002D2D2D2D2D2D5704
:1033DC0065624B6974466F726D426F756E64617293
:1033EC0079765A305A4853684E41634241425746A7
:1033FC007900436F6E74656E742D446973706F73CE
:10340C006974696F6E3A20666F726D2D64617461B8
:10341C003B206E616D653D2266696C65546F55701D
:10342C006C6F6164223B2066696C656E616D653DF5
:10343C0022646174612E6A736F6E2200436F6E7426
:10344C00656E742D547970653A206170706C696387
:10345C006174696F6E2F6A736F6E007B226E616D83
:10346C0065223A224B69796161222C226C6F63616F
:10347C0074696F6E223A226164616D61222C226C38
:10348C006576656C223A002C22666C6F77526174FB
:10349C0065223A007D0041542B485454504143540A
:1034AC00494F4E3D310041542B434E4D493D322C3A
:0834BC00322C302C302C3000C2
:107E0000112484B714BE81FFF0D085E080938100F7
:107E100082E08093C00088E18093C10086E0809377
:107E2000C20080E18093C4008EE0C9D0259A86E02C
:107E300020E33CEF91E0309385002093840096BBD3
:107E4000B09BFECF1D9AA8958150A9F7CC24DD24C4
:107E500088248394B5E0AB2EA1E19A2EF3E0BF2EE7
:107E6000A2D0813461F49FD0082FAFD0023811F036
:107E7000013811F484E001C083E08DD089C08234E0
:107E800011F484E103C0853419F485E0A6D080C0E4
:107E9000853579F488D0E82EFF2485D0082F10E0AE
:107EA000102F00270E291F29000F111F8ED06801E7
:107EB0006FC0863521F484E090D080E0DECF843638
:107EC00009F040C070D06FD0082F6DD080E0C81688
:107ED00080E7D80618F4F601B7BEE895C0E0D1E017
:107EE00062D089930C17E1F7F0E0CF16F0E7DF06D8
:107EF00018F0F601B7BEE89568D007B600FCFDCFD4
:107F0000A601A0E0B1E02C9130E011968C91119780
:107F100090E0982F8827822B932B1296FA010C0160
:107F200087BEE89511244E5F5F4FF1E0A038BF0790
:107F300051F7F601A7BEE89507B600FCFDCF97BE46
:107F4000E89526C08437B1F42ED02DD0F82E2BD052
:107F50003CD0F601EF2C8F010F5F1F4F84911BD097
:107F6000EA94F801C1F70894C11CD11CFA94CF0C13
:107F7000D11C0EC0853739F428D08EE10CD085E9AC
:107F80000AD08FE07ACF813511F488E018D01DD067
:107F900080E101D065CF982F8091C00085FFFCCF94
:107FA0009093C60008958091C00087FFFCCF809118
:107FB000C00084FD01C0A8958091C6000895E0E648
:107FC000F0E098E1908380830895EDDF803219F02E
:107FD00088E0F5DFFFCF84E1DECF1F93182FE3DFCA
:107FE0001150E9F7F2DF1F91089580E0E8DFEE27F6
:047FF000FF270994CA
:027FFE00040479
:0400000300007E007B
:00000001FF
